{
  "contracts/redpacket.sol": {
    "HappyRedPacket": {
      "abi": [
        {
          "anonymous": false,
          "inputs": [
            {
              "indexed": false,
              "internalType": "bytes32",
              "name": "id",
              "type": "bytes32"
            },
            {
              "indexed": false,
              "internalType": "address",
              "name": "claimer",
              "type": "address"
            },
            {
              "indexed": false,
              "internalType": "uint256",
              "name": "claimed_value",
              "type": "uint256"
            },
            {
              "indexed": false,
              "internalType": "address",
              "name": "token_address",
              "type": "address"
            }
          ],
          "name": "ClaimSuccess",
          "type": "event"
        },
        {
          "anonymous": false,
          "inputs": [
            {
              "indexed": false,
              "internalType": "uint256",
              "name": "total",
              "type": "uint256"
            },
            {
              "indexed": false,
              "internalType": "bytes32",
              "name": "id",
              "type": "bytes32"
            },
            {
              "indexed": false,
              "internalType": "string",
              "name": "name",
              "type": "string"
            },
            {
              "indexed": false,
              "internalType": "string",
              "name": "message",
              "type": "string"
            },
            {
              "indexed": false,
              "internalType": "address",
              "name": "creator",
              "type": "address"
            },
            {
              "indexed": false,
              "internalType": "uint256",
              "name": "creation_time",
              "type": "uint256"
            },
            {
              "indexed": false,
              "internalType": "address",
              "name": "token_address",
              "type": "address"
            },
            {
              "indexed": false,
              "internalType": "uint256",
              "name": "number",
              "type": "uint256"
            },
            {
              "indexed": false,
              "internalType": "bool",
              "name": "ifrandom",
              "type": "bool"
            },
            {
              "indexed": false,
              "internalType": "uint256",
              "name": "duration",
              "type": "uint256"
            }
          ],
          "name": "CreationSuccess",
          "type": "event"
        },
        {
          "anonymous": false,
          "inputs": [
            {
              "indexed": false,
              "internalType": "bytes32",
              "name": "id",
              "type": "bytes32"
            },
            {
              "indexed": false,
              "internalType": "address",
              "name": "token_address",
              "type": "address"
            },
            {
              "indexed": false,
              "internalType": "uint256",
              "name": "remaining_balance",
              "type": "uint256"
            }
          ],
          "name": "RefundSuccess",
          "type": "event"
        },
        {
          "inputs": [
            {
              "internalType": "bytes32",
              "name": "id",
              "type": "bytes32"
            }
          ],
          "name": "check_availability",
          "outputs": [
            {
              "internalType": "address",
              "name": "token_address",
              "type": "address"
            },
            {
              "internalType": "uint256",
              "name": "balance",
              "type": "uint256"
            },
            {
              "internalType": "uint256",
              "name": "total",
              "type": "uint256"
            },
            {
              "internalType": "uint256",
              "name": "claimed",
              "type": "uint256"
            },
            {
              "internalType": "bool",
              "name": "expired",
              "type": "bool"
            },
            {
              "internalType": "uint256",
              "name": "claimed_amount",
              "type": "uint256"
            }
          ],
          "stateMutability": "view",
          "type": "function"
        },
        {
          "inputs": [
            {
              "internalType": "bytes32",
              "name": "id",
              "type": "bytes32"
            },
            {
              "internalType": "bytes",
              "name": "signedMsg",
              "type": "bytes"
            },
            {
              "internalType": "address payable",
              "name": "recipient",
              "type": "address"
            }
          ],
          "name": "claim",
          "outputs": [
            {
              "internalType": "uint256",
              "name": "claimed",
              "type": "uint256"
            }
          ],
          "stateMutability": "nonpayable",
          "type": "function"
        },
        {
          "inputs": [
            {
              "internalType": "address",
              "name": "_public_key",
              "type": "address"
            },
            {
              "internalType": "uint256",
              "name": "_number",
              "type": "uint256"
            },
            {
              "internalType": "bool",
              "name": "_ifrandom",
              "type": "bool"
            },
            {
              "internalType": "uint256",
              "name": "_duration",
              "type": "uint256"
            },
            {
              "internalType": "bytes32",
              "name": "_seed",
              "type": "bytes32"
            },
            {
              "internalType": "string",
              "name": "_message",
              "type": "string"
            },
            {
              "internalType": "string",
              "name": "_name",
              "type": "string"
            },
            {
              "internalType": "uint256",
              "name": "_token_type",
              "type": "uint256"
            },
            {
              "internalType": "address",
              "name": "_token_addr",
              "type": "address"
            },
            {
              "internalType": "uint256",
              "name": "_total_tokens",
              "type": "uint256"
            }
          ],
          "name": "create_red_packet",
          "outputs": [],
          "stateMutability": "payable",
          "type": "function"
        },
        {
          "inputs": [],
          "name": "initialize",
          "outputs": [],
          "stateMutability": "nonpayable",
          "type": "function"
        },
        {
          "inputs": [
            {
              "internalType": "bytes32",
              "name": "id",
              "type": "bytes32"
            }
          ],
          "name": "refund",
          "outputs": [],
          "stateMutability": "nonpayable",
          "type": "function"
        }
      ],
      "devdoc": {
        "kind": "dev",
        "methods": {},
        "version": 1
      },
      "evm": {
        "bytecode": {
          "linkReferences": {},
          "object": "608060405234801561001057600080fd5b50611a8f806100206000396000f3fe60806040526004361061004a5760003560e01c80635db05aba1461004f5780636bfdaece146100645780637249fbb61461009f5780637394ad93146100bf5780638129fc1c146100ec575b600080fd5b61006261005d36600461102b565b610101565b005b34801561007057600080fd5b5061008461007f36600461110c565b6103cb565b60405161009696959493929190611332565b60405180910390f35b3480156100ab57600080fd5b506100626100ba36600461110c565b610479565b3480156100cb57600080fd5b506100df6100da366004611124565b610633565b60405161009691906118ae565b3480156100f857600080fd5b50610062610929565b6000805462010000900463ffffffff1690600261011d836119bc565b91906101000a81548163ffffffff021916908363ffffffff16021790555050888110156101655760405162461bcd60e51b815260040161015c90611515565b60405180910390fd5b600089116101855760405162461bcd60e51b815260040161015c906114e7565b61010089106101a65760405162461bcd60e51b815260040161015c906117b6565b8215806101b35750826001145b6101cf5760405162461bcd60e51b815260040161015c9061144c565b826101f957803410156101f45760405162461bcd60e51b815260040161015c90611645565b6102b5565b82600114156102b557604051636eb1769f60e11b815281906001600160a01b0384169063dd62ed3e9061023290339030906004016112db565b60206040518083038186803b15801561024a57600080fd5b505afa15801561025e573d6000803e3d6000fd5b505050506040513d601f19601f820116820180604052508101906102829190611190565b10156102a05760405162461bcd60e51b815260040161015c906114ba565b6102b56001600160a01b0383163330846109cc565b600080546002546040516102df92339242926201000090920463ffffffff16918c906020016111d4565b604051602081830303815290604052805190602001209050600089610305576000610308565b60015b600083815260016020526040902060ff919091169150610328848b610a2a565b8155610336858d8885610a59565b60018201556003810180546001600160a01b038f166001600160a01b03199182161790915560049091018054909116339081179091556040518c92508b918b917f86af556fd7cfab9462285ad44f2d5913527c539ff549f74731ca9997ca534018916103b391889188918d918f9142908e908c908c908c906118b7565b60405180910390a15050505050505050505050505050565b6000818152600160208181526040808420815180830183528154815293810154928401839052849384938493849384939092909161040b919060a0610ab5565b815161041a9060806060610ab5565b61042b836020015160ef600f610ab5565b61043c846020015160e0600f610ab5565b845161044b9060e06020610ab5565b3360009081526002909701602052604090962054939d929c50909a5098504293909311965094509092505050565b60008181526001602081815260409283902083518085019094528054808552928101549184019190915260048101549092916001600160a01b0390911690158015906104c85750602082015115155b6104e45760405162461bcd60e51b815260040161015c9061175c565b6001600160a01b038116331461050c5760405162461bcd60e51b815260040161015c90611867565b4261051e836000015160e06020610ab5565b111561053c5760405162461bcd60e51b815260040161015c90611541565b600061054f836000015160806060610ab5565b90508061056e5760405162461bcd60e51b815260040161015c90611725565b6000610581846020015160fe6001610ab5565b905060006105968560200151604060a0610ab5565b600080885560018801559050816105da57604051339084156108fc029085906000818181858888f193505050501580156105d4573d6000803e3d6000fd5b506105ef565b81600114156105ef576105ef81303386610af0565b7f66c304c539e0bc7c8070207c09b9f6a5a9591b434dfed1867cc57fde7fb600938782856040516106229392919061138e565b60405180910390a150505050505050565b6000838152600160208181526040808420815180830190925280548083529381015482840152929091429161066a9160e090610ab5565b116106875760405162461bcd60e51b815260040161015c9061188d565b600061069a826020015160ef600f610ab5565b905060006106af836020015160e0600f610ab5565b90508181106106d05760405162461bcd60e51b815260040161015c9061161f565b60038401546001600160a01b03166106e88882610b04565b6107045760405162461bcd60e51b815260040161015c9061156a565b600080610718866020015160fe6001610ab5565b9050600061072d876020015160ff6001610ab5565b90506000610742886000015160806060610ab5565b905081600114156107bc576107578688611979565b60011415610767578093506107ad565b610784610775826002610b92565b61077f888a611979565b610b9e565b6002546000546107a0919062010000900463ffffffff16610baa565b6107aa91906119e0565b93505b836107b757600193505b6107e7565b6107c68688611979565b600114156107d6578093506107e7565b6107e48161077f888a611979565b93505b875161080090608060606107fb8886611979565b610be6565b895533600090815260028a016020526040902054156108315760405162461bcd60e51b815260040161015c906116fc565b33600090815260028a016020908152604090912085905588015161085e9060e0600f6107fb8a600161192e565b60018a0155826108a4576040516001600160a01b038c169085156108fc029086906000818181858888f1935050505015801561089e573d6000803e3d6000fd5b506108c9565b82600114156108c9576108c96108c18960200151604060a0610ab5565b308d87610af0565b7f358ddd686a5ca3ef6f8aee9b8d2dc3c642ecc278657c3802f8802b1a44c10e448d8c866108fe8c60200151604060a0610ab5565b60405161090e9493929190611367565b60405180910390a150919750505050505050505b9392505050565b600054610100900460ff1680610942575060005460ff16155b61095e5760405162461bcd60e51b815260040161015c9061166c565b600054610100900460ff16158015610989576000805460ff1961ff0019909116610100171660011790555b423360405160200161099c929190611261565b60408051601f19818403018152919052805160209091012060025580156109c9576000805461ff00191690555b50565b610a24846323b872dd60e01b8585856040516024016109ed939291906112f5565b60408051601f198184030181529190526020810180516001600160e01b03166001600160e01b031990931692909217909152610bfd565b50505050565b600080610a3a6080606086610c91565b17610a5160e06020610a4c864261192e565b610c91565b179392505050565b600080610a72604060a06001600160a01b038916610c91565b17610a8160e0600f6000610c91565b17610a8f60ef600f87610c91565b17610a9d60fe600186610c91565b17610aab60ff600185610c91565b1795945050505050565b6000610ac361010085610cc2565b610adf5760405162461bcd60e51b815260040161015c90611415565b50600019600190911b0191901c1690565b610a246001600160a01b0385168383610cd1565b6000806040518060400160405280601c81526020017f19457468657265756d205369676e6564204d6573736167653a0a323000000000815250905060008133604051602001610b5492919061122f565b6040516020818303038152906040528051906020012090506000610b788287610cf0565b6001600160a01b0390811690861614935050505092915050565b6000610922828461195a565b60006109228284611946565b600081338442604051602001610bc394939291906112a4565b60408051601f19818403018152919052805160209091012061092290600161192e565b821b600190911b6000190190911b19919091161790565b6000610c52826040518060400160405280602081526020017f5361666545524332303a206c6f772d6c6576656c2063616c6c206661696c6564815250856001600160a01b0316610d769092919063ffffffff16565b805190915015610c8c5780806020019051810190610c7091906110f0565b610c8c5760405162461bcd60e51b815260040161015c9061181d565b505050565b6000610c9d8383610cc2565b610cb95760405162461bcd60e51b815260040161015c90611786565b5090911b919050565b6101008214600190921b111790565b610c8c8363a9059cbb60e01b84846040516024016109ed929190611319565b600080600080845160411415610d1a5750505060208201516040830151606084015160001a610d60565b845160401415610d485750505060408201516020830151906001600160ff1b0381169060ff1c601b01610d60565b60405162461bcd60e51b815260040161015c90611483565b610d6c86828585610d8d565b9695505050505050565b6060610d858484600085610e83565b949350505050565b60007f7fffffffffffffffffffffffffffffff5d576e7357a4501ddfe92f46681b20a0821115610dcf5760405162461bcd60e51b815260040161015c90611597565b8360ff16601b1480610de457508360ff16601c145b610e005760405162461bcd60e51b815260040161015c906116ba565b600060018686868660405160008152602001604052604051610e2594939291906113ad565b6020604051602081039080840390855afa158015610e47573d6000803e3d6000fd5b5050604051601f1901519150506001600160a01b038116610e7a5760405162461bcd60e51b815260040161015c906113de565b95945050505050565b606082471015610ea55760405162461bcd60e51b815260040161015c906115d9565b610eae85610f43565b610eca5760405162461bcd60e51b815260040161015c906117e6565b600080866001600160a01b03168587604051610ee69190611213565b60006040518083038185875af1925050503d8060008114610f23576040519150601f19603f3d011682016040523d82523d6000602084013e610f28565b606091505b5091509150610f38828286610f4d565b979650505050505050565b803b15155b919050565b60608315610f5c575081610922565b825115610f6c5782518084602001fd5b8160405162461bcd60e51b815260040161015c91906113cb565b600067ffffffffffffffff80841115610fa157610fa1611a20565b604051601f8501601f191681016020018281118282101715610fc557610fc5611a20565b604052848152915081838501861015610fdd57600080fd5b8484602083013760006020868301015250509392505050565b8035610f4881611a36565b8035610f4881611a4b565b600082601f83011261101c578081fd5b61092283833560208501610f86565b6000806000806000806000806000806101408b8d03121561104a578586fd5b6110538b610ff6565b995060208b0135985061106860408c01611001565b975060608b0135965060808b0135955060a08b013567ffffffffffffffff80821115611092578687fd5b61109e8e838f0161100c565b965060c08d01359150808211156110b3578586fd5b506110c08d828e0161100c565b94505060e08b013592506110d76101008c01610ff6565b91506101208b013590509295989b9194979a5092959850565b600060208284031215611101578081fd5b815161092281611a4b565b60006020828403121561111d578081fd5b5035919050565b600080600060608486031215611138578283fd5b83359250602084013567ffffffffffffffff811115611155578283fd5b8401601f81018613611165578283fd5b61117486823560208401610f86565b925050604084013561118581611a36565b809150509250925092565b6000602082840312156111a1578081fd5b5051919050565b600081518084526111c0816020860160208601611990565b601f01601f19169290920160200192915050565b60609590951b6001600160601b0319168552601485019390935260e09190911b6001600160e01b03191660348401526038830152605882015260780190565b60008251611225818460208701611990565b9190910192915050565b60008351611241818460208801611990565b60609390931b6001600160601b0319169190920190815260140192915050565b7f466f726d6572204e424120436f6d6d697373696f6e65722044617669642053748152602081019290925260601b6001600160601b031916604082015260540190565b60e09490941b6001600160e01b031916845260609290921b6001600160601b03191660048401526018830152603882015260580190565b6001600160a01b0392831681529116602082015260400190565b6001600160a01b039384168152919092166020820152604081019190915260600190565b6001600160a01b03929092168252602082015260400190565b6001600160a01b039690961686526020860194909452604085019290925260608401521515608083015260a082015260c00190565b9384526001600160a01b039283166020850152604084019190915216606082015260800190565b9283526001600160a01b03919091166020830152604082015260600190565b93845260ff9290921660208401526040830152606082015260800190565b60006020825261092260208301846111a8565b60208082526018908201527f45434453413a20696e76616c6964207369676e61747572650000000000000000604082015260600190565b60208082526018908201527f56616c7565206f7574206f662072616e676520554e424f580000000000000000604082015260600190565b60208082526019908201527f556e7265636f676e697a61626c6520746f6b656e207479706500000000000000604082015260600190565b6020808252601f908201527f45434453413a20696e76616c6964207369676e6174757265206c656e67746800604082015260600190565b6020808252601390820152724e6f20656e6f75676820616c6c6f77616e636560681b604082015260600190565b602080825260149082015273105d081b19585cdd080c481c9958da5c1a595b9d60621b604082015260600190565b60208082526012908201527123746f6b656e73203e20237061636b65747360701b604082015260600190565b6020808252600f908201526e139bdd08195e1c1a5c9959081e595d608a1b604082015260600190565b60208082526013908201527215995c9a599a58d85d1a5bdb8819985a5b1959606a1b604082015260600190565b60208082526022908201527f45434453413a20696e76616c6964207369676e6174757265202773272076616c604082015261756560f01b606082015260800190565b60208082526026908201527f416464726573733a20696e73756666696369656e742062616c616e636520666f6040820152651c8818d85b1b60d21b606082015260800190565b6020808252600c908201526b4f7574206f662073746f636b60a01b604082015260600190565b6020808252600d908201526c09cde40cadcdeeaced0408aa89609b1b604082015260600190565b6020808252602e908201527f496e697469616c697a61626c653a20636f6e747261637420697320616c72656160408201526d191e481a5b9a5d1a585b1a5e995960921b606082015260800190565b60208082526022908201527f45434453413a20696e76616c6964207369676e6174757265202776272076616c604082015261756560f01b606082015260800190565b6020808252600f908201526e105b1c9958591e4818db185a5b5959608a1b604082015260600190565b6020808252601b908201527f4e6f6e65206c65667420696e2074686520726564207061636b65740000000000604082015260600190565b60208082526010908201526f105b1c9958591e481499599d5b99195960821b604082015260600190565b6020808252601690820152750acc2d8eaca40deeae840decc40e4c2dcceca40849eb60531b604082015260600190565b6020808252601690820152754174206d6f73742032353520726563697069656e747360501b604082015260600190565b6020808252601d908201527f416464726573733a2063616c6c20746f206e6f6e2d636f6e7472616374000000604082015260600190565b6020808252602a908201527f5361666545524332303a204552433230206f7065726174696f6e20646964206e6040820152691bdd081cdd58d8d9595960b21b606082015260800190565b6020808252600c908201526b43726561746f72204f6e6c7960a01b604082015260600190565b602080825260079082015266115e1c1a5c995960ca1b604082015260600190565b90815260200190565b60006101408c83528b60208401528060408401526118d78184018c6111a8565b905082810360608401526118eb818b6111a8565b6001600160a01b03998a16608085015260a084019890985250509390951660c084015260e083019190915215156101008201526101200191909152949350505050565b60008219821115611941576119416119f4565b500190565b60008261195557611955611a0a565b500490565b6000816000190483118215151615611974576119746119f4565b500290565b60008282101561198b5761198b6119f4565b500390565b60005b838110156119ab578181015183820152602001611993565b83811115610a245750506000910152565b600063ffffffff808316818114156119d6576119d66119f4565b6001019392505050565b6000826119ef576119ef611a0a565b500690565b634e487b7160e01b600052601160045260246000fd5b634e487b7160e01b600052601260045260246000fd5b634e487b7160e01b600052604160045260246000fd5b6001600160a01b03811681146109c957600080fd5b80151581146109c957600080fdfea2646970667358221220d27815343bc60e784ff6b3ff66f8d881b7f0664333892070523e9ede72c178a464736f6c63430008000033",
          "opcodes": "PUSH1 0x80 PUSH1 0x40 MSTORE CALLVALUE DUP1 ISZERO PUSH2 0x10 JUMPI PUSH1 0x0 DUP1 REVERT JUMPDEST POP PUSH2 0x1A8F DUP1 PUSH2 0x20 PUSH1 0x0 CODECOPY PUSH1 0x0 RETURN INVALID PUSH1 0x80 PUSH1 0x40 MSTORE PUSH1 0x4 CALLDATASIZE LT PUSH2 0x4A JUMPI PUSH1 0x0 CALLDATALOAD PUSH1 0xE0 SHR DUP1 PUSH4 0x5DB05ABA EQ PUSH2 0x4F JUMPI DUP1 PUSH4 0x6BFDAECE EQ PUSH2 0x64 JUMPI DUP1 PUSH4 0x7249FBB6 EQ PUSH2 0x9F JUMPI DUP1 PUSH4 0x7394AD93 EQ PUSH2 0xBF JUMPI DUP1 PUSH4 0x8129FC1C EQ PUSH2 0xEC JUMPI JUMPDEST PUSH1 0x0 DUP1 REVERT JUMPDEST PUSH2 0x62 PUSH2 0x5D CALLDATASIZE PUSH1 0x4 PUSH2 0x102B JUMP JUMPDEST PUSH2 0x101 JUMP JUMPDEST STOP JUMPDEST CALLVALUE DUP1 ISZERO PUSH2 0x70 JUMPI PUSH1 0x0 DUP1 REVERT JUMPDEST POP PUSH2 0x84 PUSH2 0x7F CALLDATASIZE PUSH1 0x4 PUSH2 0x110C JUMP JUMPDEST PUSH2 0x3CB JUMP JUMPDEST PUSH1 0x40 MLOAD PUSH2 0x96 SWAP7 SWAP6 SWAP5 SWAP4 SWAP3 SWAP2 SWAP1 PUSH2 0x1332 JUMP JUMPDEST PUSH1 0x40 MLOAD DUP1 SWAP2 SUB SWAP1 RETURN JUMPDEST CALLVALUE DUP1 ISZERO PUSH2 0xAB JUMPI PUSH1 0x0 DUP1 REVERT JUMPDEST POP PUSH2 0x62 PUSH2 0xBA CALLDATASIZE PUSH1 0x4 PUSH2 0x110C JUMP JUMPDEST PUSH2 0x479 JUMP JUMPDEST CALLVALUE DUP1 ISZERO PUSH2 0xCB JUMPI PUSH1 0x0 DUP1 REVERT JUMPDEST POP PUSH2 0xDF PUSH2 0xDA CALLDATASIZE PUSH1 0x4 PUSH2 0x1124 JUMP JUMPDEST PUSH2 0x633 JUMP JUMPDEST PUSH1 0x40 MLOAD PUSH2 0x96 SWAP2 SWAP1 PUSH2 0x18AE JUMP JUMPDEST CALLVALUE DUP1 ISZERO PUSH2 0xF8 JUMPI PUSH1 0x0 DUP1 REVERT JUMPDEST POP PUSH2 0x62 PUSH2 0x929 JUMP JUMPDEST PUSH1 0x0 DUP1 SLOAD PUSH3 0x10000 SWAP1 DIV PUSH4 0xFFFFFFFF AND SWAP1 PUSH1 0x2 PUSH2 0x11D DUP4 PUSH2 0x19BC JUMP JUMPDEST SWAP2 SWAP1 PUSH2 0x100 EXP DUP2 SLOAD DUP2 PUSH4 0xFFFFFFFF MUL NOT AND SWAP1 DUP4 PUSH4 0xFFFFFFFF AND MUL OR SWAP1 SSTORE POP POP DUP9 DUP2 LT ISZERO PUSH2 0x165 JUMPI PUSH1 0x40 MLOAD PUSH3 0x461BCD PUSH1 0xE5 SHL DUP2 MSTORE PUSH1 0x4 ADD PUSH2 0x15C SWAP1 PUSH2 0x1515 JUMP JUMPDEST PUSH1 0x40 MLOAD DUP1 SWAP2 SUB SWAP1 REVERT JUMPDEST PUSH1 0x0 DUP10 GT PUSH2 0x185 JUMPI PUSH1 0x40 MLOAD PUSH3 0x461BCD PUSH1 0xE5 SHL DUP2 MSTORE PUSH1 0x4 ADD PUSH2 0x15C SWAP1 PUSH2 0x14E7 JUMP JUMPDEST PUSH2 0x100 DUP10 LT PUSH2 0x1A6 JUMPI PUSH1 0x40 MLOAD PUSH3 0x461BCD PUSH1 0xE5 SHL DUP2 MSTORE PUSH1 0x4 ADD PUSH2 0x15C SWAP1 PUSH2 0x17B6 JUMP JUMPDEST DUP3 ISZERO DUP1 PUSH2 0x1B3 JUMPI POP DUP3 PUSH1 0x1 EQ JUMPDEST PUSH2 0x1CF JUMPI PUSH1 0x40 MLOAD PUSH3 0x461BCD PUSH1 0xE5 SHL DUP2 MSTORE PUSH1 0x4 ADD PUSH2 0x15C SWAP1 PUSH2 0x144C JUMP JUMPDEST DUP3 PUSH2 0x1F9 JUMPI DUP1 CALLVALUE LT ISZERO PUSH2 0x1F4 JUMPI PUSH1 0x40 MLOAD PUSH3 0x461BCD PUSH1 0xE5 SHL DUP2 MSTORE PUSH1 0x4 ADD PUSH2 0x15C SWAP1 PUSH2 0x1645 JUMP JUMPDEST PUSH2 0x2B5 JUMP JUMPDEST DUP3 PUSH1 0x1 EQ ISZERO PUSH2 0x2B5 JUMPI PUSH1 0x40 MLOAD PUSH4 0x6EB1769F PUSH1 0xE1 SHL DUP2 MSTORE DUP2 SWAP1 PUSH1 0x1 PUSH1 0x1 PUSH1 0xA0 SHL SUB DUP5 AND SWAP1 PUSH4 0xDD62ED3E SWAP1 PUSH2 0x232 SWAP1 CALLER SWAP1 ADDRESS SWAP1 PUSH1 0x4 ADD PUSH2 0x12DB JUMP JUMPDEST PUSH1 0x20 PUSH1 0x40 MLOAD DUP1 DUP4 SUB DUP2 DUP7 DUP1 EXTCODESIZE ISZERO DUP1 ISZERO PUSH2 0x24A JUMPI PUSH1 0x0 DUP1 REVERT JUMPDEST POP GAS STATICCALL ISZERO DUP1 ISZERO PUSH2 0x25E JUMPI RETURNDATASIZE PUSH1 0x0 DUP1 RETURNDATACOPY RETURNDATASIZE PUSH1 0x0 REVERT JUMPDEST POP POP POP POP PUSH1 0x40 MLOAD RETURNDATASIZE PUSH1 0x1F NOT PUSH1 0x1F DUP3 ADD AND DUP3 ADD DUP1 PUSH1 0x40 MSTORE POP DUP2 ADD SWAP1 PUSH2 0x282 SWAP2 SWAP1 PUSH2 0x1190 JUMP JUMPDEST LT ISZERO PUSH2 0x2A0 JUMPI PUSH1 0x40 MLOAD PUSH3 0x461BCD PUSH1 0xE5 SHL DUP2 MSTORE PUSH1 0x4 ADD PUSH2 0x15C SWAP1 PUSH2 0x14BA JUMP JUMPDEST PUSH2 0x2B5 PUSH1 0x1 PUSH1 0x1 PUSH1 0xA0 SHL SUB DUP4 AND CALLER ADDRESS DUP5 PUSH2 0x9CC JUMP JUMPDEST PUSH1 0x0 DUP1 SLOAD PUSH1 0x2 SLOAD PUSH1 0x40 MLOAD PUSH2 0x2DF SWAP3 CALLER SWAP3 TIMESTAMP SWAP3 PUSH3 0x10000 SWAP1 SWAP3 DIV PUSH4 0xFFFFFFFF AND SWAP2 DUP13 SWAP1 PUSH1 0x20 ADD PUSH2 0x11D4 JUMP JUMPDEST PUSH1 0x40 MLOAD PUSH1 0x20 DUP2 DUP4 SUB SUB DUP2 MSTORE SWAP1 PUSH1 0x40 MSTORE DUP1 MLOAD SWAP1 PUSH1 0x20 ADD KECCAK256 SWAP1 POP PUSH1 0x0 DUP10 PUSH2 0x305 JUMPI PUSH1 0x0 PUSH2 0x308 JUMP JUMPDEST PUSH1 0x1 JUMPDEST PUSH1 0x0 DUP4 DUP2 MSTORE PUSH1 0x1 PUSH1 0x20 MSTORE PUSH1 0x40 SWAP1 KECCAK256 PUSH1 0xFF SWAP2 SWAP1 SWAP2 AND SWAP2 POP PUSH2 0x328 DUP5 DUP12 PUSH2 0xA2A JUMP JUMPDEST DUP2 SSTORE PUSH2 0x336 DUP6 DUP14 DUP9 DUP6 PUSH2 0xA59 JUMP JUMPDEST PUSH1 0x1 DUP3 ADD SSTORE PUSH1 0x3 DUP2 ADD DUP1 SLOAD PUSH1 0x1 PUSH1 0x1 PUSH1 0xA0 SHL SUB DUP16 AND PUSH1 0x1 PUSH1 0x1 PUSH1 0xA0 SHL SUB NOT SWAP2 DUP3 AND OR SWAP1 SWAP2 SSTORE PUSH1 0x4 SWAP1 SWAP2 ADD DUP1 SLOAD SWAP1 SWAP2 AND CALLER SWAP1 DUP2 OR SWAP1 SWAP2 SSTORE PUSH1 0x40 MLOAD DUP13 SWAP3 POP DUP12 SWAP2 DUP12 SWAP2 PUSH32 0x86AF556FD7CFAB9462285AD44F2D5913527C539FF549F74731CA9997CA534018 SWAP2 PUSH2 0x3B3 SWAP2 DUP9 SWAP2 DUP9 SWAP2 DUP14 SWAP2 DUP16 SWAP2 TIMESTAMP SWAP1 DUP15 SWAP1 DUP13 SWAP1 DUP13 SWAP1 DUP13 SWAP1 PUSH2 0x18B7 JUMP JUMPDEST PUSH1 0x40 MLOAD DUP1 SWAP2 SUB SWAP1 LOG1 POP POP POP POP POP POP POP POP POP POP POP POP POP POP JUMP JUMPDEST PUSH1 0x0 DUP2 DUP2 MSTORE PUSH1 0x1 PUSH1 0x20 DUP2 DUP2 MSTORE PUSH1 0x40 DUP1 DUP5 KECCAK256 DUP2 MLOAD DUP1 DUP4 ADD DUP4 MSTORE DUP2 SLOAD DUP2 MSTORE SWAP4 DUP2 ADD SLOAD SWAP3 DUP5 ADD DUP4 SWAP1 MSTORE DUP5 SWAP4 DUP5 SWAP4 DUP5 SWAP4 DUP5 SWAP4 DUP5 SWAP4 SWAP1 SWAP3 SWAP1 SWAP2 PUSH2 0x40B SWAP2 SWAP1 PUSH1 0xA0 PUSH2 0xAB5 JUMP JUMPDEST DUP2 MLOAD PUSH2 0x41A SWAP1 PUSH1 0x80 PUSH1 0x60 PUSH2 0xAB5 JUMP JUMPDEST PUSH2 0x42B DUP4 PUSH1 0x20 ADD MLOAD PUSH1 0xEF PUSH1 0xF PUSH2 0xAB5 JUMP JUMPDEST PUSH2 0x43C DUP5 PUSH1 0x20 ADD MLOAD PUSH1 0xE0 PUSH1 0xF PUSH2 0xAB5 JUMP JUMPDEST DUP5 MLOAD PUSH2 0x44B SWAP1 PUSH1 0xE0 PUSH1 0x20 PUSH2 0xAB5 JUMP JUMPDEST CALLER PUSH1 0x0 SWAP1 DUP2 MSTORE PUSH1 0x2 SWAP1 SWAP8 ADD PUSH1 0x20 MSTORE PUSH1 0x40 SWAP1 SWAP7 KECCAK256 SLOAD SWAP4 SWAP14 SWAP3 SWAP13 POP SWAP1 SWAP11 POP SWAP9 POP TIMESTAMP SWAP4 SWAP1 SWAP4 GT SWAP7 POP SWAP5 POP SWAP1 SWAP3 POP POP POP JUMP JUMPDEST PUSH1 0x0 DUP2 DUP2 MSTORE PUSH1 0x1 PUSH1 0x20 DUP2 DUP2 MSTORE PUSH1 0x40 SWAP3 DUP4 SWAP1 KECCAK256 DUP4 MLOAD DUP1 DUP6 ADD SWAP1 SWAP5 MSTORE DUP1 SLOAD DUP1 DUP6 MSTORE SWAP3 DUP2 ADD SLOAD SWAP2 DUP5 ADD SWAP2 SWAP1 SWAP2 MSTORE PUSH1 0x4 DUP2 ADD SLOAD SWAP1 SWAP3 SWAP2 PUSH1 0x1 PUSH1 0x1 PUSH1 0xA0 SHL SUB SWAP1 SWAP2 AND SWAP1 ISZERO DUP1 ISZERO SWAP1 PUSH2 0x4C8 JUMPI POP PUSH1 0x20 DUP3 ADD MLOAD ISZERO ISZERO JUMPDEST PUSH2 0x4E4 JUMPI PUSH1 0x40 MLOAD PUSH3 0x461BCD PUSH1 0xE5 SHL DUP2 MSTORE PUSH1 0x4 ADD PUSH2 0x15C SWAP1 PUSH2 0x175C JUMP JUMPDEST PUSH1 0x1 PUSH1 0x1 PUSH1 0xA0 SHL SUB DUP2 AND CALLER EQ PUSH2 0x50C JUMPI PUSH1 0x40 MLOAD PUSH3 0x461BCD PUSH1 0xE5 SHL DUP2 MSTORE PUSH1 0x4 ADD PUSH2 0x15C SWAP1 PUSH2 0x1867 JUMP JUMPDEST TIMESTAMP PUSH2 0x51E DUP4 PUSH1 0x0 ADD MLOAD PUSH1 0xE0 PUSH1 0x20 PUSH2 0xAB5 JUMP JUMPDEST GT ISZERO PUSH2 0x53C JUMPI PUSH1 0x40 MLOAD PUSH3 0x461BCD PUSH1 0xE5 SHL DUP2 MSTORE PUSH1 0x4 ADD PUSH2 0x15C SWAP1 PUSH2 0x1541 JUMP JUMPDEST PUSH1 0x0 PUSH2 0x54F DUP4 PUSH1 0x0 ADD MLOAD PUSH1 0x80 PUSH1 0x60 PUSH2 0xAB5 JUMP JUMPDEST SWAP1 POP DUP1 PUSH2 0x56E JUMPI PUSH1 0x40 MLOAD PUSH3 0x461BCD PUSH1 0xE5 SHL DUP2 MSTORE PUSH1 0x4 ADD PUSH2 0x15C SWAP1 PUSH2 0x1725 JUMP JUMPDEST PUSH1 0x0 PUSH2 0x581 DUP5 PUSH1 0x20 ADD MLOAD PUSH1 0xFE PUSH1 0x1 PUSH2 0xAB5 JUMP JUMPDEST SWAP1 POP PUSH1 0x0 PUSH2 0x596 DUP6 PUSH1 0x20 ADD MLOAD PUSH1 0x40 PUSH1 0xA0 PUSH2 0xAB5 JUMP JUMPDEST PUSH1 0x0 DUP1 DUP9 SSTORE PUSH1 0x1 DUP9 ADD SSTORE SWAP1 POP DUP2 PUSH2 0x5DA JUMPI PUSH1 0x40 MLOAD CALLER SWAP1 DUP5 ISZERO PUSH2 0x8FC MUL SWAP1 DUP6 SWAP1 PUSH1 0x0 DUP2 DUP2 DUP2 DUP6 DUP9 DUP9 CALL SWAP4 POP POP POP POP ISZERO DUP1 ISZERO PUSH2 0x5D4 JUMPI RETURNDATASIZE PUSH1 0x0 DUP1 RETURNDATACOPY RETURNDATASIZE PUSH1 0x0 REVERT JUMPDEST POP PUSH2 0x5EF JUMP JUMPDEST DUP2 PUSH1 0x1 EQ ISZERO PUSH2 0x5EF JUMPI PUSH2 0x5EF DUP2 ADDRESS CALLER DUP7 PUSH2 0xAF0 JUMP JUMPDEST PUSH32 0x66C304C539E0BC7C8070207C09B9F6A5A9591B434DFED1867CC57FDE7FB60093 DUP8 DUP3 DUP6 PUSH1 0x40 MLOAD PUSH2 0x622 SWAP4 SWAP3 SWAP2 SWAP1 PUSH2 0x138E JUMP JUMPDEST PUSH1 0x40 MLOAD DUP1 SWAP2 SUB SWAP1 LOG1 POP POP POP POP POP POP POP JUMP JUMPDEST PUSH1 0x0 DUP4 DUP2 MSTORE PUSH1 0x1 PUSH1 0x20 DUP2 DUP2 MSTORE PUSH1 0x40 DUP1 DUP5 KECCAK256 DUP2 MLOAD DUP1 DUP4 ADD SWAP1 SWAP3 MSTORE DUP1 SLOAD DUP1 DUP4 MSTORE SWAP4 DUP2 ADD SLOAD DUP3 DUP5 ADD MSTORE SWAP3 SWAP1 SWAP2 TIMESTAMP SWAP2 PUSH2 0x66A SWAP2 PUSH1 0xE0 SWAP1 PUSH2 0xAB5 JUMP JUMPDEST GT PUSH2 0x687 JUMPI PUSH1 0x40 MLOAD PUSH3 0x461BCD PUSH1 0xE5 SHL DUP2 MSTORE PUSH1 0x4 ADD PUSH2 0x15C SWAP1 PUSH2 0x188D JUMP JUMPDEST PUSH1 0x0 PUSH2 0x69A DUP3 PUSH1 0x20 ADD MLOAD PUSH1 0xEF PUSH1 0xF PUSH2 0xAB5 JUMP JUMPDEST SWAP1 POP PUSH1 0x0 PUSH2 0x6AF DUP4 PUSH1 0x20 ADD MLOAD PUSH1 0xE0 PUSH1 0xF PUSH2 0xAB5 JUMP JUMPDEST SWAP1 POP DUP2 DUP2 LT PUSH2 0x6D0 JUMPI PUSH1 0x40 MLOAD PUSH3 0x461BCD PUSH1 0xE5 SHL DUP2 MSTORE PUSH1 0x4 ADD PUSH2 0x15C SWAP1 PUSH2 0x161F JUMP JUMPDEST PUSH1 0x3 DUP5 ADD SLOAD PUSH1 0x1 PUSH1 0x1 PUSH1 0xA0 SHL SUB AND PUSH2 0x6E8 DUP9 DUP3 PUSH2 0xB04 JUMP JUMPDEST PUSH2 0x704 JUMPI PUSH1 0x40 MLOAD PUSH3 0x461BCD PUSH1 0xE5 SHL DUP2 MSTORE PUSH1 0x4 ADD PUSH2 0x15C SWAP1 PUSH2 0x156A JUMP JUMPDEST PUSH1 0x0 DUP1 PUSH2 0x718 DUP7 PUSH1 0x20 ADD MLOAD PUSH1 0xFE PUSH1 0x1 PUSH2 0xAB5 JUMP JUMPDEST SWAP1 POP PUSH1 0x0 PUSH2 0x72D DUP8 PUSH1 0x20 ADD MLOAD PUSH1 0xFF PUSH1 0x1 PUSH2 0xAB5 JUMP JUMPDEST SWAP1 POP PUSH1 0x0 PUSH2 0x742 DUP9 PUSH1 0x0 ADD MLOAD PUSH1 0x80 PUSH1 0x60 PUSH2 0xAB5 JUMP JUMPDEST SWAP1 POP DUP2 PUSH1 0x1 EQ ISZERO PUSH2 0x7BC JUMPI PUSH2 0x757 DUP7 DUP9 PUSH2 0x1979 JUMP JUMPDEST PUSH1 0x1 EQ ISZERO PUSH2 0x767 JUMPI DUP1 SWAP4 POP PUSH2 0x7AD JUMP JUMPDEST PUSH2 0x784 PUSH2 0x775 DUP3 PUSH1 0x2 PUSH2 0xB92 JUMP JUMPDEST PUSH2 0x77F DUP9 DUP11 PUSH2 0x1979 JUMP JUMPDEST PUSH2 0xB9E JUMP JUMPDEST PUSH1 0x2 SLOAD PUSH1 0x0 SLOAD PUSH2 0x7A0 SWAP2 SWAP1 PUSH3 0x10000 SWAP1 DIV PUSH4 0xFFFFFFFF AND PUSH2 0xBAA JUMP JUMPDEST PUSH2 0x7AA SWAP2 SWAP1 PUSH2 0x19E0 JUMP JUMPDEST SWAP4 POP JUMPDEST DUP4 PUSH2 0x7B7 JUMPI PUSH1 0x1 SWAP4 POP JUMPDEST PUSH2 0x7E7 JUMP JUMPDEST PUSH2 0x7C6 DUP7 DUP9 PUSH2 0x1979 JUMP JUMPDEST PUSH1 0x1 EQ ISZERO PUSH2 0x7D6 JUMPI DUP1 SWAP4 POP PUSH2 0x7E7 JUMP JUMPDEST PUSH2 0x7E4 DUP2 PUSH2 0x77F DUP9 DUP11 PUSH2 0x1979 JUMP JUMPDEST SWAP4 POP JUMPDEST DUP8 MLOAD PUSH2 0x800 SWAP1 PUSH1 0x80 PUSH1 0x60 PUSH2 0x7FB DUP9 DUP7 PUSH2 0x1979 JUMP JUMPDEST PUSH2 0xBE6 JUMP JUMPDEST DUP10 SSTORE CALLER PUSH1 0x0 SWAP1 DUP2 MSTORE PUSH1 0x2 DUP11 ADD PUSH1 0x20 MSTORE PUSH1 0x40 SWAP1 KECCAK256 SLOAD ISZERO PUSH2 0x831 JUMPI PUSH1 0x40 MLOAD PUSH3 0x461BCD PUSH1 0xE5 SHL DUP2 MSTORE PUSH1 0x4 ADD PUSH2 0x15C SWAP1 PUSH2 0x16FC JUMP JUMPDEST CALLER PUSH1 0x0 SWAP1 DUP2 MSTORE PUSH1 0x2 DUP11 ADD PUSH1 0x20 SWAP1 DUP2 MSTORE PUSH1 0x40 SWAP1 SWAP2 KECCAK256 DUP6 SWAP1 SSTORE DUP9 ADD MLOAD PUSH2 0x85E SWAP1 PUSH1 0xE0 PUSH1 0xF PUSH2 0x7FB DUP11 PUSH1 0x1 PUSH2 0x192E JUMP JUMPDEST PUSH1 0x1 DUP11 ADD SSTORE DUP3 PUSH2 0x8A4 JUMPI PUSH1 0x40 MLOAD PUSH1 0x1 PUSH1 0x1 PUSH1 0xA0 SHL SUB DUP13 AND SWAP1 DUP6 ISZERO PUSH2 0x8FC MUL SWAP1 DUP7 SWAP1 PUSH1 0x0 DUP2 DUP2 DUP2 DUP6 DUP9 DUP9 CALL SWAP4 POP POP POP POP ISZERO DUP1 ISZERO PUSH2 0x89E JUMPI RETURNDATASIZE PUSH1 0x0 DUP1 RETURNDATACOPY RETURNDATASIZE PUSH1 0x0 REVERT JUMPDEST POP PUSH2 0x8C9 JUMP JUMPDEST DUP3 PUSH1 0x1 EQ ISZERO PUSH2 0x8C9 JUMPI PUSH2 0x8C9 PUSH2 0x8C1 DUP10 PUSH1 0x20 ADD MLOAD PUSH1 0x40 PUSH1 0xA0 PUSH2 0xAB5 JUMP JUMPDEST ADDRESS DUP14 DUP8 PUSH2 0xAF0 JUMP JUMPDEST PUSH32 0x358DDD686A5CA3EF6F8AEE9B8D2DC3C642ECC278657C3802F8802B1A44C10E44 DUP14 DUP13 DUP7 PUSH2 0x8FE DUP13 PUSH1 0x20 ADD MLOAD PUSH1 0x40 PUSH1 0xA0 PUSH2 0xAB5 JUMP JUMPDEST PUSH1 0x40 MLOAD PUSH2 0x90E SWAP5 SWAP4 SWAP3 SWAP2 SWAP1 PUSH2 0x1367 JUMP JUMPDEST PUSH1 0x40 MLOAD DUP1 SWAP2 SUB SWAP1 LOG1 POP SWAP2 SWAP8 POP POP POP POP POP POP POP POP JUMPDEST SWAP4 SWAP3 POP POP POP JUMP JUMPDEST PUSH1 0x0 SLOAD PUSH2 0x100 SWAP1 DIV PUSH1 0xFF AND DUP1 PUSH2 0x942 JUMPI POP PUSH1 0x0 SLOAD PUSH1 0xFF AND ISZERO JUMPDEST PUSH2 0x95E JUMPI PUSH1 0x40 MLOAD PUSH3 0x461BCD PUSH1 0xE5 SHL DUP2 MSTORE PUSH1 0x4 ADD PUSH2 0x15C SWAP1 PUSH2 0x166C JUMP JUMPDEST PUSH1 0x0 SLOAD PUSH2 0x100 SWAP1 DIV PUSH1 0xFF AND ISZERO DUP1 ISZERO PUSH2 0x989 JUMPI PUSH1 0x0 DUP1 SLOAD PUSH1 0xFF NOT PUSH2 0xFF00 NOT SWAP1 SWAP2 AND PUSH2 0x100 OR AND PUSH1 0x1 OR SWAP1 SSTORE JUMPDEST TIMESTAMP CALLER PUSH1 0x40 MLOAD PUSH1 0x20 ADD PUSH2 0x99C SWAP3 SWAP2 SWAP1 PUSH2 0x1261 JUMP JUMPDEST PUSH1 0x40 DUP1 MLOAD PUSH1 0x1F NOT DUP2 DUP5 SUB ADD DUP2 MSTORE SWAP2 SWAP1 MSTORE DUP1 MLOAD PUSH1 0x20 SWAP1 SWAP2 ADD KECCAK256 PUSH1 0x2 SSTORE DUP1 ISZERO PUSH2 0x9C9 JUMPI PUSH1 0x0 DUP1 SLOAD PUSH2 0xFF00 NOT AND SWAP1 SSTORE JUMPDEST POP JUMP JUMPDEST PUSH2 0xA24 DUP5 PUSH4 0x23B872DD PUSH1 0xE0 SHL DUP6 DUP6 DUP6 PUSH1 0x40 MLOAD PUSH1 0x24 ADD PUSH2 0x9ED SWAP4 SWAP3 SWAP2 SWAP1 PUSH2 0x12F5 JUMP JUMPDEST PUSH1 0x40 DUP1 MLOAD PUSH1 0x1F NOT DUP2 DUP5 SUB ADD DUP2 MSTORE SWAP2 SWAP1 MSTORE PUSH1 0x20 DUP2 ADD DUP1 MLOAD PUSH1 0x1 PUSH1 0x1 PUSH1 0xE0 SHL SUB AND PUSH1 0x1 PUSH1 0x1 PUSH1 0xE0 SHL SUB NOT SWAP1 SWAP4 AND SWAP3 SWAP1 SWAP3 OR SWAP1 SWAP2 MSTORE PUSH2 0xBFD JUMP JUMPDEST POP POP POP POP JUMP JUMPDEST PUSH1 0x0 DUP1 PUSH2 0xA3A PUSH1 0x80 PUSH1 0x60 DUP7 PUSH2 0xC91 JUMP JUMPDEST OR PUSH2 0xA51 PUSH1 0xE0 PUSH1 0x20 PUSH2 0xA4C DUP7 TIMESTAMP PUSH2 0x192E JUMP JUMPDEST PUSH2 0xC91 JUMP JUMPDEST OR SWAP4 SWAP3 POP POP POP JUMP JUMPDEST PUSH1 0x0 DUP1 PUSH2 0xA72 PUSH1 0x40 PUSH1 0xA0 PUSH1 0x1 PUSH1 0x1 PUSH1 0xA0 SHL SUB DUP10 AND PUSH2 0xC91 JUMP JUMPDEST OR PUSH2 0xA81 PUSH1 0xE0 PUSH1 0xF PUSH1 0x0 PUSH2 0xC91 JUMP JUMPDEST OR PUSH2 0xA8F PUSH1 0xEF PUSH1 0xF DUP8 PUSH2 0xC91 JUMP JUMPDEST OR PUSH2 0xA9D PUSH1 0xFE PUSH1 0x1 DUP7 PUSH2 0xC91 JUMP JUMPDEST OR PUSH2 0xAAB PUSH1 0xFF PUSH1 0x1 DUP6 PUSH2 0xC91 JUMP JUMPDEST OR SWAP6 SWAP5 POP POP POP POP POP JUMP JUMPDEST PUSH1 0x0 PUSH2 0xAC3 PUSH2 0x100 DUP6 PUSH2 0xCC2 JUMP JUMPDEST PUSH2 0xADF JUMPI PUSH1 0x40 MLOAD PUSH3 0x461BCD PUSH1 0xE5 SHL DUP2 MSTORE PUSH1 0x4 ADD PUSH2 0x15C SWAP1 PUSH2 0x1415 JUMP JUMPDEST POP PUSH1 0x0 NOT PUSH1 0x1 SWAP1 SWAP2 SHL ADD SWAP2 SWAP1 SHR AND SWAP1 JUMP JUMPDEST PUSH2 0xA24 PUSH1 0x1 PUSH1 0x1 PUSH1 0xA0 SHL SUB DUP6 AND DUP4 DUP4 PUSH2 0xCD1 JUMP JUMPDEST PUSH1 0x0 DUP1 PUSH1 0x40 MLOAD DUP1 PUSH1 0x40 ADD PUSH1 0x40 MSTORE DUP1 PUSH1 0x1C DUP2 MSTORE PUSH1 0x20 ADD PUSH32 0x19457468657265756D205369676E6564204D6573736167653A0A323000000000 DUP2 MSTORE POP SWAP1 POP PUSH1 0x0 DUP2 CALLER PUSH1 0x40 MLOAD PUSH1 0x20 ADD PUSH2 0xB54 SWAP3 SWAP2 SWAP1 PUSH2 0x122F JUMP JUMPDEST PUSH1 0x40 MLOAD PUSH1 0x20 DUP2 DUP4 SUB SUB DUP2 MSTORE SWAP1 PUSH1 0x40 MSTORE DUP1 MLOAD SWAP1 PUSH1 0x20 ADD KECCAK256 SWAP1 POP PUSH1 0x0 PUSH2 0xB78 DUP3 DUP8 PUSH2 0xCF0 JUMP JUMPDEST PUSH1 0x1 PUSH1 0x1 PUSH1 0xA0 SHL SUB SWAP1 DUP2 AND SWAP1 DUP7 AND EQ SWAP4 POP POP POP POP SWAP3 SWAP2 POP POP JUMP JUMPDEST PUSH1 0x0 PUSH2 0x922 DUP3 DUP5 PUSH2 0x195A JUMP JUMPDEST PUSH1 0x0 PUSH2 0x922 DUP3 DUP5 PUSH2 0x1946 JUMP JUMPDEST PUSH1 0x0 DUP2 CALLER DUP5 TIMESTAMP PUSH1 0x40 MLOAD PUSH1 0x20 ADD PUSH2 0xBC3 SWAP5 SWAP4 SWAP3 SWAP2 SWAP1 PUSH2 0x12A4 JUMP JUMPDEST PUSH1 0x40 DUP1 MLOAD PUSH1 0x1F NOT DUP2 DUP5 SUB ADD DUP2 MSTORE SWAP2 SWAP1 MSTORE DUP1 MLOAD PUSH1 0x20 SWAP1 SWAP2 ADD KECCAK256 PUSH2 0x922 SWAP1 PUSH1 0x1 PUSH2 0x192E JUMP JUMPDEST DUP3 SHL PUSH1 0x1 SWAP1 SWAP2 SHL PUSH1 0x0 NOT ADD SWAP1 SWAP2 SHL NOT SWAP2 SWAP1 SWAP2 AND OR SWAP1 JUMP JUMPDEST PUSH1 0x0 PUSH2 0xC52 DUP3 PUSH1 0x40 MLOAD DUP1 PUSH1 0x40 ADD PUSH1 0x40 MSTORE DUP1 PUSH1 0x20 DUP2 MSTORE PUSH1 0x20 ADD PUSH32 0x5361666545524332303A206C6F772D6C6576656C2063616C6C206661696C6564 DUP2 MSTORE POP DUP6 PUSH1 0x1 PUSH1 0x1 PUSH1 0xA0 SHL SUB AND PUSH2 0xD76 SWAP1 SWAP3 SWAP2 SWAP1 PUSH4 0xFFFFFFFF AND JUMP JUMPDEST DUP1 MLOAD SWAP1 SWAP2 POP ISZERO PUSH2 0xC8C JUMPI DUP1 DUP1 PUSH1 0x20 ADD SWAP1 MLOAD DUP2 ADD SWAP1 PUSH2 0xC70 SWAP2 SWAP1 PUSH2 0x10F0 JUMP JUMPDEST PUSH2 0xC8C JUMPI PUSH1 0x40 MLOAD PUSH3 0x461BCD PUSH1 0xE5 SHL DUP2 MSTORE PUSH1 0x4 ADD PUSH2 0x15C SWAP1 PUSH2 0x181D JUMP JUMPDEST POP POP POP JUMP JUMPDEST PUSH1 0x0 PUSH2 0xC9D DUP4 DUP4 PUSH2 0xCC2 JUMP JUMPDEST PUSH2 0xCB9 JUMPI PUSH1 0x40 MLOAD PUSH3 0x461BCD PUSH1 0xE5 SHL DUP2 MSTORE PUSH1 0x4 ADD PUSH2 0x15C SWAP1 PUSH2 0x1786 JUMP JUMPDEST POP SWAP1 SWAP2 SHL SWAP2 SWAP1 POP JUMP JUMPDEST PUSH2 0x100 DUP3 EQ PUSH1 0x1 SWAP1 SWAP3 SHL GT OR SWAP1 JUMP JUMPDEST PUSH2 0xC8C DUP4 PUSH4 0xA9059CBB PUSH1 0xE0 SHL DUP5 DUP5 PUSH1 0x40 MLOAD PUSH1 0x24 ADD PUSH2 0x9ED SWAP3 SWAP2 SWAP1 PUSH2 0x1319 JUMP JUMPDEST PUSH1 0x0 DUP1 PUSH1 0x0 DUP1 DUP5 MLOAD PUSH1 0x41 EQ ISZERO PUSH2 0xD1A JUMPI POP POP POP PUSH1 0x20 DUP3 ADD MLOAD PUSH1 0x40 DUP4 ADD MLOAD PUSH1 0x60 DUP5 ADD MLOAD PUSH1 0x0 BYTE PUSH2 0xD60 JUMP JUMPDEST DUP5 MLOAD PUSH1 0x40 EQ ISZERO PUSH2 0xD48 JUMPI POP POP POP PUSH1 0x40 DUP3 ADD MLOAD PUSH1 0x20 DUP4 ADD MLOAD SWAP1 PUSH1 0x1 PUSH1 0x1 PUSH1 0xFF SHL SUB DUP2 AND SWAP1 PUSH1 0xFF SHR PUSH1 0x1B ADD PUSH2 0xD60 JUMP JUMPDEST PUSH1 0x40 MLOAD PUSH3 0x461BCD PUSH1 0xE5 SHL DUP2 MSTORE PUSH1 0x4 ADD PUSH2 0x15C SWAP1 PUSH2 0x1483 JUMP JUMPDEST PUSH2 0xD6C DUP7 DUP3 DUP6 DUP6 PUSH2 0xD8D JUMP JUMPDEST SWAP7 SWAP6 POP POP POP POP POP POP JUMP JUMPDEST PUSH1 0x60 PUSH2 0xD85 DUP5 DUP5 PUSH1 0x0 DUP6 PUSH2 0xE83 JUMP JUMPDEST SWAP5 SWAP4 POP POP POP POP JUMP JUMPDEST PUSH1 0x0 PUSH32 0x7FFFFFFFFFFFFFFFFFFFFFFFFFFFFFFF5D576E7357A4501DDFE92F46681B20A0 DUP3 GT ISZERO PUSH2 0xDCF JUMPI PUSH1 0x40 MLOAD PUSH3 0x461BCD PUSH1 0xE5 SHL DUP2 MSTORE PUSH1 0x4 ADD PUSH2 0x15C SWAP1 PUSH2 0x1597 JUMP JUMPDEST DUP4 PUSH1 0xFF AND PUSH1 0x1B EQ DUP1 PUSH2 0xDE4 JUMPI POP DUP4 PUSH1 0xFF AND PUSH1 0x1C EQ JUMPDEST PUSH2 0xE00 JUMPI PUSH1 0x40 MLOAD PUSH3 0x461BCD PUSH1 0xE5 SHL DUP2 MSTORE PUSH1 0x4 ADD PUSH2 0x15C SWAP1 PUSH2 0x16BA JUMP JUMPDEST PUSH1 0x0 PUSH1 0x1 DUP7 DUP7 DUP7 DUP7 PUSH1 0x40 MLOAD PUSH1 0x0 DUP2 MSTORE PUSH1 0x20 ADD PUSH1 0x40 MSTORE PUSH1 0x40 MLOAD PUSH2 0xE25 SWAP5 SWAP4 SWAP3 SWAP2 SWAP1 PUSH2 0x13AD JUMP JUMPDEST PUSH1 0x20 PUSH1 0x40 MLOAD PUSH1 0x20 DUP2 SUB SWAP1 DUP1 DUP5 SUB SWAP1 DUP6 GAS STATICCALL ISZERO DUP1 ISZERO PUSH2 0xE47 JUMPI RETURNDATASIZE PUSH1 0x0 DUP1 RETURNDATACOPY RETURNDATASIZE PUSH1 0x0 REVERT JUMPDEST POP POP PUSH1 0x40 MLOAD PUSH1 0x1F NOT ADD MLOAD SWAP2 POP POP PUSH1 0x1 PUSH1 0x1 PUSH1 0xA0 SHL SUB DUP2 AND PUSH2 0xE7A JUMPI PUSH1 0x40 MLOAD PUSH3 0x461BCD PUSH1 0xE5 SHL DUP2 MSTORE PUSH1 0x4 ADD PUSH2 0x15C SWAP1 PUSH2 0x13DE JUMP JUMPDEST SWAP6 SWAP5 POP POP POP POP POP JUMP JUMPDEST PUSH1 0x60 DUP3 SELFBALANCE LT ISZERO PUSH2 0xEA5 JUMPI PUSH1 0x40 MLOAD PUSH3 0x461BCD PUSH1 0xE5 SHL DUP2 MSTORE PUSH1 0x4 ADD PUSH2 0x15C SWAP1 PUSH2 0x15D9 JUMP JUMPDEST PUSH2 0xEAE DUP6 PUSH2 0xF43 JUMP JUMPDEST PUSH2 0xECA JUMPI PUSH1 0x40 MLOAD PUSH3 0x461BCD PUSH1 0xE5 SHL DUP2 MSTORE PUSH1 0x4 ADD PUSH2 0x15C SWAP1 PUSH2 0x17E6 JUMP JUMPDEST PUSH1 0x0 DUP1 DUP7 PUSH1 0x1 PUSH1 0x1 PUSH1 0xA0 SHL SUB AND DUP6 DUP8 PUSH1 0x40 MLOAD PUSH2 0xEE6 SWAP2 SWAP1 PUSH2 0x1213 JUMP JUMPDEST PUSH1 0x0 PUSH1 0x40 MLOAD DUP1 DUP4 SUB DUP2 DUP6 DUP8 GAS CALL SWAP3 POP POP POP RETURNDATASIZE DUP1 PUSH1 0x0 DUP2 EQ PUSH2 0xF23 JUMPI PUSH1 0x40 MLOAD SWAP2 POP PUSH1 0x1F NOT PUSH1 0x3F RETURNDATASIZE ADD AND DUP3 ADD PUSH1 0x40 MSTORE RETURNDATASIZE DUP3 MSTORE RETURNDATASIZE PUSH1 0x0 PUSH1 0x20 DUP5 ADD RETURNDATACOPY PUSH2 0xF28 JUMP JUMPDEST PUSH1 0x60 SWAP2 POP JUMPDEST POP SWAP2 POP SWAP2 POP PUSH2 0xF38 DUP3 DUP3 DUP7 PUSH2 0xF4D JUMP JUMPDEST SWAP8 SWAP7 POP POP POP POP POP POP POP JUMP JUMPDEST DUP1 EXTCODESIZE ISZERO ISZERO JUMPDEST SWAP2 SWAP1 POP JUMP JUMPDEST PUSH1 0x60 DUP4 ISZERO PUSH2 0xF5C JUMPI POP DUP2 PUSH2 0x922 JUMP JUMPDEST DUP3 MLOAD ISZERO PUSH2 0xF6C JUMPI DUP3 MLOAD DUP1 DUP5 PUSH1 0x20 ADD REVERT JUMPDEST DUP2 PUSH1 0x40 MLOAD PUSH3 0x461BCD PUSH1 0xE5 SHL DUP2 MSTORE PUSH1 0x4 ADD PUSH2 0x15C SWAP2 SWAP1 PUSH2 0x13CB JUMP JUMPDEST PUSH1 0x0 PUSH8 0xFFFFFFFFFFFFFFFF DUP1 DUP5 GT ISZERO PUSH2 0xFA1 JUMPI PUSH2 0xFA1 PUSH2 0x1A20 JUMP JUMPDEST PUSH1 0x40 MLOAD PUSH1 0x1F DUP6 ADD PUSH1 0x1F NOT AND DUP2 ADD PUSH1 0x20 ADD DUP3 DUP2 GT DUP3 DUP3 LT OR ISZERO PUSH2 0xFC5 JUMPI PUSH2 0xFC5 PUSH2 0x1A20 JUMP JUMPDEST PUSH1 0x40 MSTORE DUP5 DUP2 MSTORE SWAP2 POP DUP2 DUP4 DUP6 ADD DUP7 LT ISZERO PUSH2 0xFDD JUMPI PUSH1 0x0 DUP1 REVERT JUMPDEST DUP5 DUP5 PUSH1 0x20 DUP4 ADD CALLDATACOPY PUSH1 0x0 PUSH1 0x20 DUP7 DUP4 ADD ADD MSTORE POP POP SWAP4 SWAP3 POP POP POP JUMP JUMPDEST DUP1 CALLDATALOAD PUSH2 0xF48 DUP2 PUSH2 0x1A36 JUMP JUMPDEST DUP1 CALLDATALOAD PUSH2 0xF48 DUP2 PUSH2 0x1A4B JUMP JUMPDEST PUSH1 0x0 DUP3 PUSH1 0x1F DUP4 ADD SLT PUSH2 0x101C JUMPI DUP1 DUP2 REVERT JUMPDEST PUSH2 0x922 DUP4 DUP4 CALLDATALOAD PUSH1 0x20 DUP6 ADD PUSH2 0xF86 JUMP JUMPDEST PUSH1 0x0 DUP1 PUSH1 0x0 DUP1 PUSH1 0x0 DUP1 PUSH1 0x0 DUP1 PUSH1 0x0 DUP1 PUSH2 0x140 DUP12 DUP14 SUB SLT ISZERO PUSH2 0x104A JUMPI DUP6 DUP7 REVERT JUMPDEST PUSH2 0x1053 DUP12 PUSH2 0xFF6 JUMP JUMPDEST SWAP10 POP PUSH1 0x20 DUP12 ADD CALLDATALOAD SWAP9 POP PUSH2 0x1068 PUSH1 0x40 DUP13 ADD PUSH2 0x1001 JUMP JUMPDEST SWAP8 POP PUSH1 0x60 DUP12 ADD CALLDATALOAD SWAP7 POP PUSH1 0x80 DUP12 ADD CALLDATALOAD SWAP6 POP PUSH1 0xA0 DUP12 ADD CALLDATALOAD PUSH8 0xFFFFFFFFFFFFFFFF DUP1 DUP3 GT ISZERO PUSH2 0x1092 JUMPI DUP7 DUP8 REVERT JUMPDEST PUSH2 0x109E DUP15 DUP4 DUP16 ADD PUSH2 0x100C JUMP JUMPDEST SWAP7 POP PUSH1 0xC0 DUP14 ADD CALLDATALOAD SWAP2 POP DUP1 DUP3 GT ISZERO PUSH2 0x10B3 JUMPI DUP6 DUP7 REVERT JUMPDEST POP PUSH2 0x10C0 DUP14 DUP3 DUP15 ADD PUSH2 0x100C JUMP JUMPDEST SWAP5 POP POP PUSH1 0xE0 DUP12 ADD CALLDATALOAD SWAP3 POP PUSH2 0x10D7 PUSH2 0x100 DUP13 ADD PUSH2 0xFF6 JUMP JUMPDEST SWAP2 POP PUSH2 0x120 DUP12 ADD CALLDATALOAD SWAP1 POP SWAP3 SWAP6 SWAP9 SWAP12 SWAP2 SWAP5 SWAP8 SWAP11 POP SWAP3 SWAP6 SWAP9 POP JUMP JUMPDEST PUSH1 0x0 PUSH1 0x20 DUP3 DUP5 SUB SLT ISZERO PUSH2 0x1101 JUMPI DUP1 DUP2 REVERT JUMPDEST DUP2 MLOAD PUSH2 0x922 DUP2 PUSH2 0x1A4B JUMP JUMPDEST PUSH1 0x0 PUSH1 0x20 DUP3 DUP5 SUB SLT ISZERO PUSH2 0x111D JUMPI DUP1 DUP2 REVERT JUMPDEST POP CALLDATALOAD SWAP2 SWAP1 POP JUMP JUMPDEST PUSH1 0x0 DUP1 PUSH1 0x0 PUSH1 0x60 DUP5 DUP7 SUB SLT ISZERO PUSH2 0x1138 JUMPI DUP3 DUP4 REVERT JUMPDEST DUP4 CALLDATALOAD SWAP3 POP PUSH1 0x20 DUP5 ADD CALLDATALOAD PUSH8 0xFFFFFFFFFFFFFFFF DUP2 GT ISZERO PUSH2 0x1155 JUMPI DUP3 DUP4 REVERT JUMPDEST DUP5 ADD PUSH1 0x1F DUP2 ADD DUP7 SGT PUSH2 0x1165 JUMPI DUP3 DUP4 REVERT JUMPDEST PUSH2 0x1174 DUP7 DUP3 CALLDATALOAD PUSH1 0x20 DUP5 ADD PUSH2 0xF86 JUMP JUMPDEST SWAP3 POP POP PUSH1 0x40 DUP5 ADD CALLDATALOAD PUSH2 0x1185 DUP2 PUSH2 0x1A36 JUMP JUMPDEST DUP1 SWAP2 POP POP SWAP3 POP SWAP3 POP SWAP3 JUMP JUMPDEST PUSH1 0x0 PUSH1 0x20 DUP3 DUP5 SUB SLT ISZERO PUSH2 0x11A1 JUMPI DUP1 DUP2 REVERT JUMPDEST POP MLOAD SWAP2 SWAP1 POP JUMP JUMPDEST PUSH1 0x0 DUP2 MLOAD DUP1 DUP5 MSTORE PUSH2 0x11C0 DUP2 PUSH1 0x20 DUP7 ADD PUSH1 0x20 DUP7 ADD PUSH2 0x1990 JUMP JUMPDEST PUSH1 0x1F ADD PUSH1 0x1F NOT AND SWAP3 SWAP1 SWAP3 ADD PUSH1 0x20 ADD SWAP3 SWAP2 POP POP JUMP JUMPDEST PUSH1 0x60 SWAP6 SWAP1 SWAP6 SHL PUSH1 0x1 PUSH1 0x1 PUSH1 0x60 SHL SUB NOT AND DUP6 MSTORE PUSH1 0x14 DUP6 ADD SWAP4 SWAP1 SWAP4 MSTORE PUSH1 0xE0 SWAP2 SWAP1 SWAP2 SHL PUSH1 0x1 PUSH1 0x1 PUSH1 0xE0 SHL SUB NOT AND PUSH1 0x34 DUP5 ADD MSTORE PUSH1 0x38 DUP4 ADD MSTORE PUSH1 0x58 DUP3 ADD MSTORE PUSH1 0x78 ADD SWAP1 JUMP JUMPDEST PUSH1 0x0 DUP3 MLOAD PUSH2 0x1225 DUP2 DUP5 PUSH1 0x20 DUP8 ADD PUSH2 0x1990 JUMP JUMPDEST SWAP2 SWAP1 SWAP2 ADD SWAP3 SWAP2 POP POP JUMP JUMPDEST PUSH1 0x0 DUP4 MLOAD PUSH2 0x1241 DUP2 DUP5 PUSH1 0x20 DUP9 ADD PUSH2 0x1990 JUMP JUMPDEST PUSH1 0x60 SWAP4 SWAP1 SWAP4 SHL PUSH1 0x1 PUSH1 0x1 PUSH1 0x60 SHL SUB NOT AND SWAP2 SWAP1 SWAP3 ADD SWAP1 DUP2 MSTORE PUSH1 0x14 ADD SWAP3 SWAP2 POP POP JUMP JUMPDEST PUSH32 0x466F726D6572204E424120436F6D6D697373696F6E6572204461766964205374 DUP2 MSTORE PUSH1 0x20 DUP2 ADD SWAP3 SWAP1 SWAP3 MSTORE PUSH1 0x60 SHL PUSH1 0x1 PUSH1 0x1 PUSH1 0x60 SHL SUB NOT AND PUSH1 0x40 DUP3 ADD MSTORE PUSH1 0x54 ADD SWAP1 JUMP JUMPDEST PUSH1 0xE0 SWAP5 SWAP1 SWAP5 SHL PUSH1 0x1 PUSH1 0x1 PUSH1 0xE0 SHL SUB NOT AND DUP5 MSTORE PUSH1 0x60 SWAP3 SWAP1 SWAP3 SHL PUSH1 0x1 PUSH1 0x1 PUSH1 0x60 SHL SUB NOT AND PUSH1 0x4 DUP5 ADD MSTORE PUSH1 0x18 DUP4 ADD MSTORE PUSH1 0x38 DUP3 ADD MSTORE PUSH1 0x58 ADD SWAP1 JUMP JUMPDEST PUSH1 0x1 PUSH1 0x1 PUSH1 0xA0 SHL SUB SWAP3 DUP4 AND DUP2 MSTORE SWAP2 AND PUSH1 0x20 DUP3 ADD MSTORE PUSH1 0x40 ADD SWAP1 JUMP JUMPDEST PUSH1 0x1 PUSH1 0x1 PUSH1 0xA0 SHL SUB SWAP4 DUP5 AND DUP2 MSTORE SWAP2 SWAP1 SWAP3 AND PUSH1 0x20 DUP3 ADD MSTORE PUSH1 0x40 DUP2 ADD SWAP2 SWAP1 SWAP2 MSTORE PUSH1 0x60 ADD SWAP1 JUMP JUMPDEST PUSH1 0x1 PUSH1 0x1 PUSH1 0xA0 SHL SUB SWAP3 SWAP1 SWAP3 AND DUP3 MSTORE PUSH1 0x20 DUP3 ADD MSTORE PUSH1 0x40 ADD SWAP1 JUMP JUMPDEST PUSH1 0x1 PUSH1 0x1 PUSH1 0xA0 SHL SUB SWAP7 SWAP1 SWAP7 AND DUP7 MSTORE PUSH1 0x20 DUP7 ADD SWAP5 SWAP1 SWAP5 MSTORE PUSH1 0x40 DUP6 ADD SWAP3 SWAP1 SWAP3 MSTORE PUSH1 0x60 DUP5 ADD MSTORE ISZERO ISZERO PUSH1 0x80 DUP4 ADD MSTORE PUSH1 0xA0 DUP3 ADD MSTORE PUSH1 0xC0 ADD SWAP1 JUMP JUMPDEST SWAP4 DUP5 MSTORE PUSH1 0x1 PUSH1 0x1 PUSH1 0xA0 SHL SUB SWAP3 DUP4 AND PUSH1 0x20 DUP6 ADD MSTORE PUSH1 0x40 DUP5 ADD SWAP2 SWAP1 SWAP2 MSTORE AND PUSH1 0x60 DUP3 ADD MSTORE PUSH1 0x80 ADD SWAP1 JUMP JUMPDEST SWAP3 DUP4 MSTORE PUSH1 0x1 PUSH1 0x1 PUSH1 0xA0 SHL SUB SWAP2 SWAP1 SWAP2 AND PUSH1 0x20 DUP4 ADD MSTORE PUSH1 0x40 DUP3 ADD MSTORE PUSH1 0x60 ADD SWAP1 JUMP JUMPDEST SWAP4 DUP5 MSTORE PUSH1 0xFF SWAP3 SWAP1 SWAP3 AND PUSH1 0x20 DUP5 ADD MSTORE PUSH1 0x40 DUP4 ADD MSTORE PUSH1 0x60 DUP3 ADD MSTORE PUSH1 0x80 ADD SWAP1 JUMP JUMPDEST PUSH1 0x0 PUSH1 0x20 DUP3 MSTORE PUSH2 0x922 PUSH1 0x20 DUP4 ADD DUP5 PUSH2 0x11A8 JUMP JUMPDEST PUSH1 0x20 DUP1 DUP3 MSTORE PUSH1 0x18 SWAP1 DUP3 ADD MSTORE PUSH32 0x45434453413A20696E76616C6964207369676E61747572650000000000000000 PUSH1 0x40 DUP3 ADD MSTORE PUSH1 0x60 ADD SWAP1 JUMP JUMPDEST PUSH1 0x20 DUP1 DUP3 MSTORE PUSH1 0x18 SWAP1 DUP3 ADD MSTORE PUSH32 0x56616C7565206F7574206F662072616E676520554E424F580000000000000000 PUSH1 0x40 DUP3 ADD MSTORE PUSH1 0x60 ADD SWAP1 JUMP JUMPDEST PUSH1 0x20 DUP1 DUP3 MSTORE PUSH1 0x19 SWAP1 DUP3 ADD MSTORE PUSH32 0x556E7265636F676E697A61626C6520746F6B656E207479706500000000000000 PUSH1 0x40 DUP3 ADD MSTORE PUSH1 0x60 ADD SWAP1 JUMP JUMPDEST PUSH1 0x20 DUP1 DUP3 MSTORE PUSH1 0x1F SWAP1 DUP3 ADD MSTORE PUSH32 0x45434453413A20696E76616C6964207369676E6174757265206C656E67746800 PUSH1 0x40 DUP3 ADD MSTORE PUSH1 0x60 ADD SWAP1 JUMP JUMPDEST PUSH1 0x20 DUP1 DUP3 MSTORE PUSH1 0x13 SWAP1 DUP3 ADD MSTORE PUSH19 0x4E6F20656E6F75676820616C6C6F77616E6365 PUSH1 0x68 SHL PUSH1 0x40 DUP3 ADD MSTORE PUSH1 0x60 ADD SWAP1 JUMP JUMPDEST PUSH1 0x20 DUP1 DUP3 MSTORE PUSH1 0x14 SWAP1 DUP3 ADD MSTORE PUSH20 0x105D081B19585CDD080C481C9958DA5C1A595B9D PUSH1 0x62 SHL PUSH1 0x40 DUP3 ADD MSTORE PUSH1 0x60 ADD SWAP1 JUMP JUMPDEST PUSH1 0x20 DUP1 DUP3 MSTORE PUSH1 0x12 SWAP1 DUP3 ADD MSTORE PUSH18 0x23746F6B656E73203E20237061636B657473 PUSH1 0x70 SHL PUSH1 0x40 DUP3 ADD MSTORE PUSH1 0x60 ADD SWAP1 JUMP JUMPDEST PUSH1 0x20 DUP1 DUP3 MSTORE PUSH1 0xF SWAP1 DUP3 ADD MSTORE PUSH15 0x139BDD08195E1C1A5C9959081E595D PUSH1 0x8A SHL PUSH1 0x40 DUP3 ADD MSTORE PUSH1 0x60 ADD SWAP1 JUMP JUMPDEST PUSH1 0x20 DUP1 DUP3 MSTORE PUSH1 0x13 SWAP1 DUP3 ADD MSTORE PUSH19 0x15995C9A599A58D85D1A5BDB8819985A5B1959 PUSH1 0x6A SHL PUSH1 0x40 DUP3 ADD MSTORE PUSH1 0x60 ADD SWAP1 JUMP JUMPDEST PUSH1 0x20 DUP1 DUP3 MSTORE PUSH1 0x22 SWAP1 DUP3 ADD MSTORE PUSH32 0x45434453413A20696E76616C6964207369676E6174757265202773272076616C PUSH1 0x40 DUP3 ADD MSTORE PUSH2 0x7565 PUSH1 0xF0 SHL PUSH1 0x60 DUP3 ADD MSTORE PUSH1 0x80 ADD SWAP1 JUMP JUMPDEST PUSH1 0x20 DUP1 DUP3 MSTORE PUSH1 0x26 SWAP1 DUP3 ADD MSTORE PUSH32 0x416464726573733A20696E73756666696369656E742062616C616E636520666F PUSH1 0x40 DUP3 ADD MSTORE PUSH6 0x1C8818D85B1B PUSH1 0xD2 SHL PUSH1 0x60 DUP3 ADD MSTORE PUSH1 0x80 ADD SWAP1 JUMP JUMPDEST PUSH1 0x20 DUP1 DUP3 MSTORE PUSH1 0xC SWAP1 DUP3 ADD MSTORE PUSH12 0x4F7574206F662073746F636B PUSH1 0xA0 SHL PUSH1 0x40 DUP3 ADD MSTORE PUSH1 0x60 ADD SWAP1 JUMP JUMPDEST PUSH1 0x20 DUP1 DUP3 MSTORE PUSH1 0xD SWAP1 DUP3 ADD MSTORE PUSH13 0x9CDE40CADCDEEACED0408AA89 PUSH1 0x9B SHL PUSH1 0x40 DUP3 ADD MSTORE PUSH1 0x60 ADD SWAP1 JUMP JUMPDEST PUSH1 0x20 DUP1 DUP3 MSTORE PUSH1 0x2E SWAP1 DUP3 ADD MSTORE PUSH32 0x496E697469616C697A61626C653A20636F6E747261637420697320616C726561 PUSH1 0x40 DUP3 ADD MSTORE PUSH14 0x191E481A5B9A5D1A585B1A5E9959 PUSH1 0x92 SHL PUSH1 0x60 DUP3 ADD MSTORE PUSH1 0x80 ADD SWAP1 JUMP JUMPDEST PUSH1 0x20 DUP1 DUP3 MSTORE PUSH1 0x22 SWAP1 DUP3 ADD MSTORE PUSH32 0x45434453413A20696E76616C6964207369676E6174757265202776272076616C PUSH1 0x40 DUP3 ADD MSTORE PUSH2 0x7565 PUSH1 0xF0 SHL PUSH1 0x60 DUP3 ADD MSTORE PUSH1 0x80 ADD SWAP1 JUMP JUMPDEST PUSH1 0x20 DUP1 DUP3 MSTORE PUSH1 0xF SWAP1 DUP3 ADD MSTORE PUSH15 0x105B1C9958591E4818DB185A5B5959 PUSH1 0x8A SHL PUSH1 0x40 DUP3 ADD MSTORE PUSH1 0x60 ADD SWAP1 JUMP JUMPDEST PUSH1 0x20 DUP1 DUP3 MSTORE PUSH1 0x1B SWAP1 DUP3 ADD MSTORE PUSH32 0x4E6F6E65206C65667420696E2074686520726564207061636B65740000000000 PUSH1 0x40 DUP3 ADD MSTORE PUSH1 0x60 ADD SWAP1 JUMP JUMPDEST PUSH1 0x20 DUP1 DUP3 MSTORE PUSH1 0x10 SWAP1 DUP3 ADD MSTORE PUSH16 0x105B1C9958591E481499599D5B991959 PUSH1 0x82 SHL PUSH1 0x40 DUP3 ADD MSTORE PUSH1 0x60 ADD SWAP1 JUMP JUMPDEST PUSH1 0x20 DUP1 DUP3 MSTORE PUSH1 0x16 SWAP1 DUP3 ADD MSTORE PUSH22 0xACC2D8EACA40DEEAE840DECC40E4C2DCCECA40849EB PUSH1 0x53 SHL PUSH1 0x40 DUP3 ADD MSTORE PUSH1 0x60 ADD SWAP1 JUMP JUMPDEST PUSH1 0x20 DUP1 DUP3 MSTORE PUSH1 0x16 SWAP1 DUP3 ADD MSTORE PUSH22 0x4174206D6F73742032353520726563697069656E7473 PUSH1 0x50 SHL PUSH1 0x40 DUP3 ADD MSTORE PUSH1 0x60 ADD SWAP1 JUMP JUMPDEST PUSH1 0x20 DUP1 DUP3 MSTORE PUSH1 0x1D SWAP1 DUP3 ADD MSTORE PUSH32 0x416464726573733A2063616C6C20746F206E6F6E2D636F6E7472616374000000 PUSH1 0x40 DUP3 ADD MSTORE PUSH1 0x60 ADD SWAP1 JUMP JUMPDEST PUSH1 0x20 DUP1 DUP3 MSTORE PUSH1 0x2A SWAP1 DUP3 ADD MSTORE PUSH32 0x5361666545524332303A204552433230206F7065726174696F6E20646964206E PUSH1 0x40 DUP3 ADD MSTORE PUSH10 0x1BDD081CDD58D8D95959 PUSH1 0xB2 SHL PUSH1 0x60 DUP3 ADD MSTORE PUSH1 0x80 ADD SWAP1 JUMP JUMPDEST PUSH1 0x20 DUP1 DUP3 MSTORE PUSH1 0xC SWAP1 DUP3 ADD MSTORE PUSH12 0x43726561746F72204F6E6C79 PUSH1 0xA0 SHL PUSH1 0x40 DUP3 ADD MSTORE PUSH1 0x60 ADD SWAP1 JUMP JUMPDEST PUSH1 0x20 DUP1 DUP3 MSTORE PUSH1 0x7 SWAP1 DUP3 ADD MSTORE PUSH7 0x115E1C1A5C9959 PUSH1 0xCA SHL PUSH1 0x40 DUP3 ADD MSTORE PUSH1 0x60 ADD SWAP1 JUMP JUMPDEST SWAP1 DUP2 MSTORE PUSH1 0x20 ADD SWAP1 JUMP JUMPDEST PUSH1 0x0 PUSH2 0x140 DUP13 DUP4 MSTORE DUP12 PUSH1 0x20 DUP5 ADD MSTORE DUP1 PUSH1 0x40 DUP5 ADD MSTORE PUSH2 0x18D7 DUP2 DUP5 ADD DUP13 PUSH2 0x11A8 JUMP JUMPDEST SWAP1 POP DUP3 DUP2 SUB PUSH1 0x60 DUP5 ADD MSTORE PUSH2 0x18EB DUP2 DUP12 PUSH2 0x11A8 JUMP JUMPDEST PUSH1 0x1 PUSH1 0x1 PUSH1 0xA0 SHL SUB SWAP10 DUP11 AND PUSH1 0x80 DUP6 ADD MSTORE PUSH1 0xA0 DUP5 ADD SWAP9 SWAP1 SWAP9 MSTORE POP POP SWAP4 SWAP1 SWAP6 AND PUSH1 0xC0 DUP5 ADD MSTORE PUSH1 0xE0 DUP4 ADD SWAP2 SWAP1 SWAP2 MSTORE ISZERO ISZERO PUSH2 0x100 DUP3 ADD MSTORE PUSH2 0x120 ADD SWAP2 SWAP1 SWAP2 MSTORE SWAP5 SWAP4 POP POP POP POP JUMP JUMPDEST PUSH1 0x0 DUP3 NOT DUP3 GT ISZERO PUSH2 0x1941 JUMPI PUSH2 0x1941 PUSH2 0x19F4 JUMP JUMPDEST POP ADD SWAP1 JUMP JUMPDEST PUSH1 0x0 DUP3 PUSH2 0x1955 JUMPI PUSH2 0x1955 PUSH2 0x1A0A JUMP JUMPDEST POP DIV SWAP1 JUMP JUMPDEST PUSH1 0x0 DUP2 PUSH1 0x0 NOT DIV DUP4 GT DUP3 ISZERO ISZERO AND ISZERO PUSH2 0x1974 JUMPI PUSH2 0x1974 PUSH2 0x19F4 JUMP JUMPDEST POP MUL SWAP1 JUMP JUMPDEST PUSH1 0x0 DUP3 DUP3 LT ISZERO PUSH2 0x198B JUMPI PUSH2 0x198B PUSH2 0x19F4 JUMP JUMPDEST POP SUB SWAP1 JUMP JUMPDEST PUSH1 0x0 JUMPDEST DUP4 DUP2 LT ISZERO PUSH2 0x19AB JUMPI DUP2 DUP2 ADD MLOAD DUP4 DUP3 ADD MSTORE PUSH1 0x20 ADD PUSH2 0x1993 JUMP JUMPDEST DUP4 DUP2 GT ISZERO PUSH2 0xA24 JUMPI POP POP PUSH1 0x0 SWAP2 ADD MSTORE JUMP JUMPDEST PUSH1 0x0 PUSH4 0xFFFFFFFF DUP1 DUP4 AND DUP2 DUP2 EQ ISZERO PUSH2 0x19D6 JUMPI PUSH2 0x19D6 PUSH2 0x19F4 JUMP JUMPDEST PUSH1 0x1 ADD SWAP4 SWAP3 POP POP POP JUMP JUMPDEST PUSH1 0x0 DUP3 PUSH2 0x19EF JUMPI PUSH2 0x19EF PUSH2 0x1A0A JUMP JUMPDEST POP MOD SWAP1 JUMP JUMPDEST PUSH4 0x4E487B71 PUSH1 0xE0 SHL PUSH1 0x0 MSTORE PUSH1 0x11 PUSH1 0x4 MSTORE PUSH1 0x24 PUSH1 0x0 REVERT JUMPDEST PUSH4 0x4E487B71 PUSH1 0xE0 SHL PUSH1 0x0 MSTORE PUSH1 0x12 PUSH1 0x4 MSTORE PUSH1 0x24 PUSH1 0x0 REVERT JUMPDEST PUSH4 0x4E487B71 PUSH1 0xE0 SHL PUSH1 0x0 MSTORE PUSH1 0x41 PUSH1 0x4 MSTORE PUSH1 0x24 PUSH1 0x0 REVERT JUMPDEST PUSH1 0x1 PUSH1 0x1 PUSH1 0xA0 SHL SUB DUP2 AND DUP2 EQ PUSH2 0x9C9 JUMPI PUSH1 0x0 DUP1 REVERT JUMPDEST DUP1 ISZERO ISZERO DUP2 EQ PUSH2 0x9C9 JUMPI PUSH1 0x0 DUP1 REVERT INVALID LOG2 PUSH5 0x6970667358 0x22 SLT KECCAK256 0xD2 PUSH25 0x15343BC60E784FF6B3FF66F8D881B7F0664333892070523E9E 0xDE PUSH19 0xC178A464736F6C634300080000330000000000 "
        },
        "gasEstimates": {
          "creation": {
            "codeDepositCost": "1359800",
            "executionCost": "1417",
            "totalCost": "1361217"
          },
          "external": {
            "check_availability(bytes32)": "infinite",
            "claim(bytes32,bytes,address)": "infinite",
            "create_red_packet(address,uint256,bool,uint256,bytes32,string,string,uint256,address,uint256)": "infinite",
            "initialize()": "64656",
            "refund(bytes32)": "infinite"
          },
          "internal": {
            "_verify(bytes memory,uint160)": "infinite",
            "box(uint16,uint16,uint256)": "infinite",
            "random(bytes32,uint32)": "infinite",
            "rewriteBox(uint256,uint16,uint16,uint256)": "66",
            "transfer_token(address,address,address,uint256)": "infinite",
            "unbox(uint256,uint16,uint16)": "124",
            "validRange(uint16,uint256)": "39",
            "wrap1(uint256,uint256)": "infinite",
            "wrap2(address,uint256,uint256,uint256)": "infinite"
          }
        },
        "methodIdentifiers": {
          "check_availability(bytes32)": "6bfdaece",
          "claim(bytes32,bytes,address)": "7394ad93",
          "create_red_packet(address,uint256,bool,uint256,bytes32,string,string,uint256,address,uint256)": "5db05aba",
          "initialize()": "8129fc1c",
          "refund(bytes32)": "7249fbb6"
        }
      },
      "storageLayout": {
        "storage": [
          {
            "astId": 5,
            "contract": "contracts/redpacket.sol:HappyRedPacket",
            "label": "_initialized",
            "offset": 0,
            "slot": "0",
            "type": "t_bool"
          },
          {
            "astId": 8,
            "contract": "contracts/redpacket.sol:HappyRedPacket",
            "label": "_initializing",
            "offset": 1,
            "slot": "0",
            "type": "t_bool"
          },
          {
            "astId": 1317,
            "contract": "contracts/redpacket.sol:HappyRedPacket",
            "label": "nonce",
            "offset": 2,
            "slot": "0",
            "type": "t_uint32"
          },
          {
            "astId": 1322,
            "contract": "contracts/redpacket.sol:HappyRedPacket",
            "label": "redpacket_by_id",
            "offset": 0,
            "slot": "1",
            "type": "t_mapping(t_bytes32,t_struct(RedPacket)1266_storage)"
          },
          {
            "astId": 1324,
            "contract": "contracts/redpacket.sol:HappyRedPacket",
            "label": "seed",
            "offset": 0,
            "slot": "2",
            "type": "t_bytes32"
          }
        ],
        "types": {
          "t_address": {
            "encoding": "inplace",
            "label": "address",
            "numberOfBytes": "20"
          },
          "t_bool": {
            "encoding": "inplace",
            "label": "bool",
            "numberOfBytes": "1"
          },
          "t_bytes32": {
            "encoding": "inplace",
            "label": "bytes32",
            "numberOfBytes": "32"
          },
          "t_mapping(t_address,t_uint256)": {
            "encoding": "mapping",
            "key": "t_address",
            "label": "mapping(address => uint256)",
            "numberOfBytes": "32",
            "value": "t_uint256"
          },
          "t_mapping(t_bytes32,t_struct(RedPacket)1266_storage)": {
            "encoding": "mapping",
            "key": "t_bytes32",
            "label": "mapping(bytes32 => struct HappyRedPacket.RedPacket)",
            "numberOfBytes": "32",
            "value": "t_struct(RedPacket)1266_storage"
          },
          "t_struct(Packed)1271_storage": {
            "encoding": "inplace",
            "label": "struct HappyRedPacket.Packed",
            "members": [
              {
                "astId": 1268,
                "contract": "contracts/redpacket.sol:HappyRedPacket",
                "label": "packed1",
                "offset": 0,
                "slot": "0",
                "type": "t_uint256"
              },
              {
                "astId": 1270,
                "contract": "contracts/redpacket.sol:HappyRedPacket",
                "label": "packed2",
                "offset": 0,
                "slot": "1",
                "type": "t_uint256"
              }
            ],
            "numberOfBytes": "64"
          },
          "t_struct(RedPacket)1266_storage": {
            "encoding": "inplace",
            "label": "struct HappyRedPacket.RedPacket",
            "members": [
              {
                "astId": 1257,
                "contract": "contracts/redpacket.sol:HappyRedPacket",
                "label": "packed",
                "offset": 0,
                "slot": "0",
                "type": "t_struct(Packed)1271_storage"
              },
              {
                "astId": 1261,
                "contract": "contracts/redpacket.sol:HappyRedPacket",
                "label": "claimed_list",
                "offset": 0,
                "slot": "2",
                "type": "t_mapping(t_address,t_uint256)"
              },
              {
                "astId": 1263,
                "contract": "contracts/redpacket.sol:HappyRedPacket",
                "label": "public_key",
                "offset": 0,
                "slot": "3",
                "type": "t_uint160"
              },
              {
                "astId": 1265,
                "contract": "contracts/redpacket.sol:HappyRedPacket",
                "label": "creator",
                "offset": 0,
                "slot": "4",
                "type": "t_address"
              }
            ],
            "numberOfBytes": "160"
          },
          "t_uint160": {
            "encoding": "inplace",
            "label": "uint160",
            "numberOfBytes": "20"
          },
          "t_uint256": {
            "encoding": "inplace",
            "label": "uint256",
            "numberOfBytes": "32"
          },
          "t_uint32": {
            "encoding": "inplace",
            "label": "uint32",
            "numberOfBytes": "4"
          }
        }
      },
      "userdoc": {
        "kind": "user",
        "methods": {},
        "version": 1
      }
    }
  }
}