{
  "_format": "hh-sol-artifact-1",
  "contractName": "HappyRedPacket",
  "sourceName": "contracts/redpacket.sol",
  "abi": [
    {
      "anonymous": false,
      "inputs": [
        {
          "indexed": false,
          "internalType": "bytes32",
          "name": "id",
          "type": "bytes32"
        },
        {
          "indexed": false,
          "internalType": "address",
          "name": "claimer",
          "type": "address"
        },
        {
          "indexed": false,
          "internalType": "uint256",
          "name": "claimed_value",
          "type": "uint256"
        },
        {
          "indexed": false,
          "internalType": "address",
          "name": "token_address",
          "type": "address"
        }
      ],
      "name": "ClaimSuccess",
      "type": "event"
    },
    {
      "anonymous": false,
      "inputs": [
        {
          "indexed": false,
          "internalType": "uint256",
          "name": "total",
          "type": "uint256"
        },
        {
          "indexed": false,
          "internalType": "bytes32",
          "name": "id",
          "type": "bytes32"
        },
        {
          "indexed": false,
          "internalType": "string",
          "name": "name",
          "type": "string"
        },
        {
          "indexed": false,
          "internalType": "string",
          "name": "message",
          "type": "string"
        },
        {
          "indexed": false,
          "internalType": "address",
          "name": "creator",
          "type": "address"
        },
        {
          "indexed": false,
          "internalType": "uint256",
          "name": "creation_time",
          "type": "uint256"
        },
        {
          "indexed": false,
          "internalType": "address",
          "name": "token_address",
          "type": "address"
        },
        {
          "indexed": false,
          "internalType": "uint256",
          "name": "number",
          "type": "uint256"
        },
        {
          "indexed": false,
          "internalType": "bool",
          "name": "ifrandom",
          "type": "bool"
        },
        {
          "indexed": false,
          "internalType": "uint256",
          "name": "duration",
          "type": "uint256"
        }
      ],
      "name": "CreationSuccess",
      "type": "event"
    },
    {
      "anonymous": false,
      "inputs": [
        {
          "indexed": false,
          "internalType": "bytes32",
          "name": "id",
          "type": "bytes32"
        },
        {
          "indexed": false,
          "internalType": "address",
          "name": "token_address",
          "type": "address"
        },
        {
          "indexed": false,
          "internalType": "uint256",
          "name": "remaining_balance",
          "type": "uint256"
        }
      ],
      "name": "RefundSuccess",
      "type": "event"
    },
    {
      "inputs": [
        {
          "internalType": "bytes32",
          "name": "id",
          "type": "bytes32"
        }
      ],
      "name": "check_availability",
      "outputs": [
        {
          "internalType": "address",
          "name": "token_address",
          "type": "address"
        },
        {
          "internalType": "uint256",
          "name": "balance",
          "type": "uint256"
        },
        {
          "internalType": "uint256",
          "name": "total",
          "type": "uint256"
        },
        {
          "internalType": "uint256",
          "name": "claimed",
          "type": "uint256"
        },
        {
          "internalType": "bool",
          "name": "expired",
          "type": "bool"
        },
        {
          "internalType": "uint256",
          "name": "claimed_amount",
          "type": "uint256"
        }
      ],
      "stateMutability": "view",
      "type": "function"
    },
    {
      "inputs": [
        {
          "internalType": "bytes32",
          "name": "id",
          "type": "bytes32"
        },
        {
          "internalType": "bytes",
          "name": "signedMsg",
          "type": "bytes"
        },
        {
          "internalType": "address payable",
          "name": "recipient",
          "type": "address"
        }
      ],
      "name": "claim",
      "outputs": [
        {
          "internalType": "uint256",
          "name": "claimed",
          "type": "uint256"
        }
      ],
      "stateMutability": "nonpayable",
      "type": "function"
    },
    {
      "inputs": [
        {
          "internalType": "address",
          "name": "_public_key",
          "type": "address"
        },
        {
          "internalType": "uint256",
          "name": "_number",
          "type": "uint256"
        },
        {
          "internalType": "bool",
          "name": "_ifrandom",
          "type": "bool"
        },
        {
          "internalType": "uint256",
          "name": "_duration",
          "type": "uint256"
        },
        {
          "internalType": "bytes32",
          "name": "_seed",
          "type": "bytes32"
        },
        {
          "internalType": "string",
          "name": "_message",
          "type": "string"
        },
        {
          "internalType": "string",
          "name": "_name",
          "type": "string"
        },
        {
          "internalType": "uint256",
          "name": "_token_type",
          "type": "uint256"
        },
        {
          "internalType": "address",
          "name": "_token_addr",
          "type": "address"
        },
        {
          "internalType": "uint256",
          "name": "_total_tokens",
          "type": "uint256"
        }
      ],
      "name": "create_red_packet",
      "outputs": [],
      "stateMutability": "payable",
      "type": "function"
    },
    {
      "inputs": [],
      "name": "initialize",
      "outputs": [],
      "stateMutability": "nonpayable",
      "type": "function"
    },
    {
      "inputs": [
        {
          "internalType": "bytes32",
          "name": "id",
          "type": "bytes32"
        }
      ],
      "name": "refund",
      "outputs": [],
      "stateMutability": "nonpayable",
      "type": "function"
    }
  ],
  "bytecode": "0x608060405234801561001057600080fd5b50611a8f806100206000396000f3fe60806040526004361061004a5760003560e01c80635db05aba1461004f5780636bfdaece146100645780637249fbb61461009f5780637394ad93146100bf5780638129fc1c146100ec575b600080fd5b61006261005d36600461102b565b610101565b005b34801561007057600080fd5b5061008461007f36600461110c565b6103cb565b60405161009696959493929190611332565b60405180910390f35b3480156100ab57600080fd5b506100626100ba36600461110c565b610479565b3480156100cb57600080fd5b506100df6100da366004611124565b610633565b60405161009691906118ae565b3480156100f857600080fd5b50610062610929565b6000805462010000900463ffffffff1690600261011d836119bc565b91906101000a81548163ffffffff021916908363ffffffff16021790555050888110156101655760405162461bcd60e51b815260040161015c90611515565b60405180910390fd5b600089116101855760405162461bcd60e51b815260040161015c906114e7565b61010089106101a65760405162461bcd60e51b815260040161015c906117b6565b8215806101b35750826001145b6101cf5760405162461bcd60e51b815260040161015c9061144c565b826101f957803410156101f45760405162461bcd60e51b815260040161015c90611645565b6102b5565b82600114156102b557604051636eb1769f60e11b815281906001600160a01b0384169063dd62ed3e9061023290339030906004016112db565b60206040518083038186803b15801561024a57600080fd5b505afa15801561025e573d6000803e3d6000fd5b505050506040513d601f19601f820116820180604052508101906102829190611190565b10156102a05760405162461bcd60e51b815260040161015c906114ba565b6102b56001600160a01b0383163330846109cc565b600080546002546040516102df92339242926201000090920463ffffffff16918c906020016111d4565b604051602081830303815290604052805190602001209050600089610305576000610308565b60015b600083815260016020526040902060ff919091169150610328848b610a2a565b8155610336858d8885610a59565b60018201556003810180546001600160a01b038f166001600160a01b03199182161790915560049091018054909116339081179091556040518c92508b918b917f86af556fd7cfab9462285ad44f2d5913527c539ff549f74731ca9997ca534018916103b391889188918d918f9142908e908c908c908c906118b7565b60405180910390a15050505050505050505050505050565b6000818152600160208181526040808420815180830183528154815293810154928401839052849384938493849384939092909161040b919060a0610ab5565b815161041a9060806060610ab5565b61042b836020015160ef600f610ab5565b61043c846020015160e0600f610ab5565b845161044b9060e06020610ab5565b3360009081526002909701602052604090962054939d929c50909a5098504293909311965094509092505050565b60008181526001602081815260409283902083518085019094528054808552928101549184019190915260048101549092916001600160a01b0390911690158015906104c85750602082015115155b6104e45760405162461bcd60e51b815260040161015c9061175c565b6001600160a01b038116331461050c5760405162461bcd60e51b815260040161015c90611867565b4261051e836000015160e06020610ab5565b111561053c5760405162461bcd60e51b815260040161015c90611541565b600061054f836000015160806060610ab5565b90508061056e5760405162461bcd60e51b815260040161015c90611725565b6000610581846020015160fe6001610ab5565b905060006105968560200151604060a0610ab5565b600080885560018801559050816105da57604051339084156108fc029085906000818181858888f193505050501580156105d4573d6000803e3d6000fd5b506105ef565b81600114156105ef576105ef81303386610af0565b7f66c304c539e0bc7c8070207c09b9f6a5a9591b434dfed1867cc57fde7fb600938782856040516106229392919061138e565b60405180910390a150505050505050565b6000838152600160208181526040808420815180830190925280548083529381015482840152929091429161066a9160e090610ab5565b116106875760405162461bcd60e51b815260040161015c9061188d565b600061069a826020015160ef600f610ab5565b905060006106af836020015160e0600f610ab5565b90508181106106d05760405162461bcd60e51b815260040161015c9061161f565b60038401546001600160a01b03166106e88882610b04565b6107045760405162461bcd60e51b815260040161015c9061156a565b600080610718866020015160fe6001610ab5565b9050600061072d876020015160ff6001610ab5565b90506000610742886000015160806060610ab5565b905081600114156107bc576107578688611979565b60011415610767578093506107ad565b610784610775826002610b92565b61077f888a611979565b610b9e565b6002546000546107a0919062010000900463ffffffff16610baa565b6107aa91906119e0565b93505b836107b757600193505b6107e7565b6107c68688611979565b600114156107d6578093506107e7565b6107e48161077f888a611979565b93505b875161080090608060606107fb8886611979565b610be6565b895533600090815260028a016020526040902054156108315760405162461bcd60e51b815260040161015c906116fc565b33600090815260028a016020908152604090912085905588015161085e9060e0600f6107fb8a600161192e565b60018a0155826108a4576040516001600160a01b038c169085156108fc029086906000818181858888f1935050505015801561089e573d6000803e3d6000fd5b506108c9565b82600114156108c9576108c96108c18960200151604060a0610ab5565b308d87610af0565b7f358ddd686a5ca3ef6f8aee9b8d2dc3c642ecc278657c3802f8802b1a44c10e448d8c866108fe8c60200151604060a0610ab5565b60405161090e9493929190611367565b60405180910390a150919750505050505050505b9392505050565b600054610100900460ff1680610942575060005460ff16155b61095e5760405162461bcd60e51b815260040161015c9061166c565b600054610100900460ff16158015610989576000805460ff1961ff0019909116610100171660011790555b423360405160200161099c929190611261565b60408051601f19818403018152919052805160209091012060025580156109c9576000805461ff00191690555b50565b610a24846323b872dd60e01b8585856040516024016109ed939291906112f5565b60408051601f198184030181529190526020810180516001600160e01b03166001600160e01b031990931692909217909152610bfd565b50505050565b600080610a3a6080606086610c91565b17610a5160e06020610a4c864261192e565b610c91565b179392505050565b600080610a72604060a06001600160a01b038916610c91565b17610a8160e0600f6000610c91565b17610a8f60ef600f87610c91565b17610a9d60fe600186610c91565b17610aab60ff600185610c91565b1795945050505050565b6000610ac361010085610cc2565b610adf5760405162461bcd60e51b815260040161015c90611415565b50600019600190911b0191901c1690565b610a246001600160a01b0385168383610cd1565b6000806040518060400160405280601c81526020017f19457468657265756d205369676e6564204d6573736167653a0a323000000000815250905060008133604051602001610b5492919061122f565b6040516020818303038152906040528051906020012090506000610b788287610cf0565b6001600160a01b0390811690861614935050505092915050565b6000610922828461195a565b60006109228284611946565b600081338442604051602001610bc394939291906112a4565b60408051601f19818403018152919052805160209091012061092290600161192e565b821b600190911b6000190190911b19919091161790565b6000610c52826040518060400160405280602081526020017f5361666545524332303a206c6f772d6c6576656c2063616c6c206661696c6564815250856001600160a01b0316610d769092919063ffffffff16565b805190915015610c8c5780806020019051810190610c7091906110f0565b610c8c5760405162461bcd60e51b815260040161015c9061181d565b505050565b6000610c9d8383610cc2565b610cb95760405162461bcd60e51b815260040161015c90611786565b5090911b919050565b6101008214600190921b111790565b610c8c8363a9059cbb60e01b84846040516024016109ed929190611319565b600080600080845160411415610d1a5750505060208201516040830151606084015160001a610d60565b845160401415610d485750505060408201516020830151906001600160ff1b0381169060ff1c601b01610d60565b60405162461bcd60e51b815260040161015c90611483565b610d6c86828585610d8d565b9695505050505050565b6060610d858484600085610e83565b949350505050565b60007f7fffffffffffffffffffffffffffffff5d576e7357a4501ddfe92f46681b20a0821115610dcf5760405162461bcd60e51b815260040161015c90611597565b8360ff16601b1480610de457508360ff16601c145b610e005760405162461bcd60e51b815260040161015c906116ba565b600060018686868660405160008152602001604052604051610e2594939291906113ad565b6020604051602081039080840390855afa158015610e47573d6000803e3d6000fd5b5050604051601f1901519150506001600160a01b038116610e7a5760405162461bcd60e51b815260040161015c906113de565b95945050505050565b606082471015610ea55760405162461bcd60e51b815260040161015c906115d9565b610eae85610f43565b610eca5760405162461bcd60e51b815260040161015c906117e6565b600080866001600160a01b03168587604051610ee69190611213565b60006040518083038185875af1925050503d8060008114610f23576040519150601f19603f3d011682016040523d82523d6000602084013e610f28565b606091505b5091509150610f38828286610f4d565b979650505050505050565b803b15155b919050565b60608315610f5c575081610922565b825115610f6c5782518084602001fd5b8160405162461bcd60e51b815260040161015c91906113cb565b600067ffffffffffffffff80841115610fa157610fa1611a20565b604051601f8501601f191681016020018281118282101715610fc557610fc5611a20565b604052848152915081838501861015610fdd57600080fd5b8484602083013760006020868301015250509392505050565b8035610f4881611a36565b8035610f4881611a4b565b600082601f83011261101c578081fd5b61092283833560208501610f86565b6000806000806000806000806000806101408b8d03121561104a578586fd5b6110538b610ff6565b995060208b0135985061106860408c01611001565b975060608b0135965060808b0135955060a08b013567ffffffffffffffff80821115611092578687fd5b61109e8e838f0161100c565b965060c08d01359150808211156110b3578586fd5b506110c08d828e0161100c565b94505060e08b013592506110d76101008c01610ff6565b91506101208b013590509295989b9194979a5092959850565b600060208284031215611101578081fd5b815161092281611a4b565b60006020828403121561111d578081fd5b5035919050565b600080600060608486031215611138578283fd5b83359250602084013567ffffffffffffffff811115611155578283fd5b8401601f81018613611165578283fd5b61117486823560208401610f86565b925050604084013561118581611a36565b809150509250925092565b6000602082840312156111a1578081fd5b5051919050565b600081518084526111c0816020860160208601611990565b601f01601f19169290920160200192915050565b60609590951b6001600160601b0319168552601485019390935260e09190911b6001600160e01b03191660348401526038830152605882015260780190565b60008251611225818460208701611990565b9190910192915050565b60008351611241818460208801611990565b60609390931b6001600160601b0319169190920190815260140192915050565b7f466f726d6572204e424120436f6d6d697373696f6e65722044617669642053748152602081019290925260601b6001600160601b031916604082015260540190565b60e09490941b6001600160e01b031916845260609290921b6001600160601b03191660048401526018830152603882015260580190565b6001600160a01b0392831681529116602082015260400190565b6001600160a01b039384168152919092166020820152604081019190915260600190565b6001600160a01b03929092168252602082015260400190565b6001600160a01b039690961686526020860194909452604085019290925260608401521515608083015260a082015260c00190565b9384526001600160a01b039283166020850152604084019190915216606082015260800190565b9283526001600160a01b03919091166020830152604082015260600190565b93845260ff9290921660208401526040830152606082015260800190565b60006020825261092260208301846111a8565b60208082526018908201527f45434453413a20696e76616c6964207369676e61747572650000000000000000604082015260600190565b60208082526018908201527f56616c7565206f7574206f662072616e676520554e424f580000000000000000604082015260600190565b60208082526019908201527f556e7265636f676e697a61626c6520746f6b656e207479706500000000000000604082015260600190565b6020808252601f908201527f45434453413a20696e76616c6964207369676e6174757265206c656e67746800604082015260600190565b6020808252601390820152724e6f20656e6f75676820616c6c6f77616e636560681b604082015260600190565b602080825260149082015273105d081b19585cdd080c481c9958da5c1a595b9d60621b604082015260600190565b60208082526012908201527123746f6b656e73203e20237061636b65747360701b604082015260600190565b6020808252600f908201526e139bdd08195e1c1a5c9959081e595d608a1b604082015260600190565b60208082526013908201527215995c9a599a58d85d1a5bdb8819985a5b1959606a1b604082015260600190565b60208082526022908201527f45434453413a20696e76616c6964207369676e6174757265202773272076616c604082015261756560f01b606082015260800190565b60208082526026908201527f416464726573733a20696e73756666696369656e742062616c616e636520666f6040820152651c8818d85b1b60d21b606082015260800190565b6020808252600c908201526b4f7574206f662073746f636b60a01b604082015260600190565b6020808252600d908201526c09cde40cadcdeeaced0408aa89609b1b604082015260600190565b6020808252602e908201527f496e697469616c697a61626c653a20636f6e747261637420697320616c72656160408201526d191e481a5b9a5d1a585b1a5e995960921b606082015260800190565b60208082526022908201527f45434453413a20696e76616c6964207369676e6174757265202776272076616c604082015261756560f01b606082015260800190565b6020808252600f908201526e105b1c9958591e4818db185a5b5959608a1b604082015260600190565b6020808252601b908201527f4e6f6e65206c65667420696e2074686520726564207061636b65740000000000604082015260600190565b60208082526010908201526f105b1c9958591e481499599d5b99195960821b604082015260600190565b6020808252601690820152750acc2d8eaca40deeae840decc40e4c2dcceca40849eb60531b604082015260600190565b6020808252601690820152754174206d6f73742032353520726563697069656e747360501b604082015260600190565b6020808252601d908201527f416464726573733a2063616c6c20746f206e6f6e2d636f6e7472616374000000604082015260600190565b6020808252602a908201527f5361666545524332303a204552433230206f7065726174696f6e20646964206e6040820152691bdd081cdd58d8d9595960b21b606082015260800190565b6020808252600c908201526b43726561746f72204f6e6c7960a01b604082015260600190565b602080825260079082015266115e1c1a5c995960ca1b604082015260600190565b90815260200190565b60006101408c83528b60208401528060408401526118d78184018c6111a8565b905082810360608401526118eb818b6111a8565b6001600160a01b03998a16608085015260a084019890985250509390951660c084015260e083019190915215156101008201526101200191909152949350505050565b60008219821115611941576119416119f4565b500190565b60008261195557611955611a0a565b500490565b6000816000190483118215151615611974576119746119f4565b500290565b60008282101561198b5761198b6119f4565b500390565b60005b838110156119ab578181015183820152602001611993565b83811115610a245750506000910152565b600063ffffffff808316818114156119d6576119d66119f4565b6001019392505050565b6000826119ef576119ef611a0a565b500690565b634e487b7160e01b600052601160045260246000fd5b634e487b7160e01b600052601260045260246000fd5b634e487b7160e01b600052604160045260246000fd5b6001600160a01b03811681146109c957600080fd5b80151581146109c957600080fdfea2646970667358221220d27815343bc60e784ff6b3ff66f8d881b7f0664333892070523e9ede72c178a464736f6c63430008000033",
  "linkReferences": {},
  "deployedLinkReferences": {}
}