{
  "contractName": "HappyRedPacket",
  "abi": [
    {
      "inputs": [],
      "payable": false,
      "stateMutability": "nonpayable",
      "type": "constructor"
    },
    {
      "anonymous": false,
      "inputs": [
        {
          "indexed": false,
          "internalType": "bytes32",
          "name": "id",
          "type": "bytes32"
        },
        {
          "indexed": false,
          "internalType": "address",
          "name": "claimer",
          "type": "address"
        },
        {
          "indexed": false,
          "internalType": "uint256",
          "name": "claimed_value",
          "type": "uint256"
        },
        {
          "indexed": false,
          "internalType": "address",
          "name": "token_address",
          "type": "address"
        },
        {
          "indexed": false,
          "internalType": "uint256[]",
          "name": "token_id",
          "type": "uint256[]"
        }
      ],
      "name": "ClaimSuccess",
      "type": "event"
    },
    {
      "anonymous": false,
      "inputs": [
        {
          "indexed": false,
          "internalType": "uint256",
          "name": "total",
          "type": "uint256"
        },
        {
          "indexed": false,
          "internalType": "bytes32",
          "name": "id",
          "type": "bytes32"
        },
        {
          "indexed": false,
          "internalType": "address",
          "name": "creator",
          "type": "address"
        },
        {
          "indexed": false,
          "internalType": "uint256",
          "name": "creation_time",
          "type": "uint256"
        },
        {
          "indexed": false,
          "internalType": "address",
          "name": "token_address",
          "type": "address"
        },
        {
          "indexed": false,
          "internalType": "uint256[]",
          "name": "erc721_token_ids",
          "type": "uint256[]"
        }
      ],
      "name": "CreationSuccess",
      "type": "event"
    },
    {
      "anonymous": false,
      "inputs": [
        {
          "indexed": false,
          "internalType": "bytes32",
          "name": "id",
          "type": "bytes32"
        },
        {
          "indexed": false,
          "internalType": "address",
          "name": "token_address",
          "type": "address"
        },
        {
          "indexed": false,
          "internalType": "uint256",
          "name": "remaining_balance",
          "type": "uint256"
        }
      ],
      "name": "RefundSuccess",
      "type": "event"
    },
    {
      "constant": true,
      "inputs": [],
      "name": "contract_creator",
      "outputs": [
        {
          "internalType": "address",
          "name": "",
          "type": "address"
        }
      ],
      "payable": false,
      "stateMutability": "view",
      "type": "function"
    },
    {
      "constant": false,
      "inputs": [
        {
          "internalType": "bytes32",
          "name": "_hash",
          "type": "bytes32"
        },
        {
          "internalType": "uint8",
          "name": "_number",
          "type": "uint8"
        },
        {
          "internalType": "bool",
          "name": "_ifrandom",
          "type": "bool"
        },
        {
          "internalType": "uint256",
          "name": "_duration",
          "type": "uint256"
        },
        {
          "internalType": "bytes32",
          "name": "_seed",
          "type": "bytes32"
        },
        {
          "internalType": "string",
          "name": "_message",
          "type": "string"
        },
        {
          "internalType": "string",
          "name": "_name",
          "type": "string"
        },
        {
          "internalType": "uint256",
          "name": "_token_type",
          "type": "uint256"
        },
        {
          "internalType": "address",
          "name": "_token_addr",
          "type": "address"
        },
        {
          "internalType": "uint256",
          "name": "_total_tokens",
          "type": "uint256"
        },
        {
          "internalType": "uint256[]",
          "name": "_erc721_token_ids",
          "type": "uint256[]"
        }
      ],
      "name": "create_red_packet",
      "outputs": [],
      "payable": true,
      "stateMutability": "payable",
      "type": "function"
    },
    {
      "constant": false,
      "inputs": [
        {
          "internalType": "bytes32",
          "name": "_hash",
          "type": "bytes32"
        },
        {
          "internalType": "uint8",
          "name": "_number",
          "type": "uint8"
        },
        {
          "internalType": "bool",
          "name": "_ifrandom",
          "type": "bool"
        },
        {
          "internalType": "uint256",
          "name": "_duration",
          "type": "uint256"
        },
        {
          "internalType": "bytes32",
          "name": "_seed",
          "type": "bytes32"
        },
        {
          "internalType": "string",
          "name": "_message",
          "type": "string"
        },
        {
          "internalType": "string",
          "name": "_name",
          "type": "string"
        },
        {
          "internalType": "uint256",
          "name": "_token_type",
          "type": "uint256"
        },
        {
          "internalType": "address",
          "name": "_token_addr",
          "type": "address"
        },
        {
          "internalType": "uint256",
          "name": "_total_tokens",
          "type": "uint256"
        }
      ],
      "name": "create_red_packet",
      "outputs": [],
      "payable": true,
      "stateMutability": "payable",
      "type": "function"
    },
    {
      "constant": false,
      "inputs": [
        {
          "internalType": "uint256",
          "name": "token_type",
          "type": "uint256"
        },
        {
          "internalType": "address",
          "name": "token_address",
          "type": "address"
        },
        {
          "internalType": "address",
          "name": "sender_address",
          "type": "address"
        },
        {
          "internalType": "address",
          "name": "recipient_address",
          "type": "address"
        },
        {
          "internalType": "uint256",
          "name": "amount",
          "type": "uint256"
        },
        {
          "internalType": "uint256[]",
          "name": "erc721_token_ids",
          "type": "uint256[]"
        }
      ],
      "name": "transfer_token",
      "outputs": [],
      "payable": true,
      "stateMutability": "payable",
      "type": "function"
    },
    {
      "constant": true,
      "inputs": [
        {
          "internalType": "address",
          "name": "a",
          "type": "address"
        }
      ],
      "name": "toBytes",
      "outputs": [
        {
          "internalType": "bytes",
          "name": "b",
          "type": "bytes"
        }
      ],
      "payable": false,
      "stateMutability": "pure",
      "type": "function"
    },
    {
      "constant": false,
      "inputs": [
        {
          "internalType": "bytes32",
          "name": "id",
          "type": "bytes32"
        },
        {
          "internalType": "string",
          "name": "password",
          "type": "string"
        },
        {
          "internalType": "address",
          "name": "_recipient",
          "type": "address"
        },
        {
          "internalType": "bytes32",
          "name": "validation",
          "type": "bytes32"
        }
      ],
      "name": "claim",
      "outputs": [
        {
          "internalType": "uint256",
          "name": "claimed",
          "type": "uint256"
        }
      ],
      "payable": false,
      "stateMutability": "nonpayable",
      "type": "function"
    },
    {
      "constant": true,
      "inputs": [
        {
          "internalType": "bytes32",
          "name": "id",
          "type": "bytes32"
        }
      ],
      "name": "check_availability",
      "outputs": [
        {
          "internalType": "address",
          "name": "token_address",
          "type": "address"
        },
        {
          "internalType": "uint256",
          "name": "balance",
          "type": "uint256"
        },
        {
          "internalType": "uint256",
          "name": "total",
          "type": "uint256"
        },
        {
          "internalType": "uint256",
          "name": "claimed",
          "type": "uint256"
        },
        {
          "internalType": "bool",
          "name": "expired",
          "type": "bool"
        },
        {
          "internalType": "bool",
          "name": "ifclaimed",
          "type": "bool"
        }
      ],
      "payable": false,
      "stateMutability": "view",
      "type": "function"
    },
    {
      "constant": true,
      "inputs": [
        {
          "internalType": "bytes32",
          "name": "id",
          "type": "bytes32"
        }
      ],
      "name": "check_claimed_list",
      "outputs": [
        {
          "internalType": "address[]",
          "name": "claimer_addrs",
          "type": "address[]"
        }
      ],
      "payable": false,
      "stateMutability": "view",
      "type": "function"
    },
    {
      "constant": true,
      "inputs": [
        {
          "internalType": "bytes32",
          "name": "id",
          "type": "bytes32"
        }
      ],
      "name": "check_erc721_token_ids",
      "outputs": [
        {
          "internalType": "uint256[]",
          "name": "erc721_token_ids",
          "type": "uint256[]"
        }
      ],
      "payable": false,
      "stateMutability": "view",
      "type": "function"
    },
    {
      "constant": false,
      "inputs": [
        {
          "internalType": "bytes32",
          "name": "id",
          "type": "bytes32"
        }
      ],
      "name": "refund",
      "outputs": [],
      "payable": false,
      "stateMutability": "nonpayable",
      "type": "function"
    }
  ],
  "bytecode": "0x608060405234801561001057600080fd5b5033600160006101000a81548173ffffffffffffffffffffffffffffffffffffffff021916908373ffffffffffffffffffffffffffffffffffffffff1602179055506040518060400160405280602081526020017f466f726d6572204e424120436f6d6d697373696f6e657220446176696420537481525042600160009054906101000a900473ffffffffffffffffffffffffffffffffffffffff166040516020018084805190602001908083835b602083106100e257805182526020820191506020810190506020830392506100bf565b6001836020036101000a0380198251168184511680821785525050505050509050018381526020018273ffffffffffffffffffffffffffffffffffffffff1673ffffffffffffffffffffffffffffffffffffffff1660601b8152601401935050505060405160208183030381529060405280519060200120600481905550612f528061016f6000396000f3fe6080604052600436106100915760003560e01c80639224967c116100595780639224967c14610523578063a2f2d261146105b3578063bf5c2920146106df578063c807a6b614610736578063ffed49bc146108f457610091565b8063313f315814610096578063507249eb14610126578063593b79fe146103785780636bfdaece146104425780637249fbb6146104e8575b600080fd5b3480156100a257600080fd5b506100cf600480360360208110156100b957600080fd5b8101908080359060200190929190505050610a04565b6040518080602001828103825283818151815260200191508051906020019060200280838360005b838110156101125780820151818401526020810190506100f7565b505050509050019250505060405180910390f35b610376600480360361016081101561013d57600080fd5b8101908080359060200190929190803560ff16906020019092919080351515906020019092919080359060200190929190803590602001909291908035906020019064010000000081111561019157600080fd5b8201836020820111156101a357600080fd5b803590602001918460018302840111640100000000831117156101c557600080fd5b91908080601f016020809104026020016040519081016040528093929190818152602001838380828437600081840152601f19601f8201169050808301925050505050505091929192908035906020019064010000000081111561022857600080fd5b82018360208201111561023a57600080fd5b8035906020019184600183028401116401000000008311171561025c57600080fd5b91908080601f016020809104026020016040519081016040528093929190818152602001838380828437600081840152601f19601f82011690508083019250505050505050919291929080359060200190929190803573ffffffffffffffffffffffffffffffffffffffff16906020019092919080359060200190929190803590602001906401000000008111156102f357600080fd5b82018360208201111561030557600080fd5b8035906020019184602083028401116401000000008311171561032757600080fd5b919080806020026020016040519081016040528093929190818152602001838360200280828437600081840152601f19601f820116905080830192505050505050509192919290505050610a78565b005b34801561038457600080fd5b506103c76004803603602081101561039b57600080fd5b81019080803573ffffffffffffffffffffffffffffffffffffffff16906020019092919050505061136c565b6040518080602001828103825283818151815260200191508051906020019080838360005b838110156104075780820151818401526020810190506103ec565b50505050905090810190601f1680156104345780820380516001836020036101000a031916815260200191505b509250505060405180910390f35b34801561044e57600080fd5b5061047b6004803603602081101561046557600080fd5b81019080803590602001909291905050506113b7565b604051808773ffffffffffffffffffffffffffffffffffffffff1673ffffffffffffffffffffffffffffffffffffffff1681526020018681526020018581526020018481526020018315151515815260200182151515158152602001965050505050505060405180910390f35b3480156104f457600080fd5b506105216004803603602081101561050b57600080fd5b810190808035906020019092919050505061149d565b005b34801561052f57600080fd5b5061055c6004803603602081101561054657600080fd5b8101908080359060200190929190505050611953565b6040518080602001828103825283818151815260200191508051906020019060200280838360005b8381101561059f578082015181840152602081019050610584565b505050509050019250505060405180910390f35b6106dd600480360360c08110156105c957600080fd5b8101908080359060200190929190803573ffffffffffffffffffffffffffffffffffffffff169060200190929190803573ffffffffffffffffffffffffffffffffffffffff169060200190929190803573ffffffffffffffffffffffffffffffffffffffff169060200190929190803590602001909291908035906020019064010000000081111561065a57600080fd5b82018360208201111561066c57600080fd5b8035906020019184602083028401116401000000008311171561068e57600080fd5b919080806020026020016040519081016040528093929190818152602001838360200280828437600081840152601f19601f8201169050808301925050505050505091929192905050506119fd565b005b3480156106eb57600080fd5b506106f461201b565b604051808273ffffffffffffffffffffffffffffffffffffffff1673ffffffffffffffffffffffffffffffffffffffff16815260200191505060405180910390f35b6108f2600480360361014081101561074d57600080fd5b8101908080359060200190929190803560ff1690602001909291908035151590602001909291908035906020019092919080359060200190929190803590602001906401000000008111156107a157600080fd5b8201836020820111156107b357600080fd5b803590602001918460018302840111640100000000831117156107d557600080fd5b91908080601f016020809104026020016040519081016040528093929190818152602001838380828437600081840152601f19601f8201169050808301925050505050505091929192908035906020019064010000000081111561083857600080fd5b82018360208201111561084a57600080fd5b8035906020019184600183028401116401000000008311171561086c57600080fd5b91908080601f016020809104026020016040519081016040528093929190818152602001838380828437600081840152601f19601f82011690508083019250505050505050919291929080359060200190929190803573ffffffffffffffffffffffffffffffffffffffff16906020019092919080359060200190929190505050612041565b005b34801561090057600080fd5b506109ee6004803603608081101561091757600080fd5b81019080803590602001909291908035906020019064010000000081111561093e57600080fd5b82018360208201111561095057600080fd5b8035906020019184600183028401116401000000008311171561097257600080fd5b91908080601f016020809104026020016040519081016040528093929190818152602001838380828437600081840152601f19601f820116905080830192505050505050509192919290803573ffffffffffffffffffffffffffffffffffffffff16906020019092919080359060200190929190505050612090565b6040518082815260200191505060405180910390f35b6060600060026000848152602001908152602001600020905080600d01805480602002602001604051908101604052809291908181526020018280548015610a6b57602002820191906000526020600020905b815481526020019060010190808311610a57575b5050505050915050919050565b600080815480929190600101919050555060038054905060005411610b05576040517f08c379a00000000000000000000000000000000000000000000000000000000081526004018080602001828103825260038152602001807f303030000000000000000000000000000000000000000000000000000000000081525060200191505060405180910390fd5b8960ff16821015610b7e576040517f08c379a00000000000000000000000000000000000000000000000000000000081526004018080602001828103825260038152602001807f303031000000000000000000000000000000000000000000000000000000000081525060200191505060405180910390fd5b60008a60ff1611610bf7576040517f08c379a00000000000000000000000000000000000000000000000000000000081526004018080602001828103825260038152602001807f303032000000000000000000000000000000000000000000000000000000000081525060200191505060405180910390fd5b6000841415610c7b5781341015610c76576040517f08c379a00000000000000000000000000000000000000000000000000000000081526004018080602001828103825260038152602001807f303038000000000000000000000000000000000000000000000000000000000081525060200191505060405180910390fd5b610fa6565b6001841415610e2e57818373ffffffffffffffffffffffffffffffffffffffff1663dd62ed3e33306040518363ffffffff1660e01b8152600401808373ffffffffffffffffffffffffffffffffffffffff1673ffffffffffffffffffffffffffffffffffffffff1681526020018273ffffffffffffffffffffffffffffffffffffffff1673ffffffffffffffffffffffffffffffffffffffff1681526020019250505060206040518083038186803b158015610d3657600080fd5b505afa158015610d4a573d6000803e3d6000fd5b505050506040513d6020811015610d6057600080fd5b81019080805190602001909291905050501015610de5576040517f08c379a00000000000000000000000000000000000000000000000000000000081526004018080602001828103825260038152602001807f303039000000000000000000000000000000000000000000000000000000000081525060200191505060405180910390fd5b60606000604051908082528060200260200182016040528015610e175781602001602082028038833980820191505090505b509050610e288585333087866119fd565b50610fa5565b6002841415610fa4578273ffffffffffffffffffffffffffffffffffffffff1663e985e9c533306040518363ffffffff1660e01b8152600401808373ffffffffffffffffffffffffffffffffffffffff1673ffffffffffffffffffffffffffffffffffffffff1681526020018273ffffffffffffffffffffffffffffffffffffffff1673ffffffffffffffffffffffffffffffffffffffff1681526020019250505060206040518083038186803b158015610ee857600080fd5b505afa158015610efc573d6000803e3d6000fd5b505050506040513d6020811015610f1257600080fd5b8101908080519060200190929190505050610f95576040517f08c379a00000000000000000000000000000000000000000000000000000000081526004018080602001828103825260038152602001807f303131000000000000000000000000000000000000000000000000000000000081525060200191505060405180910390fd5b610fa38484333086866119fd565b5b5b5b600033426000546004548b604051602001808673ffffffffffffffffffffffffffffffffffffffff1673ffffffffffffffffffffffffffffffffffffffff1660601b81526014018581526020018481526020018381526020018281526020019550505050505060405160208183030381529060405280519060200120905060006002600083815260200190815260200160002090508181600001819055506003816000015490806001815401808255809150509060018203906000526020600020016000909192909190915055508581600301819055508481600b0160006101000a81548173ffffffffffffffffffffffffffffffffffffffff021916908373ffffffffffffffffffffffffffffffffffffffff1602179055508b8160080160006101000a81548160ff021916908360ff1602179055508381600a0181905550338160050160010160006101000a81548173ffffffffffffffffffffffffffffffffffffffff021916908373ffffffffffffffffffffffffffffffffffffffff16021790555086816005016000019080519060200190611147929190612e0a565b5087816005016002019080519060200190611163929190612e0a565b5060008a1415611174576201518099505b61117e428b612ac9565b816009018190555060008160080160016101000a81548160ff021916908360ff1602179055508a8160020160006101000a81548160ff0219169083151502179055508c81600101819055506111f16111ea858360080160009054906101000a900460ff1660ff16612b51565b6002612b9b565b81600401819055508281600d019080519060200190611211929190612e8a565b507fdcb284c7587b44873346be2269371093618514e6af139985542910fed956590b81600a015482600001548360050160010160009054906101000a900473ffffffffffffffffffffffffffffffffffffffff164285600b0160009054906101000a900473ffffffffffffffffffffffffffffffffffffffff1686600d01604051808781526020018681526020018573ffffffffffffffffffffffffffffffffffffffff1673ffffffffffffffffffffffffffffffffffffffff1681526020018481526020018373ffffffffffffffffffffffffffffffffffffffff1673ffffffffffffffffffffffffffffffffffffffff16815260200180602001828103825283818154815260200191508054801561134a57602002820191906000526020600020905b815481526020019060010190808311611336575b505097505050505050505060405180910390a150505050505050505050505050565b606060405173ffffffffffffffffffffffffffffffffffffffff8316925082741400000000000000000000000000000000000000001860148201526034810160405280915050919050565b600080600080600080600060026000898152602001908152602001600020905080600b0160009054906101000a900473ffffffffffffffffffffffffffffffffffffffff1681600a01548260080160009054906101000a900460ff168360080160019054906101000a900460ff168460090154421185600e0160003373ffffffffffffffffffffffffffffffffffffffff1673ffffffffffffffffffffffffffffffffffffffff16815260200190815260200160002060009054906101000a900460ff168360ff1693508260ff1692509650965096509650965096505091939550919395565b60006002600083815260200190815260200160002090508060050160010160009054906101000a900473ffffffffffffffffffffffffffffffffffffffff1673ffffffffffffffffffffffffffffffffffffffff163373ffffffffffffffffffffffffffffffffffffffff161461157c576040517f08c379a00000000000000000000000000000000000000000000000000000000081526004018080602001828103825260038152602001807f303131000000000000000000000000000000000000000000000000000000000081525060200191505060405180910390fd5b428160090154106115f5576040517f08c379a00000000000000000000000000000000000000000000000000000000081526004018080602001828103825260038152602001807f303132000000000000000000000000000000000000000000000000000000000081525060200191505060405180910390fd5b600081600301541415611652573373ffffffffffffffffffffffffffffffffffffffff166108fc82600a01549081150290604051600060405180830381858888f1935050505015801561164c573d6000803e3d6000fd5b506118a6565b6001816003015414156117bf57606060006040519080825280602002602001820160405280156116915781602001602082028038833980820191505090505b50905081600b0160009054906101000a900473ffffffffffffffffffffffffffffffffffffffff1673ffffffffffffffffffffffffffffffffffffffff1663095ea7b33384600a01546040518363ffffffff1660e01b8152600401808373ffffffffffffffffffffffffffffffffffffffff1673ffffffffffffffffffffffffffffffffffffffff16815260200182815260200192505050602060405180830381600087803b15801561174357600080fd5b505af1158015611757573d6000803e3d6000fd5b505050506040513d602081101561176d57600080fd5b8101908080519060200190929190505050506117b9826003015483600b0160009054906101000a900473ffffffffffffffffffffffffffffffffffffffff16303386600a0154866119fd565b506118a5565b6002816003015414156118a457606060008090505b600183600d018054905003811015611867577fffffffffffffffffffffffffffffffffffffffffffffffffffffffffffffffff83600d01828154811061181657fe5b90600052602060002001541461185a5782600d01818154811061183557fe5b90600052602060002001548283518151811061184d57fe5b6020026020010181815250505b80806001019150506117d4565b506118a2826003015483600b0160009054906101000a900473ffffffffffffffffffffffffffffffffffffffff16303386600a0154866119fd565b505b5b5b7f66c304c539e0bc7c8070207c09b9f6a5a9591b434dfed1867cc57fde7fb60093816000015482600b0160009054906101000a900473ffffffffffffffffffffffffffffffffffffffff1683600a0154604051808481526020018373ffffffffffffffffffffffffffffffffffffffff1673ffffffffffffffffffffffffffffffffffffffff168152602001828152602001935050505060405180910390a1600081600a01819055505050565b6060600060026000848152602001908152602001600020905080600c018054806020026020016040519081016040528092919081815260200182805480156119f057602002820191906000526020600020905b8160009054906101000a900473ffffffffffffffffffffffffffffffffffffffff1673ffffffffffffffffffffffffffffffffffffffff16815260200190600101908083116119a6575b5050505050915050919050565b6001861415611cf257818573ffffffffffffffffffffffffffffffffffffffff166370a08231866040518263ffffffff1660e01b8152600401808273ffffffffffffffffffffffffffffffffffffffff1673ffffffffffffffffffffffffffffffffffffffff16815260200191505060206040518083038186803b158015611a8457600080fd5b505afa158015611a98573d6000803e3d6000fd5b505050506040513d6020811015611aae57600080fd5b81019080805190602001909291905050501015611b33576040517f08c379a00000000000000000000000000000000000000000000000000000000081526004018080602001828103825260038152602001807f303130000000000000000000000000000000000000000000000000000000000081525060200191505060405180910390fd5b8473ffffffffffffffffffffffffffffffffffffffff1663095ea7b385846040518363ffffffff1660e01b8152600401808373ffffffffffffffffffffffffffffffffffffffff1673ffffffffffffffffffffffffffffffffffffffff16815260200182815260200192505050602060405180830381600087803b158015611bba57600080fd5b505af1158015611bce573d6000803e3d6000fd5b505050506040513d6020811015611be457600080fd5b8101908080519060200190929190505050508473ffffffffffffffffffffffffffffffffffffffff166323b872dd8585856040518463ffffffff1660e01b8152600401808473ffffffffffffffffffffffffffffffffffffffff1673ffffffffffffffffffffffffffffffffffffffff1681526020018373ffffffffffffffffffffffffffffffffffffffff1673ffffffffffffffffffffffffffffffffffffffff1681526020018281526020019350505050602060405180830381600087803b158015611cb157600080fd5b505af1158015611cc5573d6000803e3d6000fd5b505050506040513d6020811015611cdb57600080fd5b810190808051906020019092919050505050612013565b600286141561201257818573ffffffffffffffffffffffffffffffffffffffff166370a08231866040518263ffffffff1660e01b8152600401808273ffffffffffffffffffffffffffffffffffffffff1673ffffffffffffffffffffffffffffffffffffffff16815260200191505060206040518083038186803b158015611d7957600080fd5b505afa158015611d8d573d6000803e3d6000fd5b505050506040513d6020811015611da357600080fd5b81019080805190602001909291905050501015611e28576040517f08c379a00000000000000000000000000000000000000000000000000000000081526004018080602001828103825260038152602001807f303132000000000000000000000000000000000000000000000000000000000081525060200191505060405180910390fd5b60008090505b82811015612010573073ffffffffffffffffffffffffffffffffffffffff168473ffffffffffffffffffffffffffffffffffffffff161415611f1d578573ffffffffffffffffffffffffffffffffffffffff1663095ea7b385848481518110611e9357fe5b60200260200101516040518363ffffffff1660e01b8152600401808373ffffffffffffffffffffffffffffffffffffffff1673ffffffffffffffffffffffffffffffffffffffff16815260200182815260200192505050600060405180830381600087803b158015611f0457600080fd5b505af1158015611f18573d6000803e3d6000fd5b505050505b8573ffffffffffffffffffffffffffffffffffffffff166323b872dd8686858581518110611f4757fe5b60200260200101516040518463ffffffff1660e01b8152600401808473ffffffffffffffffffffffffffffffffffffffff1673ffffffffffffffffffffffffffffffffffffffff1681526020018373ffffffffffffffffffffffffffffffffffffffff1673ffffffffffffffffffffffffffffffffffffffff1681526020018281526020019350505050600060405180830381600087803b158015611feb57600080fd5b505af1158015611fff573d6000803e3d6000fd5b505050508080600101915050611e2e565b505b5b505050505050565b600160009054906101000a900473ffffffffffffffffffffffffffffffffffffffff1681565b6120848a8a8a8a8a8a8a8a8a8a600160405190808252806020026020018201604052801561207e5781602001602082028038833980820191505090505b50610a78565b50505050505050505050565b600080600260008781526020019081526020016000209050600084905042826009015411612126576040517f08c379a00000000000000000000000000000000000000000000000000000000081526004018080602001828103825260038152602001807f303033000000000000000000000000000000000000000000000000000000000081525060200191505060405180910390fd5b8160080160009054906101000a900460ff1660ff168260080160019054906101000a900460ff1660ff16106121c3576040517f08c379a00000000000000000000000000000000000000000000000000000000081526004018080602001828103825260038152602001807f303034000000000000000000000000000000000000000000000000000000000081525060200191505060405180910390fd5b6000151582600e0160008373ffffffffffffffffffffffffffffffffffffffff1673ffffffffffffffffffffffffffffffffffffffff16815260200190815260200160002060009054906101000a900460ff1615151461228b576040517f08c379a00000000000000000000000000000000000000000000000000000000081526004018080602001828103825260038152602001807f303035000000000000000000000000000000000000000000000000000000000081525060200191505060405180910390fd5b816001015486805190602001201461230b576040517f08c379a00000000000000000000000000000000000000000000000000000000081526004018080602001828103825260038152602001807f303036000000000000000000000000000000000000000000000000000000000081525060200191505060405180910390fd5b6123143361136c565b80519060200120841461238f576040517f08c379a00000000000000000000000000000000000000000000000000000000081526004018080602001828103825260038152602001807f303037000000000000000000000000000000000000000000000000000000000081525060200191505060405180910390fd5b81600c018190806001815401808255809150509060018203906000526020600020016000909192909190916101000a81548173ffffffffffffffffffffffffffffffffffffffff021916908373ffffffffffffffffffffffffffffffffffffffff1602179055505060006060600160405190808252806020026020018201604052801561242b5781602001602082028038833980820191505090505b509050600115158460020160009054906101000a900460ff16151514156126005760028460030154141561253c57600084600a015461246e600454600054612c21565b8161247557fe5b069050606085600d018054806020026020016040519081016040528092919081815260200182805480156124c857602002820191906000526020600020905b8154815260200190600101908083116124b4575b505050505090508082815181106124db57fe5b6020026020010151836000815181106124f057fe5b6020026020010181815250506125068183612c9c565b86600d01908051906020019061251d929190612e8a565b5060019350600186600a016000828254039250508190555050506125fb565b60018460080160019054906101000a900460ff168560080160009054906101000a900460ff160360ff1614156125785783600a015491506125fa565b836004015461258b600454600054612c21565b8161259257fe5b06915060008214156125a757600191506125e7565b83600a015482106125e65760018460080160019054906101000a900460ff168560080160009054906101000a900460ff16030360ff1684600a01540391505b5b8184600a01600082825403925050819055505b5b612760565b6002846003015414156126d857606084600d0180548060200260200160405190810160405280929190818152602001828054801561265d57602002820191906000526020600020905b815481526020019060010190808311612649575b5050505050905084600d0160008154811061267457fe5b90600052602060002001548260008151811061268c57fe5b6020026020010181815250506126a3816000612c9c565b85600d0190805190602001906126ba929190612e8a565b5060019250600185600a01600082825403925050819055505061275f565b60018460080160019054906101000a900460ff168560080160009054906101000a900460ff160360ff1614156127145783600a0154915061274c565b61274984600a01548560080160019054906101000a900460ff168660080160009054906101000a900460ff160360ff16612b51565b91505b8184600a01600082825403925050819055505b5b600184600e0160008573ffffffffffffffffffffffffffffffffffffffff1673ffffffffffffffffffffffffffffffffffffffff16815260200190815260200160002060006101000a81548160ff02191690831515021790555083600801600181819054906101000a900460ff168092919060010191906101000a81548160ff021916908360ff1602179055505060028460030154141561280d5783600a01548460040181905550612885565b8360080160019054906101000a900460ff1660ff168460080160009054906101000a900460ff1660ff16146128845761287b61287485600a01548660080160019054906101000a900460ff168760080160009054906101000a900460ff160360ff16612b51565b6002612b9b565b84600401819055505b5b6000846003015414156128de578273ffffffffffffffffffffffffffffffffffffffff166108fc839081150290604051600060405180830381858888f193505050501580156128d8573d6000803e3d6000fd5b506129a2565b60018460030154141561295c576060600060405190808252806020026020018201604052801561291d5781602001602082028038833980820191505090505b509050612956856003015486600b0160009054906101000a900473ffffffffffffffffffffffffffffffffffffffff16308787866119fd565b506129a1565b6002846003015414156129a05761299f846003015485600b0160009054906101000a900473ffffffffffffffffffffffffffffffffffffffff16308686866119fd565b5b5b5b7f0fe6f2b72f83f5f793de367c980d289f086ddce851bb3d8be18a71b410a01e488460000154848487600b0160009054906101000a900473ffffffffffffffffffffffffffffffffffffffff1685604051808681526020018573ffffffffffffffffffffffffffffffffffffffff1673ffffffffffffffffffffffffffffffffffffffff1681526020018481526020018373ffffffffffffffffffffffffffffffffffffffff1673ffffffffffffffffffffffffffffffffffffffff16815260200180602001828103825283818151815260200191508051906020019060200280838360005b83811015612aa3578082015181840152602081019050612a88565b50505050905001965050505050505060405180910390a181945050505050949350505050565b600080828401905083811015612b47576040517f08c379a000000000000000000000000000000000000000000000000000000000815260040180806020018281038252601b8152602001807f536166654d6174683a206164646974696f6e206f766572666c6f77000000000081525060200191505060405180910390fd5b8091505092915050565b6000612b9383836040518060400160405280601a81526020017f536166654d6174683a206469766973696f6e206279207a65726f000000000000815250612d44565b905092915050565b600080831415612bae5760009050612c1b565b6000828402905082848281612bbf57fe5b0414612c16576040517f08c379a0000000000000000000000000000000000000000000000000000000008152600401808060200182810382526021815260200180612efd6021913960400191505060405180910390fd5b809150505b92915050565b600081338442604051602001808581526020018473ffffffffffffffffffffffffffffffffffffffff1673ffffffffffffffffffffffffffffffffffffffff1660601b81526014018381526020018281526020019450505050506040516020818303038152906040528051906020012060001c905092915050565b606082518210612cae57829050612d3e565b60008290505b6001845103811015612cfc57836001820181518110612ccf57fe5b6020026020010151848281518110612ce357fe5b6020026020010181815250508080600101915050612cb4565b507fffffffffffffffffffffffffffffffffffffffffffffffffffffffffffffffff83600185510381518110612d2e57fe5b6020026020010181815250508290505b92915050565b60008083118290612df0576040517f08c379a00000000000000000000000000000000000000000000000000000000081526004018080602001828103825283818151815260200191508051906020019080838360005b83811015612db5578082015181840152602081019050612d9a565b50505050905090810190601f168015612de25780820380516001836020036101000a031916815260200191505b509250505060405180910390fd5b506000838581612dfc57fe5b049050809150509392505050565b828054600181600116156101000203166002900490600052602060002090601f016020900481019282601f10612e4b57805160ff1916838001178555612e79565b82800160010185558215612e79579182015b82811115612e78578251825591602001919060010190612e5d565b5b509050612e869190612ed7565b5090565b828054828255906000526020600020908101928215612ec6579160200282015b82811115612ec5578251825591602001919060010190612eaa565b5b509050612ed39190612ed7565b5090565b612ef991905b80821115612ef5576000816000905550600101612edd565b5090565b9056fe536166654d6174683a206d756c7469706c69636174696f6e206f766572666c6f77a265627a7a723158208faa56b8e97bd75aa6a59df6ba3e1dd6e1eaef916561fcae60a87b58497b0fea64736f6c63430005100032",
  "source": "pragma solidity >0.4.22;\nimport \"openzeppelin-solidity/contracts/token/ERC20/IERC20.sol\";\nimport \"openzeppelin-solidity/contracts/token/ERC721/IERC721.sol\";\nimport \"openzeppelin-solidity/contracts/math/SafeMath.sol\";\n\ncontract HappyRedPacket {\n\n    struct RedPacket {\n        bytes32 id;\n        bytes32 hash;\n        bool ifrandom;\n        uint token_type;\n        uint MAX_AMOUNT;\n        Creator creator;\n        uint8 total_number;\n        uint8 claimed_number;\n        uint expiration_time;\n        uint remaining_tokens;\n        address token_address;\n        address[] claimer_addrs;\n        uint256[] erc721_token_ids;\n        mapping(address => bool) claimed;\n    }\n\n    struct Creator {\n        string name;\n        address addr;\n        string message;\n    }\n\n    event CreationSuccess(\n        uint total,\n        bytes32 id,\n        address creator,\n        uint creation_time,\n        address token_address,\n        uint256[] erc721_token_ids\n    );\n\n    event ClaimSuccess(\n        bytes32 id,\n        address claimer,\n        uint claimed_value,\n        address token_address,\n        uint256[] token_id\n    );\n\n    event RefundSuccess(\n        bytes32 id,\n        address token_address,\n        uint remaining_balance\n    );\n\n    uint nonce;\n    address public contract_creator;\n    mapping(bytes32 => RedPacket) redpacket_by_id;\n    bytes32 [] redpackets;\n    string constant private magic = \"Former NBA Commissioner David St\"; // 32 bytes\n    bytes32 private uuid;\n\n    constructor() public {\n        contract_creator = msg.sender;\n        uuid = keccak256(abi.encodePacked(magic, now, contract_creator));\n    }\n\n    // Inits a red packet instance\n    // _token_type: 0 - ETH 1 - ERC20 2 - ERC721\n    function create_red_packet (bytes32 _hash, uint8 _number, bool _ifrandom, uint _duration, \n                                bytes32 _seed, string memory _message, string memory _name,\n                                uint _token_type, address _token_addr, uint _total_tokens)\n    public payable {\n        create_red_packet(_hash, _number, _ifrandom, _duration, _seed, _message, _name,\n                          _token_type, _token_addr, _total_tokens, new uint256[](1));\n    }\n\n    // Inits a red packet instance\n    // _token_type: 0 - ETH 1 - ERC20 2 - ERC721\n    function create_red_packet (bytes32 _hash, uint8 _number, bool _ifrandom, uint _duration, \n                                bytes32 _seed, string memory _message, string memory _name,\n                                uint _token_type, address _token_addr, uint _total_tokens,\n                                uint256[] memory _erc721_token_ids) \n    public payable {\n        nonce ++;\n        require(nonce > redpackets.length, \"000\");\n        require(_total_tokens >= _number, \"001\");\n        require(_number > 0, \"002\");\n\n        if (_token_type == 0) {\n            require(msg.value >= _total_tokens, \"008\");\n        }        \n        else if (_token_type == 1) {\n            require(IERC20(_token_addr).allowance(msg.sender, address(this)) >= _total_tokens, \"009\");\n            uint256 [] memory token_ids_holder = new uint256[](0); \n            transfer_token(_token_type, _token_addr, msg.sender, address(this), _total_tokens, token_ids_holder);\n        }\n        else if (_token_type == 2) {\n            require(IERC721(_token_addr).isApprovedForAll(msg.sender, address(this)), \"011\");\n            transfer_token(_token_type, _token_addr, msg.sender, address(this), _total_tokens, _erc721_token_ids);\n            // IERC721(_token_addr).setApprovalForAll(address(this), false);\n        }\n\n        bytes32 _id = keccak256(abi.encodePacked(msg.sender, now, nonce, uuid, _seed));\n        RedPacket storage rp = redpacket_by_id[_id];\n        rp.id = _id;\n        redpackets.push(rp.id);\n\n        rp.token_type = _token_type;\n        rp.token_address = _token_addr;\n\n        rp.total_number = _number;\n        rp.remaining_tokens = _total_tokens;\n\n        rp.creator.addr = msg.sender;\n        rp.creator.name = _name;\n        rp.creator.message = _message;\n\n        if (_duration == 0)\n            _duration = 86400; // 24hours\n        rp.expiration_time = SafeMath.add(now, _duration);\n\n        rp.claimed_number = 0;\n        rp.ifrandom = _ifrandom;\n        rp.hash = _hash;\n        rp.MAX_AMOUNT = SafeMath.mul(SafeMath.div(_total_tokens, rp.total_number), 2);\n        rp.erc721_token_ids = _erc721_token_ids;\n        emit CreationSuccess(rp.remaining_tokens, rp.id, rp.creator.addr, now, rp.token_address, rp.erc721_token_ids);\n    }\n\n    // Check the balance of the given token\n    function transfer_token(uint token_type, address token_address, address sender_address,\n                            address recipient_address, uint amount, uint256 [] memory erc721_token_ids) public payable{\n        // ERC20\n        if (token_type == 1) {\n            require(IERC20(token_address).balanceOf(sender_address) >= amount, \"010\");\n            IERC20(token_address).approve(sender_address, amount);\n            IERC20(token_address).transferFrom(sender_address, recipient_address, amount);\n        }\n\n        else if (token_type == 2) {\n            require(IERC721(token_address).balanceOf(sender_address) >= amount, \"012\");\n            for (uint i=0; i < amount; i++) {\n                if (recipient_address == address(this)){\n                    IERC721(token_address).approve(recipient_address, erc721_token_ids[i]);\n                }\n                IERC721(token_address).transferFrom(sender_address, recipient_address, erc721_token_ids[i]);\n            }\n        }\n\n    }\n    \n    // A boring wrapper\n    function random(bytes32 seed, uint nonce_rand) internal view returns (uint rand) {\n        return uint(keccak256(abi.encodePacked(nonce_rand, msg.sender, seed, now)));\n    }\n    \n    // https://ethereum.stackexchange.com/questions/884/how-to-convert-an-address-to-bytes-in-solidity\n    // 695 gas consumed\n    function toBytes(address a) public pure returns (bytes memory b) {\n        assembly {\n            let m := mload(0x40)\n            a := and(a, 0xFFFFFFFFFFFFFFFFFFFFFFFFFFFFFFFFFFFFFFFF)\n            mstore(add(m, 20), xor(0x140000000000000000000000000000000000000000, a))\n            mstore(0x40, add(m, 52))\n            b := m\n        }\n    }\n\n    function getTokenIdWithIndex(uint256[] memory array, uint index) internal view returns(uint256[] memory) {\n        if (index >= array.length) return array;\n        for (uint i = index; i < array.length - 1; i++){\n            array[i] = array[i + 1];\n        }\n        array[array.length - 1] = 0xFFFFFFFFFFFFFFFFFFFFFFFFFFFFFFFFFFFFFFFFFFFFFFFFFFFFFFFFFFFFFFFF;\n        return array;\n    }\n\n    // It takes the unhashed password and a hashed random seed generated from the user\n    function claim(bytes32 id, string memory password, address _recipient, bytes32 validation) \n    public returns (uint claimed) {\n\n        RedPacket storage rp = redpacket_by_id[id];\n        address payable recipient = address(uint160(_recipient));\n        // uint256 token_id;\n        // Unsuccessful\n        require (rp.expiration_time > now, \"003\");\n        require (rp.claimed_number < rp.total_number, \"004\");\n        require (rp.claimed[recipient] == false, \"005\");\n        require (keccak256(bytes(password)) == rp.hash, \"006\");\n        require (validation == keccak256(toBytes(msg.sender)), \"007\");\n\n        // Store claimer info\n        rp.claimer_addrs.push(recipient);\n        uint claimed_tokens;\n        uint256 [] memory token_ids = new uint256[](1); //TODO: Optimize this behavior.\n        // Todo get erc721 token id;\n        if (rp.ifrandom == true) {\n            if (rp.token_type == 2) {\n                uint token_id_index = random(uuid, nonce) % rp.remaining_tokens;\n                uint256[] memory _array = rp.erc721_token_ids;\n                token_ids[0] = _array[token_id_index];\n                rp.erc721_token_ids = getTokenIdWithIndex(_array, token_id_index);\n                claimed_tokens = 1;\n                rp.remaining_tokens -= 1;\n            }\n            else\n            {\n                if (rp.total_number - rp.claimed_number == 1){\n                    claimed_tokens = rp.remaining_tokens;\n                }\n                else{\n                    claimed_tokens = random(uuid, nonce) % rp.MAX_AMOUNT;\n                    if (claimed_tokens == 0) {\n                        claimed_tokens = 1;\n                    }\n                    else if (claimed_tokens >= rp.remaining_tokens) {\n                        claimed_tokens = rp.remaining_tokens - (rp.total_number - rp.claimed_number - 1);\n                    }\n                rp.remaining_tokens -= claimed_tokens;\n                }\n            }\n        }\n        else {\n            if (rp.token_type == 2) {\n                // token_id_index = random(uuid, nonce) % rp.remaining_tokens;\n                uint256[] memory _array = rp.erc721_token_ids;\n                token_ids[0] = rp.erc721_token_ids[0];\n                rp.erc721_token_ids = getTokenIdWithIndex(_array, 0);\n                claimed_tokens = 1;\n                rp.remaining_tokens -= 1;\n            }\n            else\n            {\n                if (rp.total_number - rp.claimed_number == 1){\n                    claimed_tokens = rp.remaining_tokens;\n                }\n                else{\n                    claimed_tokens = SafeMath.div(rp.remaining_tokens, (rp.total_number - rp.claimed_number));\n                }\n                rp.remaining_tokens -= claimed_tokens;\n            }\n        }\n\n        rp.claimed[recipient] = true;\n\n        rp.claimed_number ++;\n        if (rp.token_type == 2) {\n            rp.MAX_AMOUNT = rp.remaining_tokens;\n        }\n        else {\n            if (rp.total_number != rp.claimed_number){\n                rp.MAX_AMOUNT = SafeMath.mul(SafeMath.div(rp.remaining_tokens, rp.total_number - rp.claimed_number), 2);\n            }\n\n        }\n\n        // Transfer the red packet after state changing\n        if (rp.token_type == 0) {\n            recipient.transfer(claimed_tokens);\n        }\n        else if (rp.token_type == 1) {\n            uint256 [] memory token_ids_holder = new uint256[](0); \n            transfer_token(rp.token_type, rp.token_address, address(this),\n                            recipient, claimed_tokens, token_ids_holder);\n        }\n        else if (rp.token_type == 2) {\n            transfer_token(rp.token_type, rp.token_address, address(this),\n                            recipient, claimed_tokens, token_ids);\n        }\n\n        // Claim success event\n        emit ClaimSuccess(rp.id, recipient, claimed_tokens, rp.token_address, token_ids);\n        return claimed_tokens;\n    }\n\n    // Returns 1. remaining value 2. total number of red packets 3. claimed number of red packets\n    function check_availability(bytes32 id) public view returns (address token_address, uint balance, uint total, \n                                                                    uint claimed, bool expired, bool ifclaimed) {\n        RedPacket storage rp = redpacket_by_id[id];\n        return (rp.token_address, rp.remaining_tokens, rp.total_number, \n                rp.claimed_number, now > rp.expiration_time, rp.claimed[msg.sender]);\n    }\n\n    // Returns a list of claimed addresses accordingly\n    function check_claimed_list(bytes32 id) public view returns (address[] memory claimer_addrs) {\n        RedPacket storage rp = redpacket_by_id[id];\n        return (rp.claimer_addrs);\n    }\n\n    // Returns a list of claiming token id\n    function check_erc721_token_ids(bytes32 id) public view returns (uint256[] memory erc721_token_ids) {\n        RedPacket storage rp = redpacket_by_id[id];\n        return (rp.erc721_token_ids);\n    }\n\n    function refund(bytes32 id) public {\n        RedPacket storage rp = redpacket_by_id[id];\n        require(msg.sender == rp.creator.addr, \"011\");\n        require(rp.expiration_time < now, \"012\");\n\n        if (rp.token_type == 0) {\n            msg.sender.transfer(rp.remaining_tokens);\n        }\n        else if (rp.token_type == 1) {\n            uint256[] memory token_ids_holder = new uint256[](0); \n            IERC20(rp.token_address).approve(msg.sender, rp.remaining_tokens);\n            transfer_token(rp.token_type, rp.token_address, address(this),\n                            msg.sender, rp.remaining_tokens, token_ids_holder);\n        }\n        else if (rp.token_type == 2) {\n            uint256[] memory token_ids;\n            for (uint i = 0; i < rp.erc721_token_ids.length - 1; i++){\n                if (rp.erc721_token_ids[i] != 0xFFFFFFFFFFFFFFFFFFFFFFFFFFFFFFFFFFFFFFFFFFFFFFFFFFFFFFFFFFFFFFFF) {\n                    token_ids[token_ids.length] = rp.erc721_token_ids[i];\n                }\n            }\n            // IERC721(rp.token_address).approve(msg.sender, rp.remaining_tokens);\n            transfer_token(rp.token_type, rp.token_address, address(this),\n                            msg.sender, rp.remaining_tokens, token_ids); \n        }\n\n        emit RefundSuccess(rp.id, rp.token_address, rp.remaining_tokens);\n        rp.remaining_tokens = 0;\n    }\n\n    // One cannot send tokens to this contract after constructor anymore\n    // function () external payable {\n    // }\n}\n",
  "sourcePath": "/Users/yisiliu/Workspace/yisiliu/RedPacket/test/contracts/redpacket.sol",
  "compiler": {
    "name": "solc",
    "version": "0.5.16+commit.9c3226ce.Emscripten.clang"
  },
  "schemaVersion": "3.2.5",
  "updatedAt": "2020-09-17T07:15:42.104Z",
  "devdoc": {
    "methods": {}
  },
  "userdoc": {
    "methods": {}
  }
}