{
  "contractName": "HappyRedPacket",
  "abi": [
    {
      "inputs": [],
      "payable": false,
      "stateMutability": "nonpayable",
      "type": "constructor"
    },
    {
      "anonymous": false,
      "inputs": [
        {
          "indexed": false,
          "internalType": "bytes32",
          "name": "id",
          "type": "bytes32"
        },
        {
          "indexed": false,
          "internalType": "address",
          "name": "claimer",
          "type": "address"
        },
        {
          "indexed": false,
          "internalType": "uint256",
          "name": "claimed_value",
          "type": "uint256"
        },
        {
          "indexed": false,
          "internalType": "address",
          "name": "token_address",
          "type": "address"
        }
      ],
      "name": "ClaimSuccess",
      "type": "event"
    },
    {
      "anonymous": false,
      "inputs": [
        {
          "indexed": false,
          "internalType": "uint256",
          "name": "total",
          "type": "uint256"
        },
        {
          "indexed": false,
          "internalType": "bytes32",
          "name": "id",
          "type": "bytes32"
        },
        {
          "indexed": false,
          "internalType": "address",
          "name": "creator",
          "type": "address"
        },
        {
          "indexed": false,
          "internalType": "uint256",
          "name": "creation_time",
          "type": "uint256"
        },
        {
          "indexed": false,
          "internalType": "address",
          "name": "token_address",
          "type": "address"
        }
      ],
      "name": "CreationSuccess",
      "type": "event"
    },
    {
      "anonymous": false,
      "inputs": [
        {
          "indexed": false,
          "internalType": "bytes32",
          "name": "id",
          "type": "bytes32"
        },
        {
          "indexed": false,
          "internalType": "bytes32",
          "name": "hash1",
          "type": "bytes32"
        },
        {
          "indexed": false,
          "internalType": "bytes32",
          "name": "hash2",
          "type": "bytes32"
        }
      ],
      "name": "Failure",
      "type": "event"
    },
    {
      "anonymous": false,
      "inputs": [
        {
          "indexed": false,
          "internalType": "bytes32",
          "name": "id",
          "type": "bytes32"
        },
        {
          "indexed": false,
          "internalType": "address",
          "name": "token_address",
          "type": "address"
        },
        {
          "indexed": false,
          "internalType": "uint256",
          "name": "remaining_balance",
          "type": "uint256"
        }
      ],
      "name": "RefundSuccess",
      "type": "event"
    },
    {
      "constant": false,
      "inputs": [
        {
          "internalType": "bytes32[]",
          "name": "_hashes",
          "type": "bytes32[]"
        },
        {
          "internalType": "bool",
          "name": "_ifrandom",
          "type": "bool"
        },
        {
          "internalType": "uint256",
          "name": "_duration",
          "type": "uint256"
        },
        {
          "internalType": "bytes32",
          "name": "_seed",
          "type": "bytes32"
        },
        {
          "internalType": "string",
          "name": "_message",
          "type": "string"
        },
        {
          "internalType": "string",
          "name": "_name",
          "type": "string"
        },
        {
          "internalType": "uint256",
          "name": "_token_type",
          "type": "uint256"
        },
        {
          "internalType": "address",
          "name": "_token_addr",
          "type": "address"
        },
        {
          "internalType": "uint256",
          "name": "_total_tokens",
          "type": "uint256"
        }
      ],
      "name": "create_red_packet",
      "outputs": [],
      "payable": true,
      "stateMutability": "payable",
      "type": "function"
    },
    {
      "constant": false,
      "inputs": [
        {
          "internalType": "uint256",
          "name": "token_type",
          "type": "uint256"
        },
        {
          "internalType": "address",
          "name": "token_address",
          "type": "address"
        },
        {
          "internalType": "address",
          "name": "sender_address",
          "type": "address"
        },
        {
          "internalType": "address",
          "name": "recipient_address",
          "type": "address"
        },
        {
          "internalType": "uint256",
          "name": "amount",
          "type": "uint256"
        }
      ],
      "name": "transfer_token",
      "outputs": [],
      "payable": true,
      "stateMutability": "payable",
      "type": "function"
    },
    {
      "constant": true,
      "inputs": [
        {
          "internalType": "address",
          "name": "a",
          "type": "address"
        }
      ],
      "name": "toBytes",
      "outputs": [
        {
          "internalType": "bytes",
          "name": "b",
          "type": "bytes"
        }
      ],
      "payable": false,
      "stateMutability": "pure",
      "type": "function"
    },
    {
      "constant": false,
      "inputs": [
        {
          "internalType": "bytes32",
          "name": "id",
          "type": "bytes32"
        },
        {
          "internalType": "string",
          "name": "password",
          "type": "string"
        },
        {
          "internalType": "address",
          "name": "_recipient",
          "type": "address"
        },
        {
          "internalType": "bytes32",
          "name": "validation",
          "type": "bytes32"
        }
      ],
      "name": "claim",
      "outputs": [
        {
          "internalType": "uint256",
          "name": "claimed",
          "type": "uint256"
        }
      ],
      "payable": false,
      "stateMutability": "nonpayable",
      "type": "function"
    },
    {
      "constant": true,
      "inputs": [
        {
          "internalType": "bytes32",
          "name": "id",
          "type": "bytes32"
        }
      ],
      "name": "check_availability",
      "outputs": [
        {
          "internalType": "address",
          "name": "token_address",
          "type": "address"
        },
        {
          "internalType": "uint256",
          "name": "balance",
          "type": "uint256"
        },
        {
          "internalType": "uint256",
          "name": "total",
          "type": "uint256"
        },
        {
          "internalType": "uint256",
          "name": "claimed",
          "type": "uint256"
        },
        {
          "internalType": "bool",
          "name": "expired",
          "type": "bool"
        }
      ],
      "payable": false,
      "stateMutability": "view",
      "type": "function"
    },
    {
      "constant": true,
      "inputs": [
        {
          "internalType": "bytes32",
          "name": "id",
          "type": "bytes32"
        }
      ],
      "name": "check_claimed_list",
      "outputs": [
        {
          "internalType": "uint256[]",
          "name": "claimed_list",
          "type": "uint256[]"
        },
        {
          "internalType": "address[]",
          "name": "claimer_addrs",
          "type": "address[]"
        }
      ],
      "payable": false,
      "stateMutability": "view",
      "type": "function"
    },
    {
      "constant": false,
      "inputs": [
        {
          "internalType": "bytes32",
          "name": "id",
          "type": "bytes32"
        }
      ],
      "name": "refund",
      "outputs": [],
      "payable": false,
      "stateMutability": "nonpayable",
      "type": "function"
    }
  ],
  "bytecode": "0x608060405234801561001057600080fd5b5033600160006101000a81548173ffffffffffffffffffffffffffffffffffffffff021916908373ffffffffffffffffffffffffffffffffffffffff1602179055506040518060800160405280604f8152602001612019604f913942600160009054906101000a900473ffffffffffffffffffffffffffffffffffffffff166040516020018084805190602001908083835b602083106100c557805182526020820191506020810190506020830392506100a2565b6001836020036101000a0380198251168184511680821785525050505050509050018381526020018273ffffffffffffffffffffffffffffffffffffffff1673ffffffffffffffffffffffffffffffffffffffff1660601b8152601401935050505060405160208183030381529060405280519060200120600481905550611ec7806101526000396000f3fe6080604052600436106100705760003560e01c80637249fbb61161004e5780637249fbb61461041557806388f20c19146104505780639224967c146104e8578063ffed49bc146105c057610070565b806311a9465f14610075578063593b79fe146102b05780636bfdaece1461037a575b600080fd5b6102ae600480360361012081101561008c57600080fd5b81019080803590602001906401000000008111156100a957600080fd5b8201836020820111156100bb57600080fd5b803590602001918460208302840111640100000000831117156100dd57600080fd5b919080806020026020016040519081016040528093929190818152602001838360200280828437600081840152601f19601f82011690508083019250505050505050919291929080351515906020019092919080359060200190929190803590602001909291908035906020019064010000000081111561015d57600080fd5b82018360208201111561016f57600080fd5b8035906020019184600183028401116401000000008311171561019157600080fd5b91908080601f016020809104026020016040519081016040528093929190818152602001838380828437600081840152601f19601f820116905080830192505050505050509192919290803590602001906401000000008111156101f457600080fd5b82018360208201111561020657600080fd5b8035906020019184600183028401116401000000008311171561022857600080fd5b91908080601f016020809104026020016040519081016040528093929190818152602001838380828437600081840152601f19601f82011690508083019250505050505050919291929080359060200190929190803573ffffffffffffffffffffffffffffffffffffffff169060200190929190803590602001909291905050506106d0565b005b3480156102bc57600080fd5b506102ff600480360360208110156102d357600080fd5b81019080803573ffffffffffffffffffffffffffffffffffffffff169060200190929190505050610df9565b6040518080602001828103825283818151815260200191508051906020019080838360005b8381101561033f578082015181840152602081019050610324565b50505050905090810190601f16801561036c5780820380516001836020036101000a031916815260200191505b509250505060405180910390f35b34801561038657600080fd5b506103b36004803603602081101561039d57600080fd5b8101908080359060200190929190505050610e44565b604051808673ffffffffffffffffffffffffffffffffffffffff1673ffffffffffffffffffffffffffffffffffffffff168152602001858152602001848152602001838152602001821515151581526020019550505050505060405180910390f35b34801561042157600080fd5b5061044e6004803603602081101561043857600080fd5b8101908080359060200190929190505050610eb1565b005b6104e6600480360360a081101561046657600080fd5b8101908080359060200190929190803573ffffffffffffffffffffffffffffffffffffffff169060200190929190803573ffffffffffffffffffffffffffffffffffffffff169060200190929190803573ffffffffffffffffffffffffffffffffffffffff16906020019092919080359060200190929190505050611117565b005b3480156104f457600080fd5b506105216004803603602081101561050b57600080fd5b810190808035906020019092919050505061140f565b604051808060200180602001838103835285818151815260200191508051906020019060200280838360005b8381101561056857808201518184015260208101905061054d565b50505050905001838103825284818151815260200191508051906020019060200280838360005b838110156105aa57808201518184015260208101905061058f565b5050505090500194505050505060405180910390f35b3480156105cc57600080fd5b506106ba600480360360808110156105e357600080fd5b81019080803590602001909291908035906020019064010000000081111561060a57600080fd5b82018360208201111561061c57600080fd5b8035906020019184600183028401116401000000008311171561063e57600080fd5b91908080601f016020809104026020016040519081016040528093929190818152602001838380828437600081840152601f19601f820116905080830192505050505050509192919290803573ffffffffffffffffffffffffffffffffffffffff169060200190929190803590602001909291905050506115af565b6040518082815260200191505060405180910390f35b600160008082825401925050819055506003805490506000541161075c576040517f08c379a00000000000000000000000000000000000000000000000000000000081526004018080602001828103825260138152602001807f3030302074727920616761696e206c617465720000000000000000000000000081525060200191505060405180910390fd5b88518110156107b6576040517f08c379a000000000000000000000000000000000000000000000000000000000815260040180806020018281038252603f815260200180611d9b603f913960400191505060405180910390fd5b6000895111610810576040517f08c379a000000000000000000000000000000000000000000000000000000000815260040180806020018281038252602f815260200180611e31602f913960400191505060405180910390fd5b60008314156108775780341015610872576040517f08c379a0000000000000000000000000000000000000000000000000000000008152600401808060200182810382526023815260200180611dda6023913960400191505060405180910390fd5b6109d3565b60018314156109d257808273ffffffffffffffffffffffffffffffffffffffff1663dd62ed3e33306040518363ffffffff1660e01b8152600401808373ffffffffffffffffffffffffffffffffffffffff1673ffffffffffffffffffffffffffffffffffffffff1681526020018273ffffffffffffffffffffffffffffffffffffffff1673ffffffffffffffffffffffffffffffffffffffff1681526020019250505060206040518083038186803b15801561093257600080fd5b505afa158015610946573d6000803e3d6000fd5b505050506040513d602081101561095c57600080fd5b810190808051906020019092919050505010156109c4576040517f08c379a0000000000000000000000000000000000000000000000000000000008152600401808060200182810382526025815260200180611d766025913960400191505060405180910390fd5b6109d18383333085611117565b5b5b600033426000546004548a604051602001808673ffffffffffffffffffffffffffffffffffffffff1673ffffffffffffffffffffffffffffffffffffffff1660601b81526014018581526020018481526020018381526020018281526020019550505050505060405160208183030381529060405280519060200120905060006002600083815260200190815260200160002090508181600001819055506003816000015490806001815401808255809150509060018203906000526020600020016000909192909190915055508481600301819055508381600d0160006101000a81548173ffffffffffffffffffffffffffffffffffffffff021916908373ffffffffffffffffffffffffffffffffffffffff1602179055508a5181600801819055508281600c0181905550338160040160010160006101000a81548173ffffffffffffffffffffffffffffffffffffffff021916908373ffffffffffffffffffffffffffffffffffffffff16021790555085816004016000019080519060200190610b61929190611c5e565b5086816004016002019080519060200190610b7d929190611c5e565b506000891415610b8e576201518098505b88420181600b0181905550600081600a0181905550898160010160006101000a81548160ff0219169083151502179055508a816007019080519060200190610bd7929190611cde565b5060008082600c015490506000600190506000600285600801548481610bf957fe5b0402905060008090505b8560080154811015610cb4578560010160009054906101000a900460ff1615610c665783610c3987600001548360005401611be3565b81610c4057fe5b06945082851015610c545760019450610c61565b81851115610c60578194505b5b610c74565b60028281610c7057fe5b0494505b8560020185908060018154018082558091505090600182039060005260206000200160009091929091909150555084840393508080600101915050610c03565b508285600201600187600201805490500381548110610ccf57fe5b90600052602060002001600082825401925050819055507f246f6c24037ffa65fe063dfda4cbb0c8403a2b63b9d1d455bf9724c3dc11564885600c015486600001548760040160010160009054906101000a900473ffffffffffffffffffffffffffffffffffffffff164289600d0160009054906101000a900473ffffffffffffffffffffffffffffffffffffffff16604051808681526020018581526020018473ffffffffffffffffffffffffffffffffffffffff1673ffffffffffffffffffffffffffffffffffffffff1681526020018381526020018273ffffffffffffffffffffffffffffffffffffffff1673ffffffffffffffffffffffffffffffffffffffff1681526020019550505050505060405180910390a1505050505050505050505050505050565b606060405173ffffffffffffffffffffffffffffffffffffffff8316925082741400000000000000000000000000000000000000001860148201526034810160405280915050919050565b60008060008060008060026000888152602001908152602001600020905080600d0160009054906101000a900473ffffffffffffffffffffffffffffffffffffffff1681600c0154826008015483600a015484600b01544211955095509550955095505091939590929450565b60006002600083815260200190815260200160002090508060040160010160009054906101000a900473ffffffffffffffffffffffffffffffffffffffff1673ffffffffffffffffffffffffffffffffffffffff163373ffffffffffffffffffffffffffffffffffffffff1614610f73576040517f08c379a0000000000000000000000000000000000000000000000000000000008152600401808060200182810382526034815260200180611dfd6034913960400191505060405180910390fd5b4281600b015410610fcf576040517f08c379a0000000000000000000000000000000000000000000000000000000008152600401808060200182810382526033815260200180611e606033913960400191505060405180910390fd5b7f66c304c539e0bc7c8070207c09b9f6a5a9591b434dfed1867cc57fde7fb60093816000015482600d0160009054906101000a900473ffffffffffffffffffffffffffffffffffffffff1683600c0154604051808481526020018373ffffffffffffffffffffffffffffffffffffffff1673ffffffffffffffffffffffffffffffffffffffff168152602001828152602001935050505060405180910390a16000816003015414156110cb573373ffffffffffffffffffffffffffffffffffffffff166108fc82600c01549081150290604051600060405180830381858888f193505050501580156110c5573d6000803e3d6000fd5b50611113565b60018160030154141561111257611111816003015482600d0160009054906101000a900473ffffffffffffffffffffffffffffffffffffffff16303385600c0154611117565b5b5b5050565b600185141561140857808473ffffffffffffffffffffffffffffffffffffffff166370a08231856040518263ffffffff1660e01b8152600401808273ffffffffffffffffffffffffffffffffffffffff1673ffffffffffffffffffffffffffffffffffffffff16815260200191505060206040518083038186803b15801561119e57600080fd5b505afa1580156111b2573d6000803e3d6000fd5b505050506040513d60208110156111c857600080fd5b8101908080519060200190929190505050101561124d576040517f08c379a000000000000000000000000000000000000000000000000000000000815260040180806020018281038252600a8152602001807f4e6f7420656e6f7567680000000000000000000000000000000000000000000081525060200191505060405180910390fd5b8373ffffffffffffffffffffffffffffffffffffffff1663095ea7b383836040518363ffffffff1660e01b8152600401808373ffffffffffffffffffffffffffffffffffffffff1673ffffffffffffffffffffffffffffffffffffffff16815260200182815260200192505050602060405180830381600087803b1580156112d457600080fd5b505af11580156112e8573d6000803e3d6000fd5b505050506040513d60208110156112fe57600080fd5b8101908080519060200190929190505050508373ffffffffffffffffffffffffffffffffffffffff166323b872dd8484846040518463ffffffff1660e01b8152600401808473ffffffffffffffffffffffffffffffffffffffff1673ffffffffffffffffffffffffffffffffffffffff1681526020018373ffffffffffffffffffffffffffffffffffffffff1673ffffffffffffffffffffffffffffffffffffffff1681526020018281526020019350505050602060405180830381600087803b1580156113cb57600080fd5b505af11580156113df573d6000803e3d6000fd5b505050506040513d60208110156113f557600080fd5b8101908080519060200190929190505050505b5050505050565b6060806000600260008581526020019081526020016000209050606081600a015460405190808252806020026020018201604052801561145e5781602001602082028038833980820191505090505b50905060008090505b82600a01548110156115165782601001600084600f01838154811061148857fe5b9060005260206000200160009054906101000a900473ffffffffffffffffffffffffffffffffffffffff1673ffffffffffffffffffffffffffffffffffffffff1673ffffffffffffffffffffffffffffffffffffffff168152602001908152602001600020600301548282815181106114fd57fe5b6020026020010181815250508080600101915050611467565b508082600f018080548060200260200160405190810160405280929190818152602001828054801561159d57602002820191906000526020600020905b8160009054906101000a900473ffffffffffffffffffffffffffffffffffffffff1673ffffffffffffffffffffffffffffffffffffffff1681526020019060010190808311611553575b50505050509050935093505050915091565b60008060026000878152602001908152602001600020905060008490504282600b015411611645576040517f08c379a000000000000000000000000000000000000000000000000000000000815260040180806020018281038252600c8152602001807f30303320457870697265642e000000000000000000000000000000000000000081525060200191505060405180910390fd5b816008015482600a0154106116c2576040517f08c379a00000000000000000000000000000000000000000000000000000000081526004018080602001828103825260118152602001807f303034204f7574206f662053746f636b2e00000000000000000000000000000081525060200191505060405180910390fd5b60008260100160008373ffffffffffffffffffffffffffffffffffffffff1673ffffffffffffffffffffffffffffffffffffffff168152602001908152602001600020600301541461177c576040517f08c379a00000000000000000000000000000000000000000000000000000000081526004018080602001828103825260138152602001807f30303520416c726561647920436c61696d65640000000000000000000000000081525060200191505060405180910390fd5b8160070182600a01548154811061178f57fe5b9060005260206000200154868051906020012014611815576040517f08c379a00000000000000000000000000000000000000000000000000000000081526004018080602001828103825260138152602001807f3030362057726f6e672050617373776f72642e0000000000000000000000000081525060200191505060405180910390fd5b61181e33610df9565b805190602001208414611899576040517f08c379a00000000000000000000000000000000000000000000000000000000081526004018080602001828103825260158152602001807f3030372056616c69646174696f6e204661696c6564000000000000000000000081525060200191505060405180910390fd5b81600f018190806001815401808255809150509060018203906000526020600020016000909192909190916101000a81548173ffffffffffffffffffffffffffffffffffffffff021916908373ffffffffffffffffffffffffffffffffffffffff160217905550506000600115158360010160009054906101000a900460ff1615151415611946578260020183600a01548154811061193457fe5b90600052602060002001549050611964565b8260020160008154811061195657fe5b906000526020600020015490505b8083600c016000828254039250508190555082600a01548360100160008473ffffffffffffffffffffffffffffffffffffffff1673ffffffffffffffffffffffffffffffffffffffff16815260200190815260200160002060000181905550808360100160008473ffffffffffffffffffffffffffffffffffffffff1673ffffffffffffffffffffffffffffffffffffffff16815260200190815260200160002060030181905550428360100160008473ffffffffffffffffffffffffffffffffffffffff1673ffffffffffffffffffffffffffffffffffffffff1681526020019081526020016000206002018190555082600a0160008154809291906001019190505550600083600301541415611ac2578173ffffffffffffffffffffffffffffffffffffffff166108fc829081150290604051600060405180830381858888f19350505050158015611abc573d6000803e3d6000fd5b50611b06565b600183600301541415611b0557611b04836003015484600d0160009054906101000a900473ffffffffffffffffffffffffffffffffffffffff16308585611117565b5b5b7f358ddd686a5ca3ef6f8aee9b8d2dc3c642ecc278657c3802f8802b1a44c10e448360000154838386600d0160009054906101000a900473ffffffffffffffffffffffffffffffffffffffff16604051808581526020018473ffffffffffffffffffffffffffffffffffffffff1673ffffffffffffffffffffffffffffffffffffffff1681526020018381526020018273ffffffffffffffffffffffffffffffffffffffff1673ffffffffffffffffffffffffffffffffffffffff16815260200194505050505060405180910390a1809350505050949350505050565b600081338442604051602001808581526020018473ffffffffffffffffffffffffffffffffffffffff1673ffffffffffffffffffffffffffffffffffffffff1660601b81526014018381526020018281526020019450505050506040516020818303038152906040528051906020012060001c905092915050565b828054600181600116156101000203166002900490600052602060002090601f016020900481019282601f10611c9f57805160ff1916838001178555611ccd565b82800160010185558215611ccd579182015b82811115611ccc578251825591602001919060010190611cb1565b5b509050611cda9190611d2b565b5090565b828054828255906000526020600020908101928215611d1a579160200282015b82811115611d19578251825591602001919060010190611cfe565b5b509050611d279190611d50565b5090565b611d4d91905b80821115611d49576000816000905550600101611d31565b5090565b90565b611d7291905b80821115611d6e576000816000905550600101611d56565b5090565b9056fe30303920596f75206861766520746f2073657420656e6f75676820616c6c6f77616e63652e303031204174206c65617374205b6e756d626572206f6620726564207061636b6574735d20746f6b656e7320746f20796f757220726564207061636b65742e30303820596f75206861766520746f2073656e6420656e6f75676820746f6b656e732e303038204f6e6c792074686520726564207061636b65742063726561746f722063616e20726566756e6420746865206d6f6e6579303032204174206c65617374203120706572736f6e2063616e20636c61696d2074686520726564207061636b65742e30303920446973616c6c6f77656420756e74696c207468652065787069726174696f6e2074696d652068617320706173736564a265627a7a72315820a177baedd506dc0dd392558c93c2c9ae0d608d9d84f902696ce53a75b7019a9464736f6c634300050c0032466f726d6572204e6174696f6e616c204261736b657462616c6c204173736f63696174696f6e20284e42412920436f6d6d697373696f6e657220446176696420537465726e2068617320646965642e",
  "source": "pragma solidity >0.4.22;\nimport \"openzeppelin-solidity/contracts/token/ERC20/IERC20.sol\";\n\ncontract HappyRedPacket {\n\n    struct RedPacket {\n        bytes32 id;\n        bool ifrandom;\n        uint[] tokens;\n        uint token_type;\n        Creator creator;\n        bytes32[] hashes;\n        uint total_number;\n        string creator_name;\n        uint claimed_number;\n        uint expiration_time;\n        uint remaining_tokens;\n        address token_address;\n        string claimed_list_str;\n        address[] claimer_addrs;\n        mapping(address => Claimer) claimers;\n    }\n\n    struct Creator {\n        string name;\n        address addr;\n        string message;\n    }\n\n    struct Claimer {\n        uint index;\n        string name;\n        uint claimed_time;\n        uint claimed_tokens;\n    }\n\n    event CreationSuccess(\n        uint total,\n        bytes32 id,\n        address creator,\n        uint creation_time,\n        address token_address\n    );\n\n    event ClaimSuccess(\n        bytes32 id,\n        address claimer,\n        uint claimed_value,\n        address token_address\n    );\n\n    event Failure(\n        bytes32 id,\n        bytes32 hash1,\n        bytes32 hash2\n    );\n    event RefundSuccess(\n        bytes32 id,\n        address token_address,\n        uint remaining_balance\n    );\n\n    uint nonce;\n    address contract_creator;\n    mapping(bytes32 => RedPacket) redpacket_by_id;\n    bytes32 [] redpackets;\n    string constant magic = \"Former National Basketball Association (NBA) Commissioner David Stern has died.\";\n    bytes32 private uuid;\n    // uint constant min_amount = 135000 * 15 * 10**9; // 0.002025 ETH\n\n    constructor() public {\n        contract_creator = msg.sender;\n        uuid = keccak256(abi.encodePacked(magic, now, contract_creator));\n    }\n\n    // Inits a red packet instance\n    // _token_type: 0 - ETH 1 - ERC20 2 - ERC721\n    function create_red_packet (bytes32[] memory _hashes, bool _ifrandom, uint _duration, \n                                bytes32 _seed, string memory _message, string memory _name,\n                                uint _token_type, address _token_addr, uint _total_tokens) \n    public payable {\n        nonce += 1;\n        require(nonce > redpackets.length, \"000 try again later\");\n\n        require(_total_tokens >= _hashes.length,\n                \"001 At least [number of red packets] tokens to your red packet.\");\n        require(_hashes.length > 0, \"002 At least 1 person can claim the red packet.\");\n\n        if (_token_type == 0)\n            require(msg.value >= _total_tokens, \"008 You have to send enough tokens.\");\n        else if (_token_type == 1) {\n            require(IERC20(_token_addr).allowance(msg.sender, address(this)) >= _total_tokens,\n                    \"009 You have to set enough allowance.\");\n            transfer_token(_token_type, _token_addr, msg.sender, address(this), _total_tokens);\n        }\n\n        bytes32 _id = keccak256(abi.encodePacked(msg.sender, now, nonce, uuid, _seed));\n        RedPacket storage rp = redpacket_by_id[_id];\n        rp.id = _id;\n        redpackets.push(rp.id);\n\n        rp.token_type = _token_type;\n        rp.token_address = _token_addr;\n\n        rp.total_number = _hashes.length;\n        rp.remaining_tokens = _total_tokens;\n\n        rp.creator.addr = msg.sender;\n        rp.creator.name = _name;\n        rp.creator.message = _message;\n\n        if (_duration == 0)\n            _duration = 86400; // 24hours\n        rp.expiration_time = now + _duration;\n\n        rp.claimed_number = 0;\n        rp.ifrandom = _ifrandom;\n        rp.hashes = _hashes;\n\n        uint rand_tokens;\n        uint total_tokens = rp.remaining_tokens;\n        uint MIN_AMOUNT = 1;\n        uint MAX_AMOUNT = total_tokens / rp.total_number * 2;\n        for (uint i = 0; i < rp.total_number; i++){\n            if (rp.ifrandom){\n                rand_tokens = random(rp.id, nonce+i) % total_tokens;\n                if (rand_tokens < MIN_AMOUNT) {\n                    rand_tokens = 1;\n                }\n                else if (rand_tokens > MAX_AMOUNT) {\n                    rand_tokens = MAX_AMOUNT;\n                }\n            }\n            else {\n                rand_tokens =  MAX_AMOUNT / 2;\n            }\n            rp.tokens.push(rand_tokens);\n            total_tokens -= rand_tokens;\n        }\n        // Last gets left\n        rp.tokens[rp.tokens.length-1] += total_tokens;\n        emit CreationSuccess(rp.remaining_tokens, rp.id, rp.creator.addr, now, rp.token_address);\n    }\n\n    // Check the balance of the given token\n    function transfer_token(uint token_type, address token_address, address sender_address,\n                            address recipient_address, uint amount) public payable{\n        // ERC20\n        if (token_type == 1) {\n            require(IERC20(token_address).balanceOf(sender_address) >= amount, \"Not enough\");\n            IERC20(token_address).approve(recipient_address, amount);\n            IERC20(token_address).transferFrom(sender_address, recipient_address, amount);\n        }\n    }\n\n    // An interactive way of generating randint\n    // This should be only used in claim()\n    // Pending on finding better ways\n    function random(bytes32 seed, uint nonce_rand) internal view returns (uint rand) {\n        return uint(keccak256(abi.encodePacked(nonce_rand, msg.sender, seed, now)));\n    }\n    \n    // https://ethereum.stackexchange.com/questions/884/how-to-convert-an-address-to-bytes-in-solidity\n    // 695 gas consumed\n    function toBytes(address a) public pure returns (bytes memory b) {\n        assembly {\n            let m := mload(0x40)\n            a := and(a, 0xFFFFFFFFFFFFFFFFFFFFFFFFFFFFFFFFFFFFFFFF)\n            mstore(add(m, 20), xor(0x140000000000000000000000000000000000000000, a))\n            mstore(0x40, add(m, 52))\n            b := m\n        }\n    }\n\n    // It takes the unhashed password and a hashed random seed generated from the user\n    function claim(bytes32 id, string memory password, address _recipient, bytes32 validation) \n    public returns (uint claimed) {\n        RedPacket storage rp = redpacket_by_id[id];\n        address payable recipient = address(uint160(_recipient));\n\n        // Unsuccessful\n        require (rp.expiration_time > now, \"003 Expired.\");\n        require (rp.claimed_number < rp.total_number, \"004 Out of Stock.\");\n        require (rp.claimers[recipient].claimed_tokens == 0, \"005 Already Claimed\");\n        require (keccak256(bytes(password)) == rp.hashes[rp.claimed_number], \"006 Wrong Password.\");\n        require (validation == keccak256(toBytes(msg.sender)), \"007 Validation Failed\");\n\n        // Store claimer info\n        rp.claimer_addrs.push(recipient);\n        // Claimer memory claimer = claimers[msg.sender];\n        uint claimed_tokens;\n        if (rp.ifrandom == true) {\n            claimed_tokens = rp.tokens[rp.claimed_number];\n        }\n        else {\n            claimed_tokens = rp.tokens[0];\n        }\n        rp.remaining_tokens -= claimed_tokens;\n        rp.claimers[recipient].index = rp.claimed_number;\n        rp.claimers[recipient].claimed_tokens = claimed_tokens;\n        rp.claimers[recipient].claimed_time = now;\n        rp.claimed_number ++;\n\n        // Transfer the red packet after state changing\n        if (rp.token_type == 0) {\n            recipient.transfer(claimed_tokens);\n        }\n        else if (rp.token_type == 1) {\n            transfer_token(rp.token_type, rp.token_address, address(this),\n                            recipient, claimed_tokens);\n        }\n\n        // Claim success event\n        emit ClaimSuccess(rp.id, recipient, claimed_tokens, rp.token_address);\n        return claimed_tokens;\n    }\n\n    // Returns 1. remaining value 2. total number of red packets 3. claimed number of red packets\n    function check_availability(bytes32 id) public view returns (address token_address, uint balance, \n                                                                uint total, uint claimed, bool expired) {\n        RedPacket storage rp = redpacket_by_id[id];\n        return (rp.token_address, rp.remaining_tokens, rp.total_number, rp.claimed_number, now > rp.expiration_time);\n    }\n\n    // Returns 1. a list of claimed values 2. a list of claimed addresses accordingly\n    function check_claimed_list(bytes32 id) \n    public view returns (uint[] memory claimed_list, address[] memory claimer_addrs) {\n        RedPacket storage rp = redpacket_by_id[id];\n        uint[] memory claimed_tokens = new uint[](rp.claimed_number);\n        for (uint i = 0; i < rp.claimed_number; i++){\n            claimed_tokens[i] = rp.claimers[rp.claimer_addrs[i]].claimed_tokens;\n        }\n        return (claimed_tokens, rp.claimer_addrs);\n    }\n\n    function refund(bytes32 id) public {\n        RedPacket storage rp = redpacket_by_id[id];\n        require(msg.sender == rp.creator.addr, \"008 Only the red packet creator can refund the money\");\n        require(rp.expiration_time < now, \"009 Disallowed until the expiration time has passed\");\n\n        emit RefundSuccess(rp.id, rp.token_address, rp.remaining_tokens);\n        if (rp.token_type == 0) {\n            msg.sender.transfer(rp.remaining_tokens);\n        }\n        else if (rp.token_type == 1) {\n            transfer_token(rp.token_type, rp.token_address, address(this),\n                            msg.sender, rp.remaining_tokens);\n        }\n    }\n\n    // One cannot send tokens to this contract after constructor anymore\n    // function () external payable {\n    // }\n}\n",
  "sourcePath": "/Users/yisiliu/Workspace/DimensionDev/RedPacket/test/contracts/redpacket.sol",
  "compiler": {
    "name": "solc",
    "version": "0.5.12+commit.7709ece9.Emscripten.clang"
  },
  "schemaVersion": "3.0.19",
  "updatedAt": "2020-01-03T04:16:34.670Z",
  "devdoc": {
    "methods": {}
  },
  "userdoc": {
    "methods": {}
  }
}