{
  "contractName": "RedPacket",
  "abi": [
    {
      "constant": true,
      "inputs": [
        {
          "name": "",
          "type": "uint256"
        }
      ],
      "name": "hashes",
      "outputs": [
        {
          "name": "",
          "type": "bytes32"
        }
      ],
      "payable": false,
      "stateMutability": "view",
      "type": "function"
    },
    {
      "constant": true,
      "inputs": [
        {
          "name": "",
          "type": "uint256"
        }
      ],
      "name": "claimers",
      "outputs": [
        {
          "name": "index",
          "type": "uint256"
        },
        {
          "name": "addr",
          "type": "address"
        },
        {
          "name": "claimed_amount",
          "type": "uint256"
        }
      ],
      "payable": false,
      "stateMutability": "view",
      "type": "function"
    },
    {
      "inputs": [
        {
          "name": "_hashes",
          "type": "bytes32[]"
        },
        {
          "name": "ifrandom",
          "type": "bool"
        }
      ],
      "payable": true,
      "stateMutability": "payable",
      "type": "constructor"
    },
    {
      "constant": false,
      "inputs": [
        {
          "name": "password",
          "type": "string"
        },
        {
          "name": "seed",
          "type": "bytes32"
        }
      ],
      "name": "claim",
      "outputs": [
        {
          "name": "",
          "type": "uint256"
        }
      ],
      "payable": false,
      "stateMutability": "nonpayable",
      "type": "function"
    },
    {
      "constant": true,
      "inputs": [],
      "name": "check_availability",
      "outputs": [
        {
          "name": "",
          "type": "uint256"
        }
      ],
      "payable": false,
      "stateMutability": "view",
      "type": "function"
    }
  ],
  "bytecode": "0x608060405260405161081d38038061081d8339810180604052604081101561002657600080fd5b81019080805164010000000081111561003e57600080fd5b8281019050602081018481111561005457600080fd5b815185602082028301116401000000008211171561007157600080fd5b5050929190602001805190602001909291905050506000341161009357600080fd5b60008251116100a157600080fd5b60405180602001604052806000815250600490805190602001906100c692919061019c565b50336000806101000a81548173ffffffffffffffffffffffffffffffffffffffff021916908373ffffffffffffffffffffffffffffffffffffffff160217905550600060028190555081516001819055503460038190555080600560006101000a81548160ff02191690831515021790555060008090505b60015481101561019457600683828151811061015657fe5b60200260200101519080600181540180825580915050906001820390600052602060002001600090919290919091505550808060010191505061013e565b505050610241565b828054600181600116156101000203166002900490600052602060002090601f016020900481019282601f106101dd57805160ff191683800117855561020b565b8280016001018555821561020b579182015b8281111561020a5782518255916020019190600101906101ef565b5b509050610218919061021c565b5090565b61023e91905b8082111561023a576000816000905550600101610222565b5090565b90565b6105cd806102506000396000f3fe608060405234801561001057600080fd5b506004361061004c5760003560e01c8063501895ae1461005157806360e02e1314610093578063795443f2146100b157806399ae559d1461018a575b600080fd5b61007d6004803603602081101561006757600080fd5b8101908080359060200190929190505050610206565b6040518082815260200191505060405180910390f35b61009b610227565b6040518082815260200191505060405180910390f35b610174600480360360408110156100c757600080fd5b81019080803590602001906401000000008111156100e457600080fd5b8201836020820111156100f657600080fd5b8035906020019184600183028401116401000000008311171561011857600080fd5b91908080601f016020809104026020016040519081016040528093929190818152602001838380828437600081840152601f19601f82011690508083019250505050505050919291929080359060200190929190505050610235565b6040518082815260200191505060405180910390f35b6101b6600480360360208110156101a057600080fd5b81019080803590602001909291905050506104d6565b604051808481526020018373ffffffffffffffffffffffffffffffffffffffff1673ffffffffffffffffffffffffffffffffffffffff168152602001828152602001935050505060405180910390f35b6006818154811061021357fe5b906000526020600020016000915090505481565b600060025460015403905090565b60006001805403600254111561024e57600090506104d0565b60008090505b6007805490508110156102ea576007818154811061026e57fe5b906000526020600020906003020160010160009054906101000a900473ffffffffffffffffffffffffffffffffffffffff1673ffffffffffffffffffffffffffffffffffffffff163373ffffffffffffffffffffffffffffffffffffffff1614156102dd5760009150506104d0565b8080600101915050610254565b506006600254815481106102fa57fe5b9060005260206000200154836040516020018080602001828103825283818151815260200191508051906020019080838360005b8381101561034957808201518184015260208101905061032e565b50505050905090810190601f1680156103765780820380516001836020036101000a031916815260200191505b50925050506040516020818303038152906040528051906020012014156104cb57600060016003546103a78561052d565b816103ae57fe5b060190503373ffffffffffffffffffffffffffffffffffffffff166108fc829081150290604051600060405180830381858888f193505050501580156103f8573d6000803e3d6000fd5b506002600081548092919060010191905055506007604051806060016040528060025481526020013373ffffffffffffffffffffffffffffffffffffffff16815260200183815250908060018154018082558091505090600182039060005260206000209060030201600090919290919091506000820151816000015560208201518160010160006101000a81548173ffffffffffffffffffffffffffffffffffffffff021916908373ffffffffffffffffffffffffffffffffffffffff16021790555060408201518160020155505050505b600190505b92915050565b600781815481106104e357fe5b90600052602060002090600302016000915090508060000154908060010160009054906101000a900473ffffffffffffffffffffffffffffffffffffffff16908060020154905083565b60006002543383604051602001808481526020018373ffffffffffffffffffffffffffffffffffffffff1673ffffffffffffffffffffffffffffffffffffffff1660601b815260140182815260200193505050506040516020818303038152906040528051906020012060001c905091905056fea165627a7a72305820cf5059eef984c2a35680824cc43a215ab98ab49dbfd6dcfb0134f35c93172bc40029",
  "source": "pragma solidity >0.4.22;\n\ncontract RedPacket{\n\n    struct Claimer{\n        uint index;\n        address addr; \n        uint claimed_amount;\n    }\n    \n    //1 ETH = 1000000000000000000(10^18) WEI\n    uint constant min_amount = 1000 * 1000;\n    uint constant max_amount = 1 * 10**18;\n\n    address creator;\n    uint total_number;\n    uint claimed_number; // nonce\n    uint remaining;\n    string claimed_list_str;\n    bool random;\n    bytes32[] public hashes;\n    Claimer[] public claimers;\n\n    // Inits a red packet instance\n    constructor (bytes32[] memory _hashes, bool ifrandom) public payable {\n        require(msg.value > 0);\n        require(_hashes.length > 0);\n\n        claimed_list_str = \"\";\n        creator = msg.sender;\n        claimed_number = 0;\n        total_number = _hashes.length;\n        remaining = msg.value;\n        random = ifrandom;\n        for (uint i = 0; i < total_number; i++){\n            hashes.push(_hashes[i]);\n        }\n    }\n\n    // Skeleton\n    // Here I am planning to adopt an interactive way of generating randint\n    // This should be only used in claim()\n    function random_amount(bytes32 seed) internal view returns (uint){\n        return uint(keccak256(abi.encodePacked(claimed_number, msg.sender, seed)));\n    }\n\n    // uint2str from https://github.com/provable-things/ethereum-api/blob/master/oraclizeAPI_0.5.sol\n    function uint2str(uint _i) internal pure returns (string memory _uintAsString) {\n        if (_i == 0) {\n            return \"0\";\n        }\n        uint j = _i;\n        uint len;\n        while (j != 0) {\n            len++;\n            j /= 10;\n        }\n        bytes memory bstr = new bytes(len);\n        uint k = len - 1;\n        while (_i != 0) {\n            bstr[k--] = byte(uint8(48 + _i % 10));\n            _i /= 10;\n        }\n        return string(bstr);\n    }\n\n    // address to string\n    function addr2str(address x) internal pure returns (string memory) {\n        bytes memory b = new bytes(20);\n        for (uint i = 0; i < 20; i++)\n            b[i] = byte(uint8(uint(x) / (2**(8*(19 - i)))));\n        return string(b);\n    }\n   \n    // It takes the unhashed password and a hashed random seed generated from the user\n    function claim(string memory password, bytes32 seed) public returns (uint){\n        // Unsuccessful\n        if (claimed_number > total_number-1){\n            return 0;\n        }\n        for (uint i = 0; i < claimers.length; i++){\n            // Bad bad\n            if (msg.sender == claimers[i].addr){\n                return 0;\n            }\n        }\n        if (keccak256(abi.encode(password)) == hashes[claimed_number]){\n            uint claimed_amount = random_amount(seed) % remaining + 1;  //[1,remaining]\n            msg.sender.transfer(claimed_amount);\n            claimed_number ++;\n            claimers.push(Claimer({index: claimed_number, addr: msg.sender, claimed_amount: claimed_amount}));\n            // Simple string concat is not supported in Solidity\n            // Pending feature\n            //claimed_list_str += addr2str(msg.sender) + \": \" + uint2str(claimed_amount) + \"\\n\";\n        }\n        return 1;\n    }\n    \n    // Returns 1. remaining number of red packets 2. claimed list\n    function check_availability() public view returns (uint){\n        return (total_number - claimed_number);\n    }\n}\n",
  "sourcePath": "/Users/yisiliu/WorkSpace/Dimension/RedPacket/test/contracts/redpacket.sol",
  "compiler": {
    "name": "solc",
    "version": "0.5.8+commit.23d335f2.Emscripten.clang"
  },
  "schemaVersion": "3.0.17",
  "updatedAt": "2019-11-14T06:18:08.411Z",
  "devdoc": {
    "methods": {}
  },
  "userdoc": {
    "methods": {}
  }
}