{
  "contractName": "RedPacket",
  "abi": [
    {
      "constant": true,
      "inputs": [
        {
          "name": "",
          "type": "uint256"
        }
      ],
      "name": "hashes",
      "outputs": [
        {
          "name": "",
          "type": "bytes32"
        }
      ],
      "payable": false,
      "stateMutability": "view",
      "type": "function"
    },
    {
      "constant": true,
      "inputs": [
        {
          "name": "",
          "type": "uint256"
        }
      ],
      "name": "claimers",
      "outputs": [
        {
          "name": "index",
          "type": "uint256"
        },
        {
          "name": "addr",
          "type": "address"
        },
        {
          "name": "claimed_value",
          "type": "uint256"
        },
        {
          "name": "claimed_time",
          "type": "uint256"
        }
      ],
      "payable": false,
      "stateMutability": "view",
      "type": "function"
    },
    {
      "inputs": [
        {
          "name": "_hashes",
          "type": "bytes32[]"
        },
        {
          "name": "ifrandom",
          "type": "bool"
        },
        {
          "name": "expiration_time",
          "type": "uint256"
        }
      ],
      "payable": true,
      "stateMutability": "payable",
      "type": "constructor"
    },
    {
      "anonymous": false,
      "inputs": [
        {
          "indexed": false,
          "name": "creator",
          "type": "address"
        },
        {
          "indexed": false,
          "name": "total",
          "type": "uint256"
        }
      ],
      "name": "CreationSuccess",
      "type": "event"
    },
    {
      "anonymous": false,
      "inputs": [
        {
          "indexed": false,
          "name": "claimer",
          "type": "address"
        },
        {
          "indexed": false,
          "name": "claimed_value",
          "type": "uint256"
        }
      ],
      "name": "ClaimSuccess",
      "type": "event"
    },
    {
      "anonymous": false,
      "inputs": [
        {
          "indexed": false,
          "name": "remaining_value",
          "type": "uint256"
        },
        {
          "indexed": false,
          "name": "remaining_number",
          "type": "uint256"
        }
      ],
      "name": "StatusCheck",
      "type": "event"
    },
    {
      "constant": false,
      "inputs": [
        {
          "name": "password",
          "type": "string"
        },
        {
          "name": "seed",
          "type": "bytes32"
        }
      ],
      "name": "claim",
      "outputs": [
        {
          "name": "",
          "type": "uint256"
        }
      ],
      "payable": false,
      "stateMutability": "nonpayable",
      "type": "function"
    },
    {
      "constant": true,
      "inputs": [],
      "name": "check_availability",
      "outputs": [
        {
          "name": "",
          "type": "uint256"
        },
        {
          "name": "",
          "type": "uint256"
        }
      ],
      "payable": false,
      "stateMutability": "view",
      "type": "function"
    }
  ],
  "bytecode": "0x6080604052604051610a27380380610a278339810180604052606081101561002657600080fd5b81019080805164010000000081111561003e57600080fd5b8281019050602081018481111561005457600080fd5b815185602082028301116401000000008211171561007157600080fd5b505092919060200180519060200190929190805190602001909291905050506000341161009d57600080fd5b60008351116100ab57600080fd5b4281116100b757600080fd5b8060028190555060405180602001604052806000815250600690805190602001906100e3929190610249565b5033600360006101000a81548173ffffffffffffffffffffffffffffffffffffffff021916908373ffffffffffffffffffffffffffffffffffffffff1602179055506000600581905550825160048190555034600181905550816000806101000a81548160ff02191690831515021790555060008090505b6004548110156101b157600784828151811061017357fe5b60200260200101519080600181540180825580915050906001820390600052602060002001600090919290919091505550808060010191505061015b565b507f4a26e62e0d4a26c1c3354f30b9803f4610e0cc2cdfb6036378b77af8e60b90b2600360009054906101000a900473ffffffffffffffffffffffffffffffffffffffff16600154604051808373ffffffffffffffffffffffffffffffffffffffff1673ffffffffffffffffffffffffffffffffffffffff1681526020018281526020019250505060405180910390a15050506102ee565b828054600181600116156101000203166002900490600052602060002090601f016020900481019282601f1061028a57805160ff19168380011785556102b8565b828001600101855582156102b8579182015b828111156102b757825182559160200191906001019061029c565b5b5090506102c591906102c9565b5090565b6102eb91905b808211156102e75760008160009055506001016102cf565b5090565b90565b61072a806102fd6000396000f3fe608060405234801561001057600080fd5b506004361061004c5760003560e01c8063501895ae1461005157806360e02e1314610093578063795443f2146100b857806399ae559d14610191575b600080fd5b61007d6004803603602081101561006757600080fd5b8101908080359060200190929190505050610214565b6040518082815260200191505060405180910390f35b61009b610235565b604051808381526020018281526020019250505060405180910390f35b61017b600480360360408110156100ce57600080fd5b81019080803590602001906401000000008111156100eb57600080fd5b8201836020820111156100fd57600080fd5b8035906020019184600183028401116401000000008311171561011f57600080fd5b91908080601f016020809104026020016040519081016040528093929190818152602001838380828437600081840152601f19601f8201169050808301925050505050505091929192908035906020019092919050505061024a565b6040518082815260200191505060405180910390f35b6101bd600480360360208110156101a757600080fd5b810190808035906020019092919050505061062d565b604051808581526020018473ffffffffffffffffffffffffffffffffffffffff1673ffffffffffffffffffffffffffffffffffffffff16815260200183815260200182815260200194505050505060405180910390f35b6007818154811061022157fe5b906000526020600020016000915090505481565b60008060015460055460045403915091509091565b6000600160045403600554116102c8576040517f08c379a000000000000000000000000000000000000000000000000000000000815260040180806020018281038252600d8152602001807f4f7574206f662053746f636b2e0000000000000000000000000000000000000081525060200191505060405180910390fd5b60008090505b6008805490508110156103c857600881815481106102e857fe5b906000526020600020906004020160010160009054906101000a900473ffffffffffffffffffffffffffffffffffffffff1673ffffffffffffffffffffffffffffffffffffffff163373ffffffffffffffffffffffffffffffffffffffff1614156103bb576040517f08c379a00000000000000000000000000000000000000000000000000000000081526004018080602001828103825260108152602001807f416c726561647920436c61696d65642e0000000000000000000000000000000081525060200191505060405180910390fd5b80806001019150506102ce565b506007600554815481106103d857fe5b9060005260206000200154836040516020018080602001828103825283818151815260200191508051906020019080838360005b8381101561042757808201518184015260208101905061040c565b50505050905090810190601f1680156104545780820380516001836020036101000a031916815260200191505b5092505050604051602081830303815290604052805190602001201415610623576000600180546104848561068a565b8161048b57fe5b060190503373ffffffffffffffffffffffffffffffffffffffff166108fc829081150290604051600060405180830381858888f193505050501580156104d5573d6000803e3d6000fd5b506005600081548092919060010191905055506008604051806080016040528060055481526020013373ffffffffffffffffffffffffffffffffffffffff16815260200183815260200142815250908060018154018082558091505090600182039060005260206000209060040201600090919290919091506000820151816000015560208201518160010160006101000a81548173ffffffffffffffffffffffffffffffffffffffff021916908373ffffffffffffffffffffffffffffffffffffffff16021790555060408201518160020155606082015181600301555050507fd4c9d8ecc8bf1be6dc655169b10dbe7d7f935d65175441b40c60e52e529818f33382604051808373ffffffffffffffffffffffffffffffffffffffff1673ffffffffffffffffffffffffffffffffffffffff1681526020018281526020019250505060405180910390a1505b6001905092915050565b6008818154811061063a57fe5b90600052602060002090600402016000915090508060000154908060010160009054906101000a900473ffffffffffffffffffffffffffffffffffffffff16908060020154908060030154905084565b60006005543383604051602001808481526020018373ffffffffffffffffffffffffffffffffffffffff1673ffffffffffffffffffffffffffffffffffffffff1660601b815260140182815260200193505050506040516020818303038152906040528051906020012060001c905091905056fea165627a7a72305820fbf916242ab7894f4c05a90a7d37c0e7824800e6e187907e7ee37def9945a3210029",
  "source": "pragma solidity >0.4.22;\n\ncontract RedPacket{\n\n    struct Claimer{\n        uint index;\n        address addr; \n        uint claimed_value;\n        uint claimed_time;\n    }\n\n    event CreationSuccess(\n        address creator,\n        uint total\n    );\n    \n    event ClaimSuccess(\n        address claimer,\n        uint claimed_value\n    );\n\n    event StatusCheck(\n        uint remaining_value,\n        uint remaining_number\n    );\n\n    //1 ETH = 1000000000000000000(10^18) WEI\n    uint constant min_amount = 1000 * 1000;\n    uint constant max_amount = 1 * 10**18;\n\n    bool random;\n    uint remaining_value;\n    uint expiration;\n    address creator;\n    uint total_number;\n    uint claimed_number; // nonce\n    string claimed_list_str;\n    bytes32[] public hashes;\n    Claimer[] public claimers;\n\n    // Inits a red packet instance\n    constructor (bytes32[] memory _hashes, bool ifrandom, uint expiration_time) public payable {\n        require(msg.value > 0);\n        require(_hashes.length > 0);\n        require(expiration_time > now);\n        \n        expiration = expiration_time;\n        claimed_list_str = \"\";\n        creator = msg.sender;\n        claimed_number = 0;\n        total_number = _hashes.length;\n        remaining_value = msg.value;\n        random = ifrandom;\n        for (uint i = 0; i < total_number; i++){\n            hashes.push(_hashes[i]);\n        }\n        emit CreationSuccess(creator, remaining_value);\n    }\n\n    // Skeleton\n    // Here I am planning to adopt an interactive way of generating randint\n    // This should be only used in claim()\n    function random_amount(bytes32 seed) internal view returns (uint){\n        return uint(keccak256(abi.encodePacked(claimed_number, msg.sender, seed)));\n    }\n\n    // uint2str from https://github.com/provable-things/ethereum-api/blob/master/oraclizeAPI_0.5.sol\n    function uint2str(uint _i) internal pure returns (string memory _uintAsString) {\n        if (_i == 0) {\n            return \"0\";\n        }\n        uint j = _i;\n        uint len;\n        while (j != 0) {\n            len++;\n            j /= 10;\n        }\n        bytes memory bstr = new bytes(len);\n        uint k = len - 1;\n        while (_i != 0) {\n            bstr[k--] = byte(uint8(48 + _i % 10));\n            _i /= 10;\n        }\n        return string(bstr);\n    }\n\n    // address to string\n    function addr2str(address x) internal pure returns (string memory) {\n        bytes memory b = new bytes(20);\n        for (uint i = 0; i < 20; i++)\n            b[i] = byte(uint8(uint(x) / (2**(8*(19 - i)))));\n        return string(b);\n    }\n   \n    // It takes the unhashed password and a hashed random seed generated from the user\n    function claim(string memory password, bytes32 seed) public returns (uint){\n        // Unsuccessful\n        require (claimed_number > total_number-1, \"Out of Stock.\");\n        for (uint i = 0; i < claimers.length; i++){\n            // Bad bad\n            require (msg.sender != claimers[i].addr, \"Already Claimed.\");\n        }\n        if (keccak256(abi.encode(password)) == hashes[claimed_number]){\n            uint claimed_value = random_amount(seed) % remaining_value + 1;  //[1,remaining_value]\n            msg.sender.transfer(claimed_value);\n            claimed_number ++;\n            claimers.push(Claimer({index: claimed_number, addr: msg.sender, claimed_value: claimed_value, claimed_time: now}));\n            // Simple string concat is not supported in Solidity\n            // Pending feature\n            //claimed_list_str += addr2str(msg.sender) + \": \" + uint2str(claimed_value) + \"\\n\";\n            emit ClaimSuccess(msg.sender, claimed_value);\n        }\n        return 1;\n    }\n    \n    // Returns 1. remaining number of red packets 2. claimed list\n    function check_availability() public view returns (uint, uint){\n        return (remaining_value, total_number - claimed_number);\n    }\n}\n",
  "sourcePath": "/Users/yisiliu/WorkSpace/Dimension/RedPacket/test/contracts/redpacket.sol",
  "compiler": {
    "name": "solc",
    "version": "0.5.8+commit.23d335f2.Emscripten.clang"
  },
  "schemaVersion": "3.0.17",
  "updatedAt": "2019-11-15T07:00:18.007Z",
  "devdoc": {
    "methods": {}
  },
  "userdoc": {
    "methods": {}
  }
}