{
  "_format": "hh-sol-artifact-1",
  "contractName": "HappyRedPacket_ERC721",
  "sourceName": "contracts/redpacket_erc721_support.sol",
  "abi": [
    {
      "anonymous": false,
      "inputs": [
        {
          "indexed": false,
          "internalType": "bytes32",
          "name": "id",
          "type": "bytes32"
        },
        {
          "indexed": false,
          "internalType": "address",
          "name": "claimer",
          "type": "address"
        },
        {
          "indexed": false,
          "internalType": "uint256",
          "name": "claimed_token_id",
          "type": "uint256"
        },
        {
          "indexed": false,
          "internalType": "address",
          "name": "token_address",
          "type": "address"
        }
      ],
      "name": "ClaimSuccess",
      "type": "event"
    },
    {
      "anonymous": false,
      "inputs": [
        {
          "indexed": false,
          "internalType": "uint256",
          "name": "total_tokens",
          "type": "uint256"
        },
        {
          "indexed": false,
          "internalType": "bytes32",
          "name": "id",
          "type": "bytes32"
        },
        {
          "indexed": false,
          "internalType": "string",
          "name": "name",
          "type": "string"
        },
        {
          "indexed": false,
          "internalType": "string",
          "name": "message",
          "type": "string"
        },
        {
          "indexed": false,
          "internalType": "address",
          "name": "creator",
          "type": "address"
        },
        {
          "indexed": false,
          "internalType": "uint256",
          "name": "creation_time",
          "type": "uint256"
        },
        {
          "indexed": false,
          "internalType": "address",
          "name": "token_address",
          "type": "address"
        },
        {
          "indexed": false,
          "internalType": "uint256",
          "name": "packet_number",
          "type": "uint256"
        },
        {
          "indexed": false,
          "internalType": "uint256",
          "name": "duration",
          "type": "uint256"
        },
        {
          "indexed": false,
          "internalType": "uint256[]",
          "name": "token_ids",
          "type": "uint256[]"
        }
      ],
      "name": "CreationSuccess",
      "type": "event"
    },
    {
      "anonymous": false,
      "inputs": [
        {
          "indexed": false,
          "internalType": "bytes32",
          "name": "id",
          "type": "bytes32"
        },
        {
          "indexed": false,
          "internalType": "address",
          "name": "token_address",
          "type": "address"
        },
        {
          "indexed": false,
          "internalType": "uint256",
          "name": "remaining_balance",
          "type": "uint256"
        },
        {
          "indexed": false,
          "internalType": "uint256[]",
          "name": "remaining_token_ids",
          "type": "uint256[]"
        }
      ],
      "name": "RefundSuccess",
      "type": "event"
    },
    {
      "inputs": [
        {
          "internalType": "bytes32",
          "name": "pkt_id",
          "type": "bytes32"
        }
      ],
      "name": "check_availability",
      "outputs": [
        {
          "internalType": "address",
          "name": "token_address",
          "type": "address"
        },
        {
          "internalType": "uint256",
          "name": "balance",
          "type": "uint256"
        },
        {
          "internalType": "uint256",
          "name": "total_pkts",
          "type": "uint256"
        },
        {
          "internalType": "uint256",
          "name": "claimed_pkts",
          "type": "uint256"
        },
        {
          "internalType": "bool",
          "name": "expired",
          "type": "bool"
        },
        {
          "internalType": "uint256",
          "name": "claimed_id",
          "type": "uint256"
        }
      ],
      "stateMutability": "view",
      "type": "function"
    },
    {
      "inputs": [
        {
          "internalType": "bytes32",
          "name": "id",
          "type": "bytes32"
        }
      ],
      "name": "check_claimed_id",
      "outputs": [
        {
          "internalType": "uint256",
          "name": "claimed_token_id",
          "type": "uint256"
        }
      ],
      "stateMutability": "view",
      "type": "function"
    },
    {
      "inputs": [
        {
          "internalType": "bytes32",
          "name": "id",
          "type": "bytes32"
        }
      ],
      "name": "check_erc721_remain_ids",
      "outputs": [
        {
          "internalType": "uint256",
          "name": "remaining_tokens",
          "type": "uint256"
        },
        {
          "internalType": "uint256[]",
          "name": "erc721_token_ids",
          "type": "uint256[]"
        }
      ],
      "stateMutability": "view",
      "type": "function"
    },
    {
      "inputs": [
        {
          "internalType": "bytes32",
          "name": "pkt_id",
          "type": "bytes32"
        },
        {
          "internalType": "bytes",
          "name": "signedMsg",
          "type": "bytes"
        },
        {
          "internalType": "address payable",
          "name": "recipient",
          "type": "address"
        }
      ],
      "name": "claim",
      "outputs": [
        {
          "internalType": "uint256",
          "name": "claimed",
          "type": "uint256"
        }
      ],
      "stateMutability": "nonpayable",
      "type": "function"
    },
    {
      "inputs": [
        {
          "internalType": "uint160",
          "name": "_public_key",
          "type": "uint160"
        },
        {
          "internalType": "uint256",
          "name": "_number",
          "type": "uint256"
        },
        {
          "internalType": "uint256",
          "name": "_duration",
          "type": "uint256"
        },
        {
          "internalType": "bytes32",
          "name": "_seed",
          "type": "bytes32"
        },
        {
          "internalType": "string",
          "name": "_message",
          "type": "string"
        },
        {
          "internalType": "string",
          "name": "_name",
          "type": "string"
        },
        {
          "internalType": "address",
          "name": "_token_addr",
          "type": "address"
        },
        {
          "internalType": "uint256",
          "name": "_total_tokens",
          "type": "uint256"
        },
        {
          "internalType": "uint256[]",
          "name": "_erc721_token_ids",
          "type": "uint256[]"
        }
      ],
      "name": "create_red_packet",
      "outputs": [],
      "stateMutability": "payable",
      "type": "function"
    },
    {
      "inputs": [],
      "name": "initialize",
      "outputs": [],
      "stateMutability": "nonpayable",
      "type": "function"
    },
    {
      "inputs": [
        {
          "internalType": "address",
          "name": "operator",
          "type": "address"
        },
        {
          "internalType": "address",
          "name": "from",
          "type": "address"
        },
        {
          "internalType": "uint256",
          "name": "tokenId",
          "type": "uint256"
        },
        {
          "internalType": "bytes",
          "name": "data",
          "type": "bytes"
        }
      ],
      "name": "onERC721Received",
      "outputs": [
        {
          "internalType": "bytes4",
          "name": "",
          "type": "bytes4"
        }
      ],
      "stateMutability": "nonpayable",
      "type": "function"
    },
    {
      "inputs": [
        {
          "internalType": "bytes32",
          "name": "id",
          "type": "bytes32"
        }
      ],
      "name": "refund",
      "outputs": [],
      "stateMutability": "nonpayable",
      "type": "function"
    }
  ],
  "bytecode": "0x608060405234801561001057600080fd5b50611d3b806100206000396000f3fe60806040526004361061007b5760003560e01c80637394ad931161004e5780637394ad93146101375780638129fc1c1461015757806386742de71461016c578063cfe45fc41461019a5761007b565b80630acfc7c514610080578063150b7a02146100b65780636bfdaece146100e35780637249fbb614610115575b600080fd5b34801561008c57600080fd5b506100a061009b366004611377565b6101ad565b6040516100ad9190611b2f565b60405180910390f35b3480156100c257600080fd5b506100d66100d13660046112bd565b6101d0565b6040516100ad91906116fe565b3480156100ef57600080fd5b506101036100fe366004611377565b6101e1565b6040516100ad96959493929190611657565b34801561012157600080fd5b50610135610130366004611377565b610291565b005b34801561014357600080fd5b506100a061015236600461138f565b610450565b34801561016357600080fd5b506101356107e6565b34801561017857600080fd5b5061018c610187366004611377565b610889565b6040516100ad929190611b38565b6101356101a83660046113fb565b61091a565b60008181526001602090815260408083203384526002019091529020545b919050565b630a85bd0160e11b95945050505050565b60008181526001602081815260408084208151808301909252805482529283015491810182905283928392839283928392909190610221908460a0610b74565b81516102309060a06060610b74565b610241836020015160f1600f610b74565b610252846020015160e2600f610b74565b610263856020015160c26020610b74565b3360009081526002909701602052604090962054939d929c50909a5098504293909311965094509092505050565b6000818152600160208181526040928390208351808501909452805480855292810154918401919091529190158015906102ce5750602081015115155b6102f35760405162461bcd60e51b81526004016102ea90611a5e565b60405180910390fd5b805161030290600060a0610b74565b33146103205760405162461bcd60e51b81526004016102ea90611ae8565b42610332826020015160c26020610b74565b11156103505760405162461bcd60e51b81526004016102ea90611828565b6000610363826000015160a06060610b74565b9050806103825760405162461bcd60e51b81526004016102ea90611a27565b60006103958360200151602260a0610b74565b90506000846003018054806020026020016040519081016040528092919081815260200182805480156103e757602002820191906000526020600020905b8154815260200190600101908083116103d3575b50506000808a5560018a0181905593945061040b9360038a019350915061111f9050565b7fcc3a8c63d1ae1003baaa7c9a9b1048e0933969e8a57a9cec65973e470b8f05db8683858460405161044094939291906116b3565b60405180910390a1505050505050565b600083815260016020818152604080842081518083018352815481529381015484840152600381018054835181860281018601909452808452919493869392908301828280156104bf57602002820191906000526020600020905b8154815260200190600101908083116104ab575b50505050509050426104d8836020015160c26020610b74565b116104f55760405162461bcd60e51b81526004016102ea90611b0e565b6000610508836020015160e2600f610b74565b9050600061051d846020015160f1600f610b74565b905080821061053e5760405162461bcd60e51b81526004016102ea906118bc565b60048501546001600160a01b03166105568982610baf565b6105725760405162461bcd60e51b81526004016102ea906119fa565b6000610585866000015160a06060610b74565b9050600061059a8760200151602260a0610b74565b90506000806105bb8885856105b68d60000151600060a0610b74565b610c3d565b9092509050876105cc600186611c22565b815181106105ea57634e487b7160e01b600052603260045260246000fd5b602002602001015188838151811061061257634e487b7160e01b600052603260045260246000fd5b602002602001018181525050878a600301908051906020019061063692919061113d565b5088516106519060a0606061064c600189611c22565b610d92565b8a5533600090815260028b016020526040902054156106825760405162461bcd60e51b81526004016102ea906119a9565b33600090815260028b01602090815260409091208290558901516106af9060e2600f61064c8b6001611c0a565b60018b01556040516331a9108f60e11b81526000906001600160a01b03851690636352211e906106e3908590600401611b2f565b60206040518083038186803b1580156106fb57600080fd5b505afa15801561070f573d6000803e3d6000fd5b505050506040513d601f19601f8201168201806040525081019061073391906112a1565b9050836001600160a01b03166342842e0e828f856040518463ffffffff1660e01b815260040161076593929190611633565b600060405180830381600087803b15801561077f57600080fd5b505af1158015610793573d6000803e3d6000fd5b505050507f358ddd686a5ca3ef6f8aee9b8d2dc3c642ecc278657c3802f8802b1a44c10e448f8e84876040516107cc949392919061168c565b60405180910390a1509d9c50505050505050505050505050565b600054610100900460ff16806107ff575060005460ff16155b61081b5760405162461bcd60e51b81526004016102ea90611919565b600054610100900460ff16158015610846576000805460ff1961ff0019909116610100171660011790555b423360405160200161085992919061159f565b60408051601f1981840301815291905280516020909101206002558015610886576000805461ff00191690555b50565b60008181526001602081815260408084208151808301909252805480835293810154928201929092526060926108c19060a085610b74565b6003830180546040805160208084028201810190925282815293975083018282801561090c57602002820191906000526020600020905b8154815260200190600101908083116108f8575b505050505092505050915091565b6000805462010000900463ffffffff1690600261093683611c80565b91906101000a81548163ffffffff021916908363ffffffff160217905550508782146109745760405162461bcd60e51b81526004016102ea906118e2565b600088116109945760405162461bcd60e51b81526004016102ea906117fa565b61010088106109b55760405162461bcd60e51b81526004016102ea90611ab8565b805182146109d55760405162461bcd60e51b81526004016102ea90611781565b60405163e985e9c560e01b81526001600160a01b0384169063e985e9c590610a039033903090600401611619565b60206040518083038186803b158015610a1b57600080fd5b505afa158015610a2f573d6000803e3d6000fd5b505050506040513d601f19601f82011682018060405250810190610a539190611357565b610a6f5760405162461bcd60e51b81526004016102ea90611851565b610a7a813385610da9565b60008054600254604051610aa492339242926201000090920463ffffffff16918c9060200161152e565b60408051601f198184030181529181528151602092830120600081815260019093529120909150610ad484610ea6565b8155610ae1858a8c610eca565b60018201558251610afb906003830190602086019061113d565b5060040180546001600160a01b0319166001600160a01b038c16179055604051899089907ff4b2c983c5d251c8c90b0e6c5dcafb3e3f3d40e93b6f9298ff39b7ea4c5001b290610b5e90879086908b908d90339042908e908b908b908f90611b59565b60405180910390a1505050505050505050505050565b6000610b8261010085610f20565b610b9e5760405162461bcd60e51b81526004016102ea9061174a565b50600019600190911b0191901c1690565b6000806040518060400160405280601c81526020017f19457468657265756d205369676e6564204d6573736167653a0a323000000000815250905060008133604051602001610bff92919061156d565b6040516020818303038152906040528051906020012090506000610c238287610f2f565b6001600160a01b0390811690861614935050505092915050565b60008060008086610c62600254600060029054906101000a900463ffffffff16610fb5565b610c6c9190611ca4565b9150878281518110610c8e57634e487b7160e01b600052603260045260246000fd5b602002602001015190505b846001600160a01b0316866001600160a01b0316636352211e836040518263ffffffff1660e01b8152600401610ccf9190611b2f565b60206040518083038186803b158015610ce757600080fd5b505afa158015610cfb573d6000803e3d6000fd5b505050506040513d601f19601f82011682018060405250810190610d1f91906112a1565b6001600160a01b031614610d85576002546000548891610d4a9162010000900463ffffffff16610fb5565b610d549190611ca4565b9150878281518110610d7657634e487b7160e01b600052603260045260246000fd5b60200260200101519050610c99565b9097909650945050505050565b821b600190911b6000190190911b19919091161790565b60005b8351811015610ea0576000826001600160a01b0316636352211e868481518110610de657634e487b7160e01b600052603260045260246000fd5b60200260200101516040518263ffffffff1660e01b8152600401610e0a9190611b2f565b60206040518083038186803b158015610e2257600080fd5b505afa158015610e36573d6000803e3d6000fd5b505050506040513d601f19601f82011682018060405250810190610e5a91906112a1565b9050836001600160a01b0316816001600160a01b031614610e8d5760405162461bcd60e51b81526004016102ea906119d2565b5080610e9881611c65565b915050610dac565b50505050565b600080610eb58160a033610ff8565b17610ec360a0606085610ff8565b1792915050565b600080610ee3602260a06001600160a01b038816610ff8565b17610efa60c26020610ef58742611c0a565b610ff8565b17610f0960e2600f6000610ff8565b17610f1760f1600f85610ff8565b17949350505050565b6101008214600190921b111790565b600080600080845160411415610f595750505060208201516040830151606084015160001a610f9f565b845160401415610f875750505060408201516020830151906001600160ff1b0381169060ff1c601b01610f9f565b60405162461bcd60e51b81526004016102ea906117c3565b610fab86828585611029565b9695505050505050565b600081338442604051602001610fce94939291906115e2565b60408051601f198184030181529190528051602090910120610ff1906001611c0a565b9392505050565b60006110048383610f20565b6110205760405162461bcd60e51b81526004016102ea90611a88565b5090911b919050565b60007f7fffffffffffffffffffffffffffffff5d576e7357a4501ddfe92f46681b20a082111561106b5760405162461bcd60e51b81526004016102ea9061187a565b8360ff16601b148061108057508360ff16601c145b61109c5760405162461bcd60e51b81526004016102ea90611967565b6000600186868686604051600081526020016040526040516110c194939291906116e0565b6020604051602081039080840390855afa1580156110e3573d6000803e3d6000fd5b5050604051601f1901519150506001600160a01b0381166111165760405162461bcd60e51b81526004016102ea90611713565b95945050505050565b50805460008255906000526020600020908101906108869190611188565b828054828255906000526020600020908101928215611178579160200282015b8281111561117857825182559160200191906001019061115d565b50611184929150611188565b5090565b5b808211156111845760008155600101611189565b600067ffffffffffffffff8311156111b7576111b7611cda565b6111ca601f8401601f1916602001611be0565b90508281528383830111156111de57600080fd5b828260208301376000602084830101529392505050565b80356101cb81611cf0565b600082601f830112611210578081fd5b8135602067ffffffffffffffff82111561122c5761122c611cda565b80820261123a828201611be0565b838152828101908684018388018501891015611254578687fd5b8693505b85841015611276578035835260019390930192918401918401611258565b50979650505050505050565b600082601f830112611292578081fd5b610ff18383356020850161119d565b6000602082840312156112b2578081fd5b8151610ff181611cf0565b6000806000806000608086880312156112d4578081fd5b85356112df81611cf0565b945060208601356112ef81611cf0565b935060408601359250606086013567ffffffffffffffff80821115611312578283fd5b818801915088601f830112611325578283fd5b813581811115611333578384fd5b896020828501011115611344578384fd5b9699959850939650602001949392505050565b600060208284031215611368578081fd5b81518015158114610ff1578182fd5b600060208284031215611388578081fd5b5035919050565b6000806000606084860312156113a3578283fd5b83359250602084013567ffffffffffffffff8111156113c0578283fd5b8401601f810186136113d0578283fd5b6113df8682356020840161119d565b92505060408401356113f081611cf0565b809150509250925092565b60008060008060008060008060006101208a8c031215611419578384fd5b6114228a6111f5565b985060208a0135975060408a0135965060608a0135955060808a013567ffffffffffffffff80821115611453578586fd5b61145f8d838e01611282565b965060a08c0135915080821115611474578586fd5b6114808d838e01611282565b955061148e60c08d016111f5565b945060e08c013593506101008c01359150808211156114ab578283fd5b506114b88c828d01611200565b9150509295985092959850929598565b6000815180845260208085019450808401835b838110156114f7578151875295820195908201906001016114db565b509495945050505050565b6000815180845261151a816020860160208601611c39565b601f01601f19169290920160200192915050565b60609590951b6001600160601b0319168552601485019390935260e09190911b6001600160e01b03191660348401526038830152605882015260780190565b6000835161157f818460208801611c39565b60609390931b6001600160601b0319169190920190815260140192915050565b7f466f726d6572204e424120436f6d6d697373696f6e65722044617669642053748152602081019290925260601b6001600160601b031916604082015260540190565b60e09490941b6001600160e01b031916845260609290921b6001600160601b03191660048401526018830152603882015260580190565b6001600160a01b0392831681529116602082015260400190565b6001600160a01b039384168152919092166020820152604081019190915260600190565b6001600160a01b039690961686526020860194909452604085019290925260608401521515608083015260a082015260c00190565b9384526001600160a01b039283166020850152604084019190915216606082015260800190565b600085825260018060a01b038516602083015283604083015260806060830152610fab60808301846114c8565b93845260ff9290921660208401526040830152606082015260800190565b6001600160e01b031991909116815260200190565b60208082526018908201527f45434453413a20696e76616c6964207369676e61747572650000000000000000604082015260600190565b60208082526018908201527f56616c7565206f7574206f662072616e676520554e424f580000000000000000604082015260600190565b60208082526022908201527f4e6f20656e6f756768206572633732315f746f6b656e5f69642070726f766964604082015261195960f21b606082015260800190565b6020808252601f908201527f45434453413a20696e76616c6964207369676e6174757265206c656e67746800604082015260600190565b602080825260149082015273105d081b19585cdd080c481c9958da5c1a595b9d60621b604082015260600190565b6020808252600f908201526e139bdd08195e1c1a5c9959081e595d608a1b604082015260600190565b6020808252600f908201526e139bc8185c1c1c9bdd9959081e595d608a1b604082015260600190565b60208082526022908201527f45434453413a20696e76616c6964207369676e6174757265202773272076616c604082015261756560f01b606082015260800190565b6020808252600c908201526b4f7574206f662073746f636b60a01b604082015260600190565b6020808252601a908201527f726571756972652023746f6b656e73203d20237061636b657473000000000000604082015260600190565b6020808252602e908201527f496e697469616c697a61626c653a20636f6e747261637420697320616c72656160408201526d191e481a5b9a5d1a585b1a5e995960921b606082015260800190565b60208082526022908201527f45434453413a20696e76616c6964207369676e6174757265202776272076616c604082015261756560f01b606082015260800190565b6020808252600f908201526e105b1c9958591e4818db185a5b5959608a1b604082015260600190565b6020808252600e908201526d2737ba103cb7bab9103a37b5b2b760911b604082015260600190565b6020808252601390820152721d995c9a599a58d85d1a5bdb8819985a5b1959606a1b604082015260600190565b6020808252601b908201527f4e6f6e65206c65667420696e2074686520726564207061636b65740000000000604082015260600190565b60208082526010908201526f105b1c9958591e481499599d5b99195960821b604082015260600190565b6020808252601690820152750acc2d8eaca40deeae840decc40e4c2dcceca40849eb60531b604082015260600190565b6020808252601690820152754174206d6f73742032353520726563697069656e747360501b604082015260600190565b6020808252600c908201526b43726561746f72204f6e6c7960a01b604082015260600190565b602080825260079082015266115e1c1a5c995960ca1b604082015260600190565b90815260200190565b600083825260406020830152611b5160408301846114c8565b949350505050565b60006101408c83528b6020840152806040840152611b798184018c611502565b90508281036060840152611b8d818b611502565b6001600160a01b038a8116608086015260a085018a9052881660c085015260e0840187905261010084018690528381036101208501529050611bcf81856114c8565b9d9c50505050505050505050505050565b60405181810167ffffffffffffffff81118282101715611c0257611c02611cda565b604052919050565b60008219821115611c1d57611c1d611cc4565b500190565b600082821015611c3457611c34611cc4565b500390565b60005b83811015611c54578181015183820152602001611c3c565b83811115610ea05750506000910152565b6000600019821415611c7957611c79611cc4565b5060010190565b600063ffffffff80831681811415611c9a57611c9a611cc4565b6001019392505050565b600082611cbf57634e487b7160e01b81526012600452602481fd5b500690565b634e487b7160e01b600052601160045260246000fd5b634e487b7160e01b600052604160045260246000fd5b6001600160a01b038116811461088657600080fdfea264697066735822122081259cc3548fb898225d3c09bcb8a41b6c8de27fd8c085e3a4adcc8ae36e424864736f6c63430008000033",
  "linkReferences": {},
  "deployedLinkReferences": {}
}