{
  "_format": "hh-sol-artifact-1",
  "contractName": "HappyRedPacket_ERC721",
  "sourceName": "contracts/redpacket_erc721_support.sol",
  "abi": [
    {
      "anonymous": false,
      "inputs": [
        {
          "indexed": false,
          "internalType": "bytes32",
          "name": "id",
          "type": "bytes32"
        },
        {
          "indexed": false,
          "internalType": "address",
          "name": "claimer",
          "type": "address"
        },
        {
          "indexed": false,
          "internalType": "uint256",
          "name": "claimed_token_id",
          "type": "uint256"
        },
        {
          "indexed": false,
          "internalType": "address",
          "name": "token_address",
          "type": "address"
        }
      ],
      "name": "ClaimSuccess",
      "type": "event"
    },
    {
      "anonymous": false,
      "inputs": [
        {
          "indexed": false,
          "internalType": "uint256",
          "name": "total_tokens",
          "type": "uint256"
        },
        {
          "indexed": false,
          "internalType": "bytes32",
          "name": "id",
          "type": "bytes32"
        },
        {
          "indexed": false,
          "internalType": "string",
          "name": "name",
          "type": "string"
        },
        {
          "indexed": false,
          "internalType": "string",
          "name": "message",
          "type": "string"
        },
        {
          "indexed": false,
          "internalType": "address",
          "name": "creator",
          "type": "address"
        },
        {
          "indexed": false,
          "internalType": "uint256",
          "name": "creation_time",
          "type": "uint256"
        },
        {
          "indexed": false,
          "internalType": "address",
          "name": "token_address",
          "type": "address"
        },
        {
          "indexed": false,
          "internalType": "uint256",
          "name": "packet_number",
          "type": "uint256"
        },
        {
          "indexed": false,
          "internalType": "uint256",
          "name": "duration",
          "type": "uint256"
        },
        {
          "indexed": false,
          "internalType": "uint256[]",
          "name": "token_ids",
          "type": "uint256[]"
        }
      ],
      "name": "CreationSuccess",
      "type": "event"
    },
    {
      "anonymous": false,
      "inputs": [
        {
          "indexed": false,
          "internalType": "bytes32",
          "name": "id",
          "type": "bytes32"
        },
        {
          "indexed": false,
          "internalType": "address",
          "name": "token_address",
          "type": "address"
        },
        {
          "indexed": false,
          "internalType": "uint256",
          "name": "remaining_balance",
          "type": "uint256"
        },
        {
          "indexed": false,
          "internalType": "uint256[]",
          "name": "remaining_token_ids",
          "type": "uint256[]"
        }
      ],
      "name": "RefundSuccess",
      "type": "event"
    },
    {
      "inputs": [
        {
          "internalType": "bytes32",
          "name": "pkt_id",
          "type": "bytes32"
        }
      ],
      "name": "check_availability",
      "outputs": [
        {
          "internalType": "address",
          "name": "token_address",
          "type": "address"
        },
        {
          "internalType": "uint256",
          "name": "balance",
          "type": "uint256"
        },
        {
          "internalType": "uint256",
          "name": "total_pkts",
          "type": "uint256"
        },
        {
          "internalType": "uint256",
          "name": "claimed_pkts",
          "type": "uint256"
        },
        {
          "internalType": "bool",
          "name": "expired",
          "type": "bool"
        },
        {
          "internalType": "uint256",
          "name": "claimed_id",
          "type": "uint256"
        }
      ],
      "stateMutability": "view",
      "type": "function"
    },
    {
      "inputs": [
        {
          "internalType": "bytes32",
          "name": "id",
          "type": "bytes32"
        }
      ],
      "name": "check_claimed_id",
      "outputs": [
        {
          "internalType": "uint256",
          "name": "claimed_token_id",
          "type": "uint256"
        }
      ],
      "stateMutability": "view",
      "type": "function"
    },
    {
      "inputs": [
        {
          "internalType": "bytes32",
          "name": "id",
          "type": "bytes32"
        }
      ],
      "name": "check_erc721_remain_ids",
      "outputs": [
        {
          "internalType": "uint256",
          "name": "remaining_tokens",
          "type": "uint256"
        },
        {
          "internalType": "uint256[]",
          "name": "erc721_token_ids",
          "type": "uint256[]"
        }
      ],
      "stateMutability": "view",
      "type": "function"
    },
    {
      "inputs": [
        {
          "internalType": "bytes32",
          "name": "pkt_id",
          "type": "bytes32"
        },
        {
          "internalType": "bytes",
          "name": "signedMsg",
          "type": "bytes"
        },
        {
          "internalType": "address payable",
          "name": "recipient",
          "type": "address"
        }
      ],
      "name": "claim",
      "outputs": [
        {
          "internalType": "uint256",
          "name": "claimed",
          "type": "uint256"
        }
      ],
      "stateMutability": "nonpayable",
      "type": "function"
    },
    {
      "inputs": [
        {
          "internalType": "uint160",
          "name": "_public_key",
          "type": "uint160"
        },
        {
          "internalType": "uint256",
          "name": "_number",
          "type": "uint256"
        },
        {
          "internalType": "uint256",
          "name": "_duration",
          "type": "uint256"
        },
        {
          "internalType": "bytes32",
          "name": "_seed",
          "type": "bytes32"
        },
        {
          "internalType": "string",
          "name": "_message",
          "type": "string"
        },
        {
          "internalType": "string",
          "name": "_name",
          "type": "string"
        },
        {
          "internalType": "address",
          "name": "_token_addr",
          "type": "address"
        },
        {
          "internalType": "uint256",
          "name": "_total_tokens",
          "type": "uint256"
        },
        {
          "internalType": "uint256[]",
          "name": "_erc721_token_ids",
          "type": "uint256[]"
        }
      ],
      "name": "create_red_packet",
      "outputs": [],
      "stateMutability": "payable",
      "type": "function"
    },
    {
      "inputs": [],
      "name": "initialize",
      "outputs": [],
      "stateMutability": "nonpayable",
      "type": "function"
    },
    {
      "inputs": [
        {
          "internalType": "address",
          "name": "operator",
          "type": "address"
        },
        {
          "internalType": "address",
          "name": "from",
          "type": "address"
        },
        {
          "internalType": "uint256",
          "name": "tokenId",
          "type": "uint256"
        },
        {
          "internalType": "bytes",
          "name": "data",
          "type": "bytes"
        }
      ],
      "name": "onERC721Received",
      "outputs": [
        {
          "internalType": "bytes4",
          "name": "",
          "type": "bytes4"
        }
      ],
      "stateMutability": "nonpayable",
      "type": "function"
    },
    {
      "inputs": [
        {
          "internalType": "bytes32",
          "name": "id",
          "type": "bytes32"
        }
      ],
      "name": "refund",
      "outputs": [],
      "stateMutability": "nonpayable",
      "type": "function"
    }
  ],
  "bytecode": "0x608060405234801561001057600080fd5b50611d3c806100206000396000f3fe60806040526004361061007b5760003560e01c80637394ad931161004e5780637394ad93146101375780638129fc1c1461015757806386742de71461016c578063cfe45fc41461019a5761007b565b80630acfc7c514610080578063150b7a02146100b65780636bfdaece146100e35780637249fbb614610115575b600080fd5b34801561008c57600080fd5b506100a061009b366004611378565b6101ad565b6040516100ad9190611b30565b60405180910390f35b3480156100c257600080fd5b506100d66100d13660046112be565b6101d0565b6040516100ad91906116ff565b3480156100ef57600080fd5b506101036100fe366004611378565b6101e1565b6040516100ad96959493929190611658565b34801561012157600080fd5b50610135610130366004611378565b610291565b005b34801561014357600080fd5b506100a0610152366004611390565b610450565b34801561016357600080fd5b506101356107e6565b34801561017857600080fd5b5061018c610187366004611378565b610889565b6040516100ad929190611b39565b6101356101a83660046113fc565b61091a565b60008181526001602090815260408083203384526002019091529020545b919050565b630a85bd0160e11b95945050505050565b60008181526001602081815260408084208151808301909252805482529283015491810182905283928392839283928392909190610221908460a0610b74565b81516102309060a06060610b74565b610241836020015160f1600f610b74565b610252846020015160e2600f610b74565b610263856020015160c26020610b74565b3360009081526002909701602052604090962054939d929c50909a5098504293909311965094509092505050565b6000818152600160208181526040928390208351808501909452805480855292810154918401919091529190158015906102ce5750602081015115155b6102f35760405162461bcd60e51b81526004016102ea90611a5f565b60405180910390fd5b805161030290600060a0610b74565b33146103205760405162461bcd60e51b81526004016102ea90611ae9565b42610332826020015160c26020610b74565b11156103505760405162461bcd60e51b81526004016102ea90611829565b6000610363826000015160a06060610b74565b9050806103825760405162461bcd60e51b81526004016102ea90611a28565b60006103958360200151602260a0610b74565b90506000846003018054806020026020016040519081016040528092919081815260200182805480156103e757602002820191906000526020600020905b8154815260200190600101908083116103d3575b50506000808a5560018a0181905593945061040b9360038a01935091506111209050565b7fcc3a8c63d1ae1003baaa7c9a9b1048e0933969e8a57a9cec65973e470b8f05db8683858460405161044094939291906116b4565b60405180910390a1505050505050565b600083815260016020818152604080842081518083018352815481529381015484840152600381018054835181860281018601909452808452919493869392908301828280156104bf57602002820191906000526020600020905b8154815260200190600101908083116104ab575b50505050509050426104d8836020015160c26020610b74565b116104f55760405162461bcd60e51b81526004016102ea90611b0f565b6000610508836020015160e2600f610b74565b9050600061051d846020015160f1600f610b74565b905080821061053e5760405162461bcd60e51b81526004016102ea906118bd565b60048501546001600160a01b03166105568982610baf565b6105725760405162461bcd60e51b81526004016102ea906119fb565b6000610585866000015160a06060610b74565b9050600061059a8760200151602260a0610b74565b90506000806105bb8885856105b68d60000151600060a0610b74565b610c3d565b9092509050876105cc600186611c23565b815181106105ea57634e487b7160e01b600052603260045260246000fd5b602002602001015188838151811061061257634e487b7160e01b600052603260045260246000fd5b602002602001018181525050878a600301908051906020019061063692919061113e565b5088516106519060a0606061064c600189611c23565b610d93565b8a5533600090815260028b016020526040902054156106825760405162461bcd60e51b81526004016102ea906119aa565b33600090815260028b01602090815260409091208290558901516106af9060e2600f61064c8b6001611c0b565b60018b01556040516331a9108f60e11b81526000906001600160a01b03851690636352211e906106e3908590600401611b30565b60206040518083038186803b1580156106fb57600080fd5b505afa15801561070f573d6000803e3d6000fd5b505050506040513d601f19601f8201168201806040525081019061073391906112a2565b9050836001600160a01b03166342842e0e828f856040518463ffffffff1660e01b815260040161076593929190611634565b600060405180830381600087803b15801561077f57600080fd5b505af1158015610793573d6000803e3d6000fd5b505050507f358ddd686a5ca3ef6f8aee9b8d2dc3c642ecc278657c3802f8802b1a44c10e448f8e84876040516107cc949392919061168d565b60405180910390a1509d9c50505050505050505050505050565b600054610100900460ff16806107ff575060005460ff16155b61081b5760405162461bcd60e51b81526004016102ea9061191a565b600054610100900460ff16158015610846576000805460ff1961ff0019909116610100171660011790555b42336040516020016108599291906115a0565b60408051601f1981840301815291905280516020909101206002558015610886576000805461ff00191690555b50565b60008181526001602081815260408084208151808301909252805480835293810154928201929092526060926108c19060a085610b74565b6003830180546040805160208084028201810190925282815293975083018282801561090c57602002820191906000526020600020905b8154815260200190600101908083116108f8575b505050505092505050915091565b6000805462010000900463ffffffff1690600261093683611c81565b91906101000a81548163ffffffff021916908363ffffffff160217905550508782146109745760405162461bcd60e51b81526004016102ea906118e3565b600088116109945760405162461bcd60e51b81526004016102ea906117fb565b61010088106109b55760405162461bcd60e51b81526004016102ea90611ab9565b805182146109d55760405162461bcd60e51b81526004016102ea90611782565b60405163e985e9c560e01b81526001600160a01b0384169063e985e9c590610a03903390309060040161161a565b60206040518083038186803b158015610a1b57600080fd5b505afa158015610a2f573d6000803e3d6000fd5b505050506040513d601f19601f82011682018060405250810190610a539190611358565b610a6f5760405162461bcd60e51b81526004016102ea90611852565b610a7a813385610daa565b60008054600254604051610aa492339242926201000090920463ffffffff16918c9060200161152f565b60408051601f198184030181529181528151602092830120600081815260019093529120909150610ad484610ea7565b8155610ae1858a8c610ecb565b60018201558251610afb906003830190602086019061113e565b5060040180546001600160a01b0319166001600160a01b038c16179055604051899089907ff4b2c983c5d251c8c90b0e6c5dcafb3e3f3d40e93b6f9298ff39b7ea4c5001b290610b5e90879086908b908d90339042908e908b908b908f90611b5a565b60405180910390a1505050505050505050505050565b6000610b8261010085610f21565b610b9e5760405162461bcd60e51b81526004016102ea9061174b565b50600019600190911b0191901c1690565b6000806040518060400160405280601c81526020017f19457468657265756d205369676e6564204d6573736167653a0a323000000000815250905060008133604051602001610bff92919061156e565b6040516020818303038152906040528051906020012090506000610c238287610f30565b6001600160a01b0390811690861614935050505092915050565b600080600085610c61600254600060029054906101000a900463ffffffff16610fb6565b610c6b9190611ca5565b90506000878281518110610c8f57634e487b7160e01b600052603260045260246000fd5b602002602001015190505b846001600160a01b0316866001600160a01b0316636352211e836040518263ffffffff1660e01b8152600401610cd09190611b30565b60206040518083038186803b158015610ce857600080fd5b505afa158015610cfc573d6000803e3d6000fd5b505050506040513d601f19601f82011682018060405250810190610d2091906112a2565b6001600160a01b031614610d86576002546000548891610d4b9162010000900463ffffffff16610fb6565b610d559190611ca5565b9150878281518110610d7757634e487b7160e01b600052603260045260246000fd5b60200260200101519050610c9a565b9097909650945050505050565b821b600190911b6000190190911b19919091161790565b60005b8351811015610ea1576000826001600160a01b0316636352211e868481518110610de757634e487b7160e01b600052603260045260246000fd5b60200260200101516040518263ffffffff1660e01b8152600401610e0b9190611b30565b60206040518083038186803b158015610e2357600080fd5b505afa158015610e37573d6000803e3d6000fd5b505050506040513d601f19601f82011682018060405250810190610e5b91906112a2565b9050836001600160a01b0316816001600160a01b031614610e8e5760405162461bcd60e51b81526004016102ea906119d3565b5080610e9981611c66565b915050610dad565b50505050565b600080610eb68160a033610ff9565b17610ec460a0606085610ff9565b1792915050565b600080610ee4602260a06001600160a01b038816610ff9565b17610efb60c26020610ef68742611c0b565b610ff9565b17610f0a60e2600f6000610ff9565b17610f1860f1600f85610ff9565b17949350505050565b6101008214600190921b111790565b600080600080845160411415610f5a5750505060208201516040830151606084015160001a610fa0565b845160401415610f885750505060408201516020830151906001600160ff1b0381169060ff1c601b01610fa0565b60405162461bcd60e51b81526004016102ea906117c4565b610fac8682858561102a565b9695505050505050565b600081338442604051602001610fcf94939291906115e3565b60408051601f198184030181529190528051602090910120610ff2906001611c0b565b9392505050565b60006110058383610f21565b6110215760405162461bcd60e51b81526004016102ea90611a89565b5090911b919050565b60007f7fffffffffffffffffffffffffffffff5d576e7357a4501ddfe92f46681b20a082111561106c5760405162461bcd60e51b81526004016102ea9061187b565b8360ff16601b148061108157508360ff16601c145b61109d5760405162461bcd60e51b81526004016102ea90611968565b6000600186868686604051600081526020016040526040516110c294939291906116e1565b6020604051602081039080840390855afa1580156110e4573d6000803e3d6000fd5b5050604051601f1901519150506001600160a01b0381166111175760405162461bcd60e51b81526004016102ea90611714565b95945050505050565b50805460008255906000526020600020908101906108869190611189565b828054828255906000526020600020908101928215611179579160200282015b8281111561117957825182559160200191906001019061115e565b50611185929150611189565b5090565b5b80821115611185576000815560010161118a565b600067ffffffffffffffff8311156111b8576111b8611cdb565b6111cb601f8401601f1916602001611be1565b90508281528383830111156111df57600080fd5b828260208301376000602084830101529392505050565b80356101cb81611cf1565b600082601f830112611211578081fd5b8135602067ffffffffffffffff82111561122d5761122d611cdb565b80820261123b828201611be1565b838152828101908684018388018501891015611255578687fd5b8693505b85841015611277578035835260019390930192918401918401611259565b50979650505050505050565b600082601f830112611293578081fd5b610ff28383356020850161119e565b6000602082840312156112b3578081fd5b8151610ff281611cf1565b6000806000806000608086880312156112d5578081fd5b85356112e081611cf1565b945060208601356112f081611cf1565b935060408601359250606086013567ffffffffffffffff80821115611313578283fd5b818801915088601f830112611326578283fd5b813581811115611334578384fd5b896020828501011115611345578384fd5b9699959850939650602001949392505050565b600060208284031215611369578081fd5b81518015158114610ff2578182fd5b600060208284031215611389578081fd5b5035919050565b6000806000606084860312156113a4578283fd5b83359250602084013567ffffffffffffffff8111156113c1578283fd5b8401601f810186136113d1578283fd5b6113e08682356020840161119e565b92505060408401356113f181611cf1565b809150509250925092565b60008060008060008060008060006101208a8c03121561141a578384fd5b6114238a6111f6565b985060208a0135975060408a0135965060608a0135955060808a013567ffffffffffffffff80821115611454578586fd5b6114608d838e01611283565b965060a08c0135915080821115611475578586fd5b6114818d838e01611283565b955061148f60c08d016111f6565b945060e08c013593506101008c01359150808211156114ac578283fd5b506114b98c828d01611201565b9150509295985092959850929598565b6000815180845260208085019450808401835b838110156114f8578151875295820195908201906001016114dc565b509495945050505050565b6000815180845261151b816020860160208601611c3a565b601f01601f19169290920160200192915050565b60609590951b6001600160601b0319168552601485019390935260e09190911b6001600160e01b03191660348401526038830152605882015260780190565b60008351611580818460208801611c3a565b60609390931b6001600160601b0319169190920190815260140192915050565b7f466f726d6572204e424120436f6d6d697373696f6e65722044617669642053748152602081019290925260601b6001600160601b031916604082015260540190565b60e09490941b6001600160e01b031916845260609290921b6001600160601b03191660048401526018830152603882015260580190565b6001600160a01b0392831681529116602082015260400190565b6001600160a01b039384168152919092166020820152604081019190915260600190565b6001600160a01b039690961686526020860194909452604085019290925260608401521515608083015260a082015260c00190565b9384526001600160a01b039283166020850152604084019190915216606082015260800190565b600085825260018060a01b038516602083015283604083015260806060830152610fac60808301846114c9565b93845260ff9290921660208401526040830152606082015260800190565b6001600160e01b031991909116815260200190565b60208082526018908201527f45434453413a20696e76616c6964207369676e61747572650000000000000000604082015260600190565b60208082526018908201527f56616c7565206f7574206f662072616e676520554e424f580000000000000000604082015260600190565b60208082526022908201527f4e6f20656e6f756768206572633732315f746f6b656e5f69642070726f766964604082015261195960f21b606082015260800190565b6020808252601f908201527f45434453413a20696e76616c6964207369676e6174757265206c656e67746800604082015260600190565b602080825260149082015273105d081b19585cdd080c481c9958da5c1a595b9d60621b604082015260600190565b6020808252600f908201526e139bdd08195e1c1a5c9959081e595d608a1b604082015260600190565b6020808252600f908201526e139bc8185c1c1c9bdd9959081e595d608a1b604082015260600190565b60208082526022908201527f45434453413a20696e76616c6964207369676e6174757265202773272076616c604082015261756560f01b606082015260800190565b6020808252600c908201526b4f7574206f662073746f636b60a01b604082015260600190565b6020808252601a908201527f726571756972652023746f6b656e73203d20237061636b657473000000000000604082015260600190565b6020808252602e908201527f496e697469616c697a61626c653a20636f6e747261637420697320616c72656160408201526d191e481a5b9a5d1a585b1a5e995960921b606082015260800190565b60208082526022908201527f45434453413a20696e76616c6964207369676e6174757265202776272076616c604082015261756560f01b606082015260800190565b6020808252600f908201526e105b1c9958591e4818db185a5b5959608a1b604082015260600190565b6020808252600e908201526d2737ba103cb7bab9103a37b5b2b760911b604082015260600190565b6020808252601390820152721d995c9a599a58d85d1a5bdb8819985a5b1959606a1b604082015260600190565b6020808252601b908201527f4e6f6e65206c65667420696e2074686520726564207061636b65740000000000604082015260600190565b60208082526010908201526f105b1c9958591e481499599d5b99195960821b604082015260600190565b6020808252601690820152750acc2d8eaca40deeae840decc40e4c2dcceca40849eb60531b604082015260600190565b6020808252601690820152754174206d6f73742032353520726563697069656e747360501b604082015260600190565b6020808252600c908201526b43726561746f72204f6e6c7960a01b604082015260600190565b602080825260079082015266115e1c1a5c995960ca1b604082015260600190565b90815260200190565b600083825260406020830152611b5260408301846114c9565b949350505050565b60006101408c83528b6020840152806040840152611b7a8184018c611503565b90508281036060840152611b8e818b611503565b6001600160a01b038a8116608086015260a085018a9052881660c085015260e0840187905261010084018690528381036101208501529050611bd081856114c9565b9d9c50505050505050505050505050565b60405181810167ffffffffffffffff81118282101715611c0357611c03611cdb565b604052919050565b60008219821115611c1e57611c1e611cc5565b500190565b600082821015611c3557611c35611cc5565b500390565b60005b83811015611c55578181015183820152602001611c3d565b83811115610ea15750506000910152565b6000600019821415611c7a57611c7a611cc5565b5060010190565b600063ffffffff80831681811415611c9b57611c9b611cc5565b6001019392505050565b600082611cc057634e487b7160e01b81526012600452602481fd5b500690565b634e487b7160e01b600052601160045260246000fd5b634e487b7160e01b600052604160045260246000fd5b6001600160a01b038116811461088657600080fdfea2646970667358221220261fc1c70bc90a2e1477232c44cd690d4a86246a8cd2f66f3816f5f25ca23ea164736f6c63430008000033",
  "linkReferences": {},
  "deployedLinkReferences": {}
}